:020000040800F2
:1000000000280020892D0008052D00080B2D000870
:10001000112D0008172D00081D2D000800000000FC
:10002000000000000000000000000000232D000878
:100030002F2D0008000000003B2D0008472D000870
:10004000D12D0008D12D0008D12D0008D12D000898
:10005000D12D0008D12D0008D12D0008D12D000888
:10006000D12D0008D12D0008D12D0008D12D000878
:10007000D12D0008D12D0008D12D0008D12D000868
:10008000D12D0008D12D0008552D0008D12D0008D4
:10009000D12D0008D12D0008D12D0008D12D000848
:1000A000D12D0008D12D0008D12D0008D12D000838
:1000B000692D0008D12D000800000000D12D000896
:1000C000D12D00080000000000000000D12D000824
:1000D00000000000D12D0008D12D00080000000014
:1000E000D12D0008D12D0008D12D000800000000FE
:1000F0000000000000000000000000000000000000
:0C01000000000000000000005FF808F1A3
:1001100010B5054C237833B9044B13B10448AFF341
:1001200000800123237010BD440100200000000066
:10013000405F000808B5034B1BB103490348AFF308
:10014000008008BD0000000048010020405F00085A
:1001500010F8012B11F8013B012A28BF9A42F7D071
:10016000D01A704781F0004102E000BF83F00043E5
:1001700030B54FEA41044FEA430594EA050F08BF42
:1001800090EA020F1FBF54EA000C55EA020C7FEA06
:10019000645C7FEA655C00F0E2804FEA5454D4EB83
:1001A0005555B8BF6D420CDD2C4480EA020281EA4D
:1001B000030382EA000083EA010180EA020281EA85
:1001C0000303362D88BF30BD11F0004F4FEA0131D7
:1001D0004FF4801C4CEA113102D0404261EB4101E6
:1001E00013F0004F4FEA03334CEA133302D052426C
:1001F00063EB430394EA050F00F0A780A4F1010428
:10020000D5F1200E0DDB02FA0EFC22FA05F2801861
:1002100041F1000103FA0EF2801843FA05F3594147
:100220000EE0A5F120050EF1200E012A03FA0EFCC6
:1002300028BF4CF0020C43FA05F3C01851EBE371F0
:1002400001F0004507D54FF0000EDCF1000C7EEB0D
:1002500000006EEB0101B1F5801F1BD3B1F5001F4B
:100260000CD349085FEA30004FEA3C0C04F101046A
:100270004FEA445212F5800F80F09A80BCF1004F93
:1002800008BF5FEA500C50F1000041EB045141EA15
:10029000050130BD5FEA4C0C404141EB0101013CDE
:1002A00028BFB1F5801FE9D291F0000F04BF0146CD
:1002B0000020B1FA81F308BF2033A3F10B03B3F19F
:1002C00020020CDA0C3208DD02F1140CC2F10C022F
:1002D00001FA0CF021FA02F10CE002F11402D8BF8D
:1002E000C2F1200C01FA02F120FA0CFCDCBF41EA59
:1002F0000C019040E41AA2BF01EB0451294330BD28
:100300006FEA04041F3C1CDA0C340EDC04F1140404
:10031000C4F1200220FA04F001FA02F340EA0300DB
:1003200021FA04F345EA030130BDC4F10C04C4F121
:10033000200220FA02F001FA04F340EA0300294601
:1003400030BD21FA04F0294630BD94F0000F83F44B
:10035000801306BF81F480110134013D4EE77FEA2E
:10036000645C18BF7FEA655C29D094EA050F08BF7A
:1003700090EA020F05D054EA000C04BF194610465B
:1003800030BD91EA030F1EBF0021002030BD5FEA9F
:10039000545C05D14000494128BF41F0004130BDC7
:1003A00014F580043CBF01F5801130BD01F000451B
:1003B00045F0FE4141F470014FF0000030BD7FEA8E
:1003C000645C1ABF194610467FEA655C1CBF0B4689
:1003D000024650EA013406BF52EA033591EA030FA0
:1003E00041F4002130BD00BF90F0000F04BF002198
:1003F000704730B54FF4806404F132044FF00005CB
:100400004FF0000150E700BF90F0000F04BF002143
:10041000704730B54FF4806404F1320410F00045A9
:1004200048BF40424FF000013EE700BF42004FEAA4
:10043000E2014FEA31014FEA02701FBF12F07F4321
:1004400093F07F4F81F06051704732F07F4208BFD8
:10045000704793F07F4F04BF41F40021704730B5DF
:100460004FF4607401F0004521F000411CE700BF2B
:1004700050EA010208BF704730B54FF000050AE0AE
:1004800050EA010208BF704730B511F0004502D5AF
:10049000404261EB41014FF4806404F132045FEAB1
:1004A000915C3FF4D8AE4FF003025FEADC0C18BF5A
:1004B00003325FEADC0C18BF033202EBDC02C2F14C
:1004C000200300FA03FC20FA02F001FA03FE40EADE
:1004D0000E0021FA02F11444BDE600BF70B54FF0E2
:1004E000FF0C4CF4E06C1CEA11541DBF1CEA1355C0
:1004F00094EA0C0F95EA0C0F00F0DEF82C4481EA28
:10050000030621EA4C5123EA4C5350EA013518BF47
:1005100052EA033541F4801143F4801338D0A0FB34
:1005200002CE4FF00005E1FB02E506F00042E0FBE1
:1005300003E54FF00006E1FB03569CF0000F18BFE7
:100540004EF0010EA4F1FF04B6F5007F64F540748F
:1005500004D25FEA4E0E6D4146EB060642EAC62122
:1005600041EA55514FEAC52040EA5E504FEACE2E8F
:10057000B4F1FD0C88BFBCF5E06F1ED8BEF1004F92
:1005800008BF5FEA500E50F1000041EB045170BD0E
:1005900006F0004646EA010140EA020081EA030152
:1005A000B4EB5C04C2BFD4EB0C0541EA045170BD4E
:1005B00041F480114FF0000E013C00F3AB8014F1C8
:1005C000360FDEBF002001F0004170BDC4F1000411
:1005D000203C35DA0C341BDC04F11404C4F1200592
:1005E00000FA05F320FA04F001FA05F240EA0200ED
:1005F00001F0004221F0004110EBD37021FA04F623
:1006000042EB06015EEA430E08BF20EAD37070BDDC
:10061000C4F10C04C4F1200500FA04F320FA05F03B
:1006200001FA04F240EA020001F0004110EBD3703D
:1006300041F100015EEA430E08BF20EAD37070BDAD
:10064000C4F1200500FA05F24EEA020E20FA04F386
:1006500001FA05F243EA020321FA04F001F0004135
:1006600021FA04F220EA020000EBD3705EEA430EA6
:1006700008BF20EAD37070BD94F0000F0FD101F0D5
:100680000046400041EB010111F4801F08BF013C0E
:10069000F7D041EA060195F0000F18BF704703F04C
:1006A0000046520043EB030313F4801F08BF013DD3
:1006B000F7D043EA0603704794EA0C0F0CEA13558F
:1006C00018BF95EA0C0F0CD050EA410618BF52EA49
:1006D0004306D1D181EA030101F000414FF000004F
:1006E00070BD50EA410606BF1046194652EA43065D
:1006F00019D094EA0C0F02D150EA013613D195EAD1
:100700000C0F05D152EA03361CBF104619460AD118
:1007100081EA030101F0004141F0FE4141F4700122
:100720004FF0000070BD41F0FE4141F4780170BD12
:1007300070B54FF0FF0C4CF4E06C1CEA11541DBF77
:100740001CEA135594EA0C0F95EA0C0F00F0A7F879
:10075000A4EB050481EA030E52EA03354FEA0131A6
:1007600000F088804FEA03334FF0805545EA1313B9
:1007700043EA12634FEA022245EA111545EA106581
:100780004FEA00260EF000419D4208BF964244F118
:10079000FD0404F5407402D25B084FEA3202B61A37
:1007A00065EB03055B084FEA32024FF480104FF40B
:1007B000002CB6EB020E75EB030E22BFB61A75467F
:1007C00040EA0C005B084FEA3202B6EB020E75EB12
:1007D000030E22BFB61A754640EA5C005B084FEA7A
:1007E0003202B6EB020E75EB030E22BFB61A754647
:1007F00040EA9C005B084FEA3202B6EB020E75EB52
:10080000030E22BFB61A754640EADC0055EA060E12
:1008100018D04FEA051545EA16754FEA06164FEA55
:10082000C30343EA52734FEAC2025FEA1C1CC0D101
:1008300011F4801F0BD141EA00014FF000004FF08E
:10084000004CB6E711F4801F04BF01430020B4F14F
:10085000FD0C88BFBCF5E06F3FF6AFAEB5EB030C07
:1008600004BFB6EB020C5FEA500C50F1000041EB04
:10087000045170BD0EF0004E4EEA113114EB5C04D1
:10088000C2BFD4EB0C0541EA045170BD41F48011A4
:100890004FF0000E013C90E645EA060E8DE60CEAAC
:1008A000135594EA0C0F08BF95EA0C0F3FF43BAFC9
:1008B00094EA0C0F0AD150EA01347FF434AF95EA80
:1008C0000C0F7FF425AF104619462CE795EA0C0F64
:1008D00006D152EA03353FF4FDAE1046194622E731
:1008E00050EA410618BF52EA43067FF4C5AE50EA0B
:1008F00041047FF40DAF52EA43057FF4EBAE12E7FB
:100900004A0011D212F5001211D20DD56FF478738E
:10091000B3EB62520ED44FEAC12343F0004343EAE3
:10092000505323FA02F070474FF00000704750EA2E
:10093000013002D14FF0FF3070474FF00000704798
:1009400080B483B000AF00237B6039E0214A7B682C
:100950005B01134401221A601E4A7B685B01134449
:10096000043301221A601B4A7B685B01134408337D
:1009700001221A60174A7B685B0113440C33012281
:100980001A60144A7B685B011344103332221A60E8
:10099000104A7B685B011344143300221A600D4A2D
:1009A0007B685B011344183300221A60094A7B6894
:1009B0005B0113441C3300221A607B6801337B60A7
:1009C0007B68092BC2DD00BF00BF0C37BD4680BC71
:1009D000704700BFBC01002080B483B000AF7860D6
:1009E0000B4A7B685B01134414331B68012B08D14D
:1009F000074A7B685B011344143300221A60012309
:100A000000E0002318460C37BD4680BC704700BF8D
:100A1000BC01002080B483B000AF78600B4A7B68D3
:100A20005B01134418331B68012B08D1074A7B680C
:100A30005B011344183300221A60012300E00023F5
:100A400018460C37BD4680BC704700BFBC01002073
:100A500080B483B000AF78600B4A7B685B011344BD
:100A60001C331B68012B08D1074A7B685B011344C8
:100A70001C3300221A60012300E0002318460C37C3
:100A8000BD4680BC704700BFBC01002080B483B06D
:100A900000AF7860054A7B685B0113441433002281
:100AA0001A6000BF0C37BD4680BC7047BC010020F7
:100AB00080B582B000AF00237B60B3E05E4A7B6804
:100AC0005B01134404331A685B497B685B010B4488
:100AD00008331A60584A7B685B0113441A68564908
:100AE0007B685B010B4404331A60544A7B6852F8FC
:100AF000232053497B6831F813301946104603F020
:100B00006BF8034619464C4A7B685B011344196035
:100B1000494A7B685B01134404331A6846497B6881
:100B20005B010B441B689A4279D1434A7B685B01A5
:100B3000134404331A6840497B685B010B44083353
:100B40001B689A426BD13C4A7B685B0113440833B3
:100B50001A6839497B685B010B440C331B689A4265
:100B600032D0354A7B685B01134408331A68324936
:100B70007B685B010B440C331A602F4A7B685B0176
:100B800013440C331B68002B0ED12B4A7B685B018E
:100B90001344103332221A60274A7B685B011344E6
:100BA000143301221A603AE0234A7B685B01134444
:100BB0000C331B68012B32D11F4A7B685B01134445
:100BC0001C3301221A602AE01B4A7B685B01134434
:100BD0000C331B68002B22D1174A7B685B0113443E
:100BE00010331B685A1E14497B685B010B44103399
:100BF0001A60114A7B685B01134410331B68002B99
:100C00000DD10D4A7B685B011344103332221A6008
:100C1000094A7B685B011344183301221A607B6820
:100C200001337B607B68092B7FF748AF00BF00BFB3
:100C30000837BD4680BD00BFBC0100200000002079
:100C4000280000200000000080B584B000AF78606C
:100C50000023FB6025E01A4AFB6852F833307968BC
:100C60001846FFF775FA0346002B17D1144AFB68A4
:100C7000DB0013445B681846FFF7D8FB02460B46BF
:100C80000DA1D1E90001FFF753FD02460B461046C6
:100C90001946FFF735FE0346013B06E0FB680133CA
:100CA000FB60FB680E2BD6D9002318461037BD46D3
:100CB00080BD00BFAFF300800000000080842E41A3
:100CC0003C00002080B584B000AF78600B467B808C
:100CD00013467B707868FFF7B7FFF860FB68002B5E
:100CE00025D0154B07225A60134AFB68D36012487F
:100CF00004F0A2F97B78FA6802FB03F30F4AA2FB27
:100D000003235B09BB600C4B1B68BA685A63002164
:100D1000094804F0E9F97B88184602F0BDF8002183
:100D2000054804F07DFA322002F0B6F800E000BF7A
:100D30001037BD4680BD00BF800300201F85EB51EA
:100D400080B500AF1E2264211648FFF7BBFF2322A7
:100D500064211548FFF7B6FF282264211348FFF7E6
:100D6000B1FF2D2278211248FFF7ACFF3222782103
:100D70001048FFF7A7FF372278210F48FFF7A2FF9F
:100D800046224FF416710D48FFF79CFF642002F0D5
:100D900083F84B224FF461710848FFF793FF00BFBF
:100DA00080BD00BF585F0008605F0008685F0008F2
:100DB000745F00087C5F0008845F0008905F000893
:100DC00080B500AF2322C8210D48FFF77BFF1E220C
:100DD000C8210C48FFF776FF1E22C8210A48FFF7FA
:100DE00071FF19224FF496710848FFF76BFF142228
:100DF0004FF461710648FFF765FF00BF80BD00BF7B
:100E0000745F0008705F00086C5F0008685F00088E
:100E1000605F000880B500AF1E22C8210C48FFF7B4
:100E200051FF2322C8210B48FFF74CFF2822C8217D
:100E30000948FFF747FF2322C8210648FFF742FF72
:100E40002D224FF4FA710548FFF73CFF00BF80BD2B
:100E5000585F0008605F0008685F0008745F000862
:100E600080B500AF01228021044802F0CCFE0022B0
:100E70008021024802F0C7FE00BF80BD000801408B
:100E800080B500AF01224021044802F0BCFE0022E0
:100E90004021024802F0B7FE00BF80BD00080140BB
:100EA00080B584B000AF0346FB710723FB6011E0FF
:100EB000FA79FB6842FA03F3DBB203F00103DBB219
:100EC0001A460121074802F09EFEFFF7C9FFFB68A2
:100ED000013BFB60FB68002BEADA00BF00BF103764
:100EE000BD4680BD000C014080B582B000AF034616
:100EF000FB710B46BB7113467B71002240210A48EF
:100F000002F081FEFB791846FFF7CAFFBB7918464D
:100F1000FFF7C6FF7B791846FFF7C2FFFFF7B0FF68
:100F200000BF0837BD4680BD0008014080B483B0D3
:100F300000AF0346FB71FB79DB43DBB203F07F03B9
:100F4000DBB218460C37BD4680BC704780B485B014
:100F500000AFF860B9607A60064AFB681360054A22
:100F6000BB685360034A7B68936000BF1437BD467B
:100F700080BC7047BC000020B0B582B000AF144BFD
:100F80001B68144AD35CFB71114B5B68114AD35C3C
:100F9000BB710F4B9B680F4AD35C7B717B79184602
:100FA000FFF7C4FF03461C46BB791846FFF7BEFF98
:100FB00003461D46FB791846FFF7B8FF03461A465D
:100FC00029462046FFF790FF00BF0837BD46B0BD59
:100FD000BC0000204061000880B500AF00F076FC46
:100FE000C821062001F0DCFCFA21092001F0D8FC20
:100FF00000BF80BD80B500AF0321002000F032FCAF
:10100000034800F08BFC00F05FFB00BF80BD00BF19
:10101000945F000880B582B000AF786000F018FCE3
:101020007B68143B052B77D801A252F823F000BF50
:1010300049100008591000086910000879100008CC
:10104000B3100008ED1000080821002000F00AFC91
:10105000344800F063FC60E00621002000F002FC50
:10106000314800F05BFC58E00021002000F0FAFB62
:101070002E4800F053FC50E00521012000F0F2FB67
:101080002B4800F04BFC0D21012000F0EBFB294820
:1010900000F044FC0321022000F0E4FB264800F0AD
:1010A0003DFC0C21022000F0DDFB244800F036FC62
:1010B00033E00521012000F0D5FB1D4800F02EFC97
:1010C0000D21012000F0CEFB1A4800F027FC03217F
:1010D000022000F0C7FB194800F020FC0C21022080
:1010E00000F0C0FB144800F019FC16E005210120B7
:1010F00000F0B8FB0E4800F011FC0D21012000F0BB
:10110000B1FB0C4800F00AFC0121022000F0AAFB10
:101110000B4800F003FC00E000BF00BF0837BD46ED
:1011200080BD00BFA45F0008AC5F0008B85F000886
:10113000D05F0008D45F0008D85F0008E05F0008B7
:10114000E85F000880B592B000AF062001F048FCCF
:101150000346002B7AD0C821062001F021FC002391
:101160007B640DE007F11C027B6C134420221A7093
:101170003A1D7B6C134420221A707B6C01337B6414
:101180007B6C132BEEDD002387F8303000233B7699
:1011900000233B6413E02F4B1A683B6CD31A7B632C
:1011A0007B6B012B08DD7B6B112B05DC07F11C022F
:1011B0007B6B13443C221A703B6C01333B643B6CE9
:1011C000022BE8DD0023FB6312E0234B1B68FA6B64
:1011D0001344BB63BB6B012B07DDBB6B112B04DC22
:1011E0003A1DBB6B13443E221A70FB6B0133FB6349
:1011F000FB6B022BE9DD0021012000F033FB07F13E
:101200001C03184600F08AFB0021022000F02AFB94
:101210003B1D184600F082FB0E4B1B68013B0D4A3C
:1012200013600D4B1B6801330B4A1360094B1B689D
:10123000B3F1FF3F02DA074B11221A60064B1B681D
:10124000122B04DD044B00221A6000E000BF483777
:10125000BD4680BDB4000020B800002080B400AFBF
:10126000044B11221A60044B02221A6000BFBD46D3
:1012700080BC7047B4000020B800002080B500AFEB
:10128000D14B1B68072B00F2DA8101A252F823F040
:10129000B112000811130008A71300083D1400083C
:1012A000D3140008B91200086515000827160008B5
:1012B000C54B05221A60D1E10021002000F0D2FACE
:1012C000C24800F02BFB0021012000F0CBFAC048FF
:1012D00000F024FB0021022000F0C4FABD4800F019
:1012E0001DFB0021032000F0BDFABB4800F016FBF7
:1012F0000020FFF771FB0346012B40F0A28100F0B4
:10130000A7FAB14B01221A600020FFF7BFFB98E15A
:101310000021002000F0A6FAB04800F0FFFA0021FA
:10132000012000F09FFAAA4800F0F8FA00210220FC
:1013300000F098FAA74800F0F1FA0021032000F02D
:1013400091FAA54800F0EAFA0220FFF745FB0346B0
:10135000012B18D1A24B01221A6001F003F900F011
:1013600077FA0521012000F07DFA9E4800F0D6FAB8
:101370000221032000F076FA9B4800F0CFFA022009
:10138000FFF784FB6AE10020FFF726FB0346012BF1
:1013900040F0598100F05CFA8B4B02221A60002069
:1013A000FFF774FB4FE10021002000F05BFA874853
:1013B00000F0B4FA0021012000F054FA8B4800F04C
:1013C000ADFA0021022000F04DFA824800F0A6FAA2
:1013D0000021032000F046FA7F4800F09FFA022027
:1013E000FFF7FAFA0346012B18D17D4B02221A604F
:1013F00001F03CF800F02CFA0521012000F032FA4F
:101400007B4800F08BFA0221032000F02BFA76488B
:1014100000F084FA0220FFF739FB1FE10020FFF7FC
:10142000DBFA0346012B40F0108100F011FA664B05
:1014300003221A600020FFF729FB06E100210020AB
:1014400000F010FA614800F069FA0021012000F074
:1014500009FA5F4800F062FA0021022000F002FA67
:10146000644800F05BFA0021032000F0FBF95A48C1
:1014700000F054FA0220FFF7AFFA0346012B18D10F
:10148000574B03221A6000F06BFF00F0E1F90321D3
:10149000012000F0E7F9584800F040FA022103204B
:1014A00000F0E0F9504800F039FA0220FFF7EEFAB8
:1014B000D4E00020FFF790FA0346012B40F0C780EC
:1014C00000F0C6F9404B04221A600020FFF7DEFA54
:1014D000BDE00021002000F0C5F93C4800F01EFAF4
:1014E0000021012000F0BEF9394800F017FA002170
:1014F000022000F0B7F9374800F010FA002103206D
:1015000000F0B0F93D4800F009FA0220FFF764FA54
:101510000346012B16D1324B04221A6001F002FA65
:1015200000F096F90521012000F09CF9344800F004
:10153000F5F94FF47A71072001F032FA0220FFF733
:10154000A5FA8BE00020FFF747FA0346012B40F095
:10155000808000F07DF91C4B06221A600020FFF706
:1015600095FA76E00021002000F07CF9184800F0A0
:10157000D5F90021012000F075F9164800F0CEF9E8
:101580000021022000F06EF9134800F0C7F9002195
:10159000032000F067F91B4800F0C0F90220FFF7B4
:1015A0001BFA0346012B2FD1092209210920FFF73D
:1015B000CDFCFFF7E1FC00F04BF9094B07221A6064
:1015C000014B07221A6049E060010020FC5F00081F
:1015D0000C600008186000082C6000083C600008DF
:1015E000640100204C600008586000086C6000082E
:1015F000786000088460000898600008A86000080F
:10160000B8600008C46000080020FFF7E5F9034651
:10161000012B20D100F01CF9114B01221A6000208F
:10162000FFF734FA17E00320FFF7D6F90346012B42
:1016300013D100F00DF90320FFF728FA0EE000BFE8
:101640000CE000BF0AE000BF08E000BF06E000BFFA
:1016500004E000BF02E000BF00E000BF00BF80BDAB
:101660006001002080B582B000AF78607B68012BFC
:101670000ED10021012000F0F5F8104800F04EF9DD
:101680000221032000F0EEF80D4800F047F910E0C9
:101690007B68022B0DD10721012000F0E3F80948F7
:1016A00000F03CF90221032000F0DCF8044800F0CF
:1016B00035F900BF0837BD4680BD00BFD4600008C3
:1016C00058600008E460000880B500AF01210220E6
:1016D00000F0C8F81A4800F021F90621022000F0B5
:1016E000C1F8184800F01AF90C21022000F0BAF8ED
:1016F000154800F013F91121022000F0B3F8134847
:1017000000F00CF90021032000F0ACF8104800F0C4
:1017100005F90521032000F0A5F80E4800F0FEF8B9
:101720000B21032000F09EF80B4800F0F7F8102181
:10173000032000F097F8094800F0F0F800BF80BDE2
:10174000F4600008F8600008FC6000080061000810
:10175000046100080C610008146100081C610008A5
:1017600080B400AF094B1A68084B5B689A4207D1F6
:10177000064B5A68054B9B689A4201D1012300E051
:1017800000231846BD4680BC704700BFBC00002047
:1017900080B586B002AF0346FB71FB7923F00F03DF
:1017A000FB73FB791B01BB73FB7B43F00C03DBB2C8
:1017B0003B72FB7B43F00803DBB27B72BB7B43F0E5
:1017C0000C03DBB2BB72BB7B43F00803DBB2FB72E2
:1017D00007F108026423009304234E21034802F01A
:1017E00087FB00BF1037BD4680BD00BFFC02002054
:1017F00080B586B002AF0346FB71FB7923F00F037F
:10180000FB73FB791B01BB73FB7B43F00D03DBB266
:101810003B72FB7B43F00903DBB27B72BB7B43F083
:101820000D03DBB2BB72BB7B43F00903DBB2FB727F
:1018300007F108026423009304234E21034802F0B9
:1018400057FB00BF1037BD4680BD00BFFC02002023
:1018500080B500AF0120FFF79BFF022001F01CFBC9
:1018600000BF80BD80B584B000AF786039607B6810
:10187000032B1FD801A252F823F000BF8D180008D7
:1018800097180008A1180008AB1800083B68DBB2E5
:10189000803BFB7311E03B68DBB2403BFB730CE029
:1018A0003B68DBB26C3BFB7307E03B68DBB22C3B75
:1018B000FB7302E08023FB7300BFFB7B1846FFF73E
:1018C00067FF00BF1037BD4680BD00BF80B500AFC9
:1018D000322001F0E1FA3020FFF75AFF052001F035
:1018E000DBFA3020FFF754FF012001F0D5FA302059
:1018F000FFF74EFF2020FFF74BFF2820FFF748FFA0
:101900000C20FFF745FF0120FFF742FF022001F006
:10191000C3FA0620FFF73CFF00BF80BD80B582B050
:1019200000AF786006E07B685A1C7A601B78184626
:10193000FFF75EFF7B681B78002BF4D100BF00BF70
:101940000837BD4680BD000080B500AF00221021E1
:10195000044802F058F900222021024802F053F90D
:1019600000BF80BD000C014080B500AF0B4B1B7861
:1019700003F00103002B04D001221021084802F0DB
:1019800042F9064B1B7803F00203002B04D001221E
:101990002021034802F037F900BF80BD7801002004
:1019A000000C014080B582B000AF0346FB71FFF729
:1019B000CBFF094AFB791370084B03221A60FFF72B
:1019C000D3FF6421082000F0EBFF054B01221A70C1
:1019D00000BF0837BD4680BD78010020740100209B
:1019E0007001002080B500AFFFF7AEFF034B00226F
:1019F0001A70034B00221A7000BF80BD70010020D6
:101A00007801002080B500AF0120FFF7CBFF00BFB9
:101A100080BD80B500AF0220FFF7C4FF00BF80BDCE
:101A200080B500AF0320FFF7BDFF00BF80BD000001
:101A300080B500AF194B1B78002B2DD0082000F08B
:101A4000CFFF0346002B28D0144B1B78012B02D06C
:101A5000022B0AD021E0FFF777FF6421082000F075
:101A60009FFF0E4B02221A7017E00D4B1B68013BC3
:101A70000B4A13600A4B1B68002B09DDFFF774FF4C
:101A80006421082000F08CFF044B01221A7004E04E
:101A9000024B00221A7000E000BF80BD70010020E0
:101AA0007401002080B500AF194B1A68194913461C
:101AB0005B0013449B000B441B68174A1360144BD4
:101AC0001A68144913465B0013449B000B4404330B
:101AD0001B68114A53600E4B1A680E4913465B008F
:101AE00013449B000B4408331B680B4A9360FFF7B9
:101AF00043FA074B1B680133054A1360044B1B680C
:101B0000012B02DD024B00221A6000BF80BD00BF26
:101B10007C010020C8000020BC00002080B500AF80
:101B2000504B1B68072B00F29A8001A252F823F059
:101B3000511B0008811B0008A51B0008C91B0008D9
:101B4000ED1B0008531C00085F1C00081D1C00084A
:101B5000092209210920FFF7F9F9FFF70DFAFFF72C
:101B600049FA0320FEF738FF0346012B74D1FFF733
:101B70006FFE3C4B05221A600320FEF787FF6BE0E7
:101B80000320FEF729FF0346012B08D1FFF760FE73
:101B9000344B05221A600320FEF778FF5FE000F067
:101BA00077FC5CE00320FEF717FF0346012B08D10A
:101BB000FFF74EFE2B4B05221A600320FEF766FF4F
:101BC0004DE000F0DFFB4AE00320FEF705FF03468F
:101BD000012B08D1FFF73CFE224B05221A6003209F
:101BE000FEF754FF3BE000F0F7FA38E00320FEF781
:101BF000F3FE0346012B08D1FFF72AFE194B0522FD
:101C00001A600320FEF742FF29E0072000F0E8FEFB
:101C10000346002B22D000F053FD1FE0FFF7EAF946
:101C20000320FEF7D9FE0346012B12D10922092118
:101C30000920FFF78BF9FFF79FF9FFF709FE094B22
:101C400005221A60084B00221A600320FEF71EFFCF
:101C500005E0FFF713FB02E000BF00E000BF00BF9C
:101C600080BD00BF640100206001002080B500AF8E
:101C700001F0B0F8FFF7B6FEFEF762FE642001F057
:101C80000BF900F067F800F013FA00F0C5F900F066
:101C9000B7F800F0F3F800F01FF9294803F080F9D5
:101CA000284801F0F5F9FFF797F90122202126488D
:101CB00001F0A9FFFFF70AFE642001F0EDF86421AE
:101CC000002000F06DFE6421012000F069FEFFF7A6
:101CD000BFFD05210020FFF7C5FD1C48FFF71EFED4
:101CE00003210220FFF7BEFD1948FFF717FE4FF44E
:101CF0007A7001F0D1F8FFF7ABFDFFF78BF8FFF733
:101D000097FE002000F06CFE0346012B08D1202135
:101D10000D4801F090FF4FF47A71002000F040FE72
:101D2000012000F05DFE0346012BE8D1FFF7F6FE2F
:101D3000FFF77EFE0A21012000F032FEDFE700BF40
:101D4000C80300205003002000080140246100085F
:101D50003061000880B594B000AF07F12803282255
:101D60000021184604F0E4F807F1140300221A6079
:101D70005A609A60DA601A613B1D00221A605A604C
:101D80009A60DA600223BB620123BB631023FB630A
:101D900002237B640023BB640023FB6407F1280358
:101DA000184602F0FDFB0346002B01D000F00EFAAE
:101DB0000F237B610223BB610023FB614FF480632F
:101DC0003B6200237B6207F114030021184602F0F6
:101DD00067FE0346002B01D000F0F8F902237B6078
:101DE0004FF40043FB603B1D184602F0D3FF03464F
:101DF000002B01D000F0EAF900BF5037BD4680BD8E
:101E000080B584B000AF3B1D00221A605A609A6012
:101E1000184B194A1A60174B00229A60154B012281
:101E20001A73144B00221A75124B4FF46022DA61B8
:101E3000104B00225A600F4B01221A610D4801F02D
:101E40004FF80346002B01D000F0C0F900237B605F
:101E50000123BB600023FB603B1D1946054801F0D0
:101E600097FA0346002B01D000F0B0F900BF1037FD
:101E7000BD4680BD500300200024014080B500AF66
:101E8000124B134A1A60114B124A5A600F4B002230
:101E90009A600E4B0022DA600C4B4FF480421A61BC
:101EA0000A4B00225A61094B00229A61074B00221B
:101EB000DA61064B00221A62044801F0D5FE03469F
:101EC000002B01D000F082F900BF80BDFC02002091
:101ED00000540040A086010080B596B000AF07F125
:101EE000480300221A605A609A60DA6007F14003E2
:101EF00000221A605A6007F1240300221A605A6017
:101F00009A60DA601A615A619A613B1D20220021B1
:101F1000184604F00DF83E4B3E4A1A603C4B07222F
:101F20005A603B4B00229A60394B42F20F72DA60E2
:101F3000374B00221A61364B00225A61344B002283
:101F40009A61334802F0DCFF0346002B01D000F019
:101F50003DF94FF48053BB6407F1480319462C4800
:101F600003F074FB0346002B01D000F02FF9284842
:101F700003F062F80346002B01D000F027F900239C
:101F80003B6400237B6407F140031946204803F0BB
:101F9000EFFE0346002B01D000F018F960237B62AE
:101FA0000023BB620023FB6200233B6300237B63AF
:101FB0000023BB630023FB6307F1240300221946BF
:101FC000134803F081FA0346002B01D000F0FEF81D
:101FD00000237B600023BB600023FB6000233B6188
:101FE00000237B614FF40053BB6100233B623B1D28
:101FF0001946074803F014FF0346002B01D000F0F8
:10200000E5F8034800F04AFE00BF5837BD4680BDE2
:1020100080030020002C014080B586B000AF07F19E
:10202000080300221A605A609A60DA603B46002278
:102030001A605A601D4B4FF080421A601B4B41F6EC
:102040003F725A60194B00229A60184B0922DA60DD
:10205000164B00221A61154B00229A61134802F0B8
:102060004FFF0346002B01D000F0B0F84FF480532F
:10207000BB6007F1080319460C4803F0E7FA034672
:10208000002B01D000F0A2F800233B6000237B600E
:102090003B461946054803F06BFE0346002B01D072
:1020A00000F094F800BF1837BD4680BDC80300207B
:1020B00080B588B000AF07F1100300221A605A60A3
:1020C0009A60DA60374B9B69364A43F0100393619C
:1020D000344B9B6903F01003FB60FB68314B9B6939
:1020E000304A43F0040393612E4B9B6903F00403D1
:1020F000BB60BB682B4B9B692A4A43F00803936182
:10210000284B9B6903F008037B607B6800224FF437
:102110000051254801F077FD0022EE21234801F00F
:1021200072FD00223121224801F06DFD4FF4005371
:102130003B6101237B610023BB610223FB6107F14B
:1021400010031946184801F0CDFBEE233B61012333
:102150007B610023BB610223FB6107F11003194679
:10216000124801F0BFFB31233B6101237B61002357
:10217000BB610223FB6107F1100319460C4801F013
:10218000B1FB4FF4F0533B6100237B610123BB6142
:1021900007F110031946054801F0A4FB00BF2037E2
:1021A000BD4680BD00100240001001400008014003
:1021B000000C014080B582B000AF786000F024FCD4
:1021C000FEF776FC00BF0837BD4680BD80B400AF87
:1021D00072B600BFFEE70000B0B500AF0120FEF709
:1021E000FBFB0346012B22D1594B1B68002B1ED150
:1021F000FFF734F8FFF72CFBFEF7A4FF554B4FF425
:10220000FA721A60534B1B681946032000F0C8FB92
:102210006421042000F0C4FB0120FEF737FC4C4B86
:102220001B6801334A4A13604B4B00221A60484B2B
:102230001B68002B01DDFEF785FF0120FEF7EAFB9E
:102240000346012B02D1444B00221A600120FEF705
:10225000FFFB0346012B02D13F4B01221A600320F2
:1022600000F0BEFB0346012B19D1394B1B68002B34
:1022700015DD00F081FB044600F07EFB054600F012
:102280007BFB03461A4629462046FEF75FFEFEF713
:1022900073FE304B1B681946032000F081FB0420BD
:1022A00000F09EFB0346012B4FD1294B1B68002BEE
:1022B0004BDD6421042000F073FB274B1B68002BCF
:1022C00012D1244B1B680A2B3FDD224B1A68234B8B
:1022D0001B68D31A1F4A13601E4B1B68092B34DC82
:1022E0001C4B0A221A6030E01A4B1B68B3F5FA7FC8
:1022F00007DA184B1A68194B1B681344154A136008
:1023000023E0FFF7CFFBFFF72BFA0346002B09D0A2
:102310001520FEF77FFEFEF713FDFFF773FBFFF7B7
:10232000D3F908E01620FEF775FEFEF749FDFFF72A
:1023300070FBFFF7C9F9074B4FF4FA721A60064BAE
:1023400000221A60024B00221A6000BFB0BD00BF1D
:102350008401002028010020880100202C01002099
:1023600080B500AF064B00221A60054B00225A6070
:10237000034B03229A60FEF7FFFD00BF80BD00BF44
:10238000BC000020B0B500AF0120FEF725FB0346DE
:10239000012B1FD1344B01221A60FEF75FFFFFF7BC
:1023A00057FAFEF7CFFE0A21022000F0F9FA00F0FA
:1023B000E3FA044600F0E0FA054600F0DDFA0346D1
:1023C0001A4629462046FEF7C1FDFEF7D5FD01203D
:1023D000FEF75CFB244B1B68012B1BD1FEF7B2FE02
:1023E000022000F0FDFA0346002B13D000F0C4FADF
:1023F000044600F0C1FA054600F0BEFA03461A464C
:1024000029462046FEF7A2FDFEF7B6FD6421022014
:1024100000F0C6FA0120FEF71BFB0346012B20D17A
:10242000114B1B68012B1CD10F4B00221A60FFF7C8
:1024300039FBFFF795F90346002B09D01520FEF76D
:10244000E9FDFEF77DFCFFF7DDFAFFF73DF908E057
:102450001620FEF7DFFDFEF7B3FCFFF7DAFAFFF711
:1024600033F900BFB0BD00BF6C01002080B500AFE4
:10247000064B00221A60054B00225A60034B0222D1
:102480009A60FEF779FD00BF80BD00BFBC00002050
:10249000B0B500AF0120FEF79FFA0346012B10D123
:1024A0002E4B01221A600A21022000F079FAFEF771
:1024B000D5FEFFF7CDF900F0E5FC03461A46284BA0
:1024C0001A60264B1B68012B45D1FEF73BFE02200C
:1024D00000F086FA0346012B3DD100F0D3FC034601
:1024E0001F4A12689B1A40F6B732934216D800F082
:1024F00043FA044600F040FA054600F03DFA034670
:102500001A4629462046FEF721FDFEF735FDFEF767
:1025100019FE6421022000F043FA1CE00F4B002258
:102520001A60FFF7BFFAFFF71BF90346002B09D02B
:102530001520FEF76FFDFEF703FCFFF763FAFFF7C8
:10254000C3F808E01620FEF765FDFEF739FCFFF73B
:1025500060FAFFF7B9F800BFB0BD00BF6C01002002
:102560006801002080B500AF064B00221A60054BC1
:1025700000225A60034B01229A60FEF7FDFC00BF67
:1025800080BD00BFBC00002080B400AF4A4B1A6879
:10259000494B5B681A44484B9B681344464AD360D6
:1025A000464B1A68454B5B681A44444B9B6813447E
:1025B000424AD360404B01221A61404B01221A610A
:1025C0003D4B1A683C4B5B689A420BD03A4B1A68F9
:1025D000394B9B689A4205D0374B5A68364B9B68FB
:1025E0009A4202D1344B02221A61344B1A68334B9F
:1025F0005B689A420BD0314B1A68304B9B689A4209
:1026000005D02E4B5A682D4B9B689A4202D12B4B1A
:1026100002221A61284B1A68274B5B689A4208D13C
:10262000254B1A68244B9B689A4202D1224B032205
:102630001A61224B1A68214B5B689A4208D11F4BE2
:102640001A681E4B9B689A4202D11C4B03221A61E6
:10265000194B1A69194B1B699A4201DD012326E0C7
:10266000154B1A69154B1B699A4201DA02231EE0C9
:10267000114B1A69114B1B699A4217D10E4BDA683C
:102680000E4BDB689A4201DD012310E00A4BDA6849
:102690000A4BDB689A4201DA022308E0064BDA684B
:1026A000064BDB689A4201D1632300E00023184601
:1026B000BD4680BC704700BF8C010020A0010020F7
:1026C000B0B582B000AF8D4B1B68012B1BD105202C
:1026D00000F086F90346002B00F00C81874B0022A6
:1026E0001A60874B01221A60864B00221A60864BC3
:1026F0001B680133844A1360834B1B68022B02DD85
:10270000814B00221A60814B1B68002B14D17B4B3C
:102710001B68002B10D17B4B1A68794B1B689A42BF
:102720000AD0FFF795F8764B1B681846FEF79AFF1C
:10273000734B1B68734A13600120FEF74DF9034683
:10274000012B19D16D4B1B68002B15D16F4B01224A
:102750001A6000F097FB03461A466D4B1A60FEF7AD
:102760007DFDFFF775F8FEF7EDFC0A21022000F071
:1027700017F90120FEF78AF9644B1B68012B40F022
:10278000BA80022000F02CF90346012B40F0B38000
:1027900000F078FB03465E4A12689B1A40F6B73297
:1027A000934216D800F0E8F8044600F0E5F8054634
:1027B00000F0E2F803461A4629462046FEF7C6FB1B
:1027C000FEF7DAFBFEF7BEFC6421022000F0E8F819
:1027D00091E04E4B00221A60494B1B68012B14BF3D
:1027E00001230023DBB27B60474B196849487B68B3
:1027F0001A4652001A4493001A460B465B000B44DB
:10280000DB00134403441B68434A13603E4B1968C2
:1028100040487B681A4652001A4493001A460B46F9
:102820005B000B44DB001344034404331B683A4A47
:102830005360354B196837487B681A4652001A4472
:1028400093001A460B465B000B44DB001344034421
:1028500008331B68304A9360FEF78EFB284B1B68D9
:10286000012B0FD12C4B1B682C4A13602A4B5B6841
:102870002A4A5360284B9B68284A9360204B0222C7
:102880001A6038E01E4B1B68022B34D1224B1B68A8
:10289000234A1360204B5B68214A53601E4B9B68A0
:1028A0001F4A9360FFF770FE0346632B12D0632B21
:1028B00016DC012B02D0022B06D011E0FFF7A9F89D
:1028C0001820FEF7A7FB0CE0FFF79CF81720FEF797
:1028D000A1FB06E0FFF7A4F81920FEF79BFB00E040
:1028E00000BF064B01221A604FF4FA61052000F088
:1028F00057F800E000BF0837BD46B0BDB401002066
:1029000030010020B8010020800100206C0100206F
:1029100068010020E0000020BC0000208C010020A5
:10292000A001002080B500AF064B00221A60054BC5
:1029300000225A60034B04229A60FEF71DFB00BF81
:1029400080BD00BFBC00002080B400AF084B1B68F6
:10295000084A02FB03F303F540533933044A13607A
:10296000034B1B681B0C1846BD4680BC704700BF5C
:10297000340100206D4EC64180B500AFFFF7E4FF83
:102980000146064BA3FB0123DA0813469B001344C0
:102990005B00CA1A1346184680BD00BFCDCCCCCC14
:1029A00080B483B000AF786039603B68094A82FB2D
:1029B00003129210DB17D21A07497B6841F82320D3
:1029C000064A7B68002142F8231000BF0C37BD4641
:1029D00080BC70476766666610040020D80400203B
:1029E00080B483B000AF7860064A7B6852F8233029
:1029F000012B01D1012300E0002318460C37BD460E
:102A000080BC7047D804002080B483B000AF00239E
:102A10007B601CE0124A7B6852F82330002B13DDE8
:102A20000F4A7B6852F823305A1E0D497B6841F8E3
:102A300023200B4A7B6852F82330002B04DC094A20
:102A40007B68012142F823107B6801337B607B683F
:102A5000312BDFDD00BF00BF0C37BD4680BC7047A7
:102A600010040020D804002080B485B000AF154BBE
:102A70009B69144A43F001039361124B9B6903F075
:102A80000103BB60BB680F4BDB690E4A43F0805308
:102A9000D3610C4BDB6903F080537B607B680A4B8E
:102AA0005B68FB60FB6823F0E063FB60FB6843F05E
:102AB0000073FB60044AFB68536000BF1437BD46D7
:102AC00080BC7047001002400000014080B588B013
:102AD00000AF786007F1100300221A605A609A6014
:102AE000DA607B681B68184A934229D1174B9B69AF
:102AF000164A43F400739361144B9B6903F400730B
:102B0000FB60FB68114B9B69104A43F0040393611F
:102B10000E4B9B6903F00403BB60BB6801233B6160
:102B200003237B6107F110031946094800F0DAFE20
:102B300000220021122000F09EFE122000F0B7FEBD
:102B400000BF2037BD4680BD002401400010024078
:102B50000008014080B58EB000AF786007F128030F
:102B600000221A605A609A60DA607B681B682C4AFF
:102B7000934250D12B4B9B692A4A43F0080393613F
:102B8000284B9B6903F008037B617B69C023BB6210
:102B90001223FB6200233B6307F1280319462248F6
:102BA00000F0A0FE1F4BDB691E4A43F40013D36103
:102BB0001C4BDB6903F400133B613B69194B9B69B8
:102BC000184A43F008039361164B9B6903F008030E
:102BD000FB60FB68134BDB69124A43F40013D361BB
:102BE000104BDB6903F40013BB60BB6807F11803EB
:102BF00000221A605A609A60DA60C023BB61122317
:102C0000FB6100233B6203237B6207F11803194633
:102C1000054800F067FE00BF3837BD4680BD00BFE5
:102C20000054004000100240000C014080B584B008
:102C300000AF78607B681B68164A93420CD1164B34
:102C40009B69154A43F400639361134B9B6903F43A
:102C50000063FB60FB6818E07B681B68B3F1804F82
:102C600013D10D4BDB690C4A43F00103D3610A4BCE
:102C7000DB6903F00103BB60BB68002200211C205C
:102C800000F0F9FD1C2000F012FE00BF1037BD4619
:102C900080BD00BF002C01400010024080B588B00C
:102CA00000AF786007F1100300221A605A609A6042
:102CB000DA607B681B68104A934218D10F4B9B69FE
:102CC0000E4A43F0040393610C4B9B6903F0040329
:102CD000FB60FB684FF480733B6102237B6102233E
:102CE000FB6107F110031946054800F0FBFD00BF2A
:102CF0002037BD4680BD00BF002C014000100240BF
:102D00000008014080B400AFFEE780B400AFFEE7EA
:102D100080B400AFFEE780B400AFFEE780B400AF40
:102D2000FEE780B400AF00BFBD4680BC704780B4F2
:102D300000AF00BFBD4680BC704780B400AF00BF8D
:102D4000BD4680BC704780B500AF00F089F800BF79
:102D500080BD000080B500AF024800F047FA00BF18
:102D600080BD00BF5003002080B500AF024802F0D4
:102D7000BBFA00BF80BD00BFC803002080B400AF15
:102D800000BFBD4680BC7047FFF7F8FF0B480C49F9
:102D90000C4A002302E0D458C4500433C4188C42B7
:102DA000F9D3094A094C002301E013600432A2421E
:102DB000FBD303F099F8FEF759FF7047000000209D
:102DC000440100208061000844010020A405002087
:102DD000FEE7000080B500AF084B1B68074A43F0D0
:102DE00010031360032000F03BFD0F2000F008F8F3
:102DF000FFF73AFE0023184680BD00BF00200240C6
:102E000080B582B000AF7860124B1A68124B1B7805
:102E100019464FF47A73B3FBF1F3B2FBF3F31846A0
:102E200000F053FD0346002B01D001230EE07B6828
:102E30000F2B0AD8002279684FF0FF3000F01BFDFD
:102E4000064A7B681360002300E001231846083718
:102E5000BD4680BD38010020400100203C0100201B
:102E600080B400AF054B1B781A46054B1B68134412
:102E7000034A136000BFBD4680BC7047400100207C
:102E8000A005002080B400AF024B1B681846BD4669
:102E900080BC7047A005002080B584B000AF78608A
:102EA000FFF7F0FFB8607B68FB60FB68B3F1FF3FA2
:102EB00005D00A4B1B781A46FB681344FB6000BF21
:102EC000FFF7E0FF0246BB68D31AFA689A42F7D8C8
:102ED00000BF00BF1037BD4680BD00BF40010020CD
:102EE00080B586B000AF78600023FB7500233B619E
:102EF0000023BB600023FB607B68002B01D1012312
:102F0000BEE07B689B68002B7B689B6A002B09D125
:102F10007B680022DA627B68002283F824207868CC
:102F2000FFF7D4FD786800F085FB0346FB757B68EE
:102F30009B6A03F01003002B40F09980FB7D002B6F
:102F400040F095807B689B6A23F4885323F002034A
:102F500043F002027B689A627B685A687B68DB698F
:102F60001A437B681B7B5B001343BA681343BB6047
:102F70007B689B68B3F5807F03D07B689B68012BDF
:102F800002D14FF4807300E000233A6913433B61A0
:102F90007B681B7D012B19D17B681B7B002B09D122
:102FA0007B689B69013B5A033B69134343F400630D
:102FB0003B610BE07B689B6A43F020027B689A626E
:102FC0007B68DB6A43F001027B68DA627B681B681E
:102FD0005B6823F469417B681B683A690A435A605D
:102FE0007B681B689A68284B13407A681268B96836
:102FF0000B4393607B689B68B3F5807F03D07B684D
:103000009B68012B04D17B681B69013B1B05FB609E
:103010007B681B68DB6A23F470017B681B68FA68B5
:103020000A43DA627B681B689A68184B1340BA68D7
:103030009A420BD17B680022DA627B689B6A23F09C
:10304000030343F001027B689A6218E07B689B6A85
:1030500023F0120343F010027B689A627B68DB6AFC
:1030600043F001027B68DA620123FB7507E07B68AD
:103070009B6A43F010027B689A620123FB75FB7D1B
:1030800018461837BD4680BDFDF7E1FFFE0E1FFF55
:1030900080B584B000AF78600023FB737B6893F841
:1030A0002430012B01D1022398E07B68012283F8B0
:1030B0002420786800F064FA0346FB73FB7B002B46
:1030C00040F087807B689B6A23F4407323F0010300
:1030D00043F480727B689A627B681B68414A934222
:1030E00005D1414B5B6803F47023002B15D17B683D
:1030F0009B6A23F480127B689A627B681B685B681A
:1031000003F48063002B26D07B689B6A23F4405332
:1031100043F480527B689A621DE07B689B6A43F4AB
:1031200080127B689A627B681B682F4A934204D0A6
:103130007B681B682B4A93420DD12B4B5B6803F4D1
:103140008063002B07D07B689B6A23F4405343F4D1
:1031500080527B689A627B689B6A03F48053002BE1
:1031600006D07B68DB6A23F006027B68DA6202E045
:103170007B680022DA627B68002283F824207B6867
:103180001B686FF002021A607B681B689B6803F47F
:103190006023B3F5602F13D17B681B68114A9342FB
:1031A00005D1114B5B6803F47023002B08D17B68B9
:1031B0001B689A687B681B6842F4A0029A600CE066
:1031C0007B681B689A687B681B6842F480129A606F
:1031D00003E07B68002283F82420FB7B184610372D
:1031E000BD4680BD002801400024014080B584B068
:1031F00000AF78607B681B681B68FB607B681B689E
:103200005B68BB60BB6803F02003002B3ED0FB680B
:1032100003F00203002B39D07B689B6A03F0100394
:10322000002B05D17B689B6A43F400727B689A622D
:103230007B681B689B6803F46023B3F5602F1DD186
:103240007B681B7B002B19D17B681B685A687B68E5
:103250001B6822F020025A607B689B6A23F480720C
:103260007B689A627B689B6A03F48053002B05D1CC
:103270007B689B6A43F001027B689A62786800F081
:1032800074F87B681B686FF012021A60BB6803F069
:103290008003002B4DD0FB6803F00403002B48D0C3
:1032A0007B689B6A03F01003002B05D17B689B6A47
:1032B00043F400527B689A627B681B689B6803F446
:1032C000E043B3F5E04F12D07B681B685B6803F402
:1032D0008063002B25D17B681B689B6803F4602307
:1032E000B3F5602F1DD17B681B7B002B19D17B6848
:1032F0001B685A687B681B6822F080025A607B68F2
:103300009B6A23F480527B689A627B689B6A03F411
:103310008073002B05D17B689B6A43F001027B68B8
:103320009A62786800F0C7F97B681B686FF00C023E
:103330001A60BB6803F04003002B12D0FB6803F057
:103340000103002B0DD07B689B6A43F480327B68BD
:103350009A62786800F012F87B681B686FF00102CF
:103360001A6000BF1037BD4680BD80B483B000AF87
:10337000786000BF0C37BD4680BC704780B483B016
:1033800000AF786000BF0C37BD4680BC70470000BE
:1033900080B485B000AF786039600023FB730023F0
:1033A000BB607B6893F82430012B01D10223DCE061
:1033B0007B68012283F824203B685B68062B1CD8BD
:1033C0007B681B68596B3B685A6813469B00134423
:1033D000053B1F2202FA03F3DB4319403B681868E0
:1033E0003B685A6813469B001344053B00FA03F2FE
:1033F0007B681B680A435A633CE03B685B680C2BA4
:103400001CD87B681B68196B3B685A6813469B0085
:103410001344233B1F2202FA03F3DB4319403B68AA
:1034200018683B685A6813469B001344233B00FA14
:1034300003F27B681B680A431A631BE07B681B6806
:10344000D96A3B685A6813469B001344413B1F22CC
:1034500002FA03F3DB4319403B6818683B685A687B
:1034600013469B001344413B00FA03F27B681B6840
:103470000A43DA623B681B68092B1CD97B681B680E
:10348000D9683B681A6813465B0013441E3B072249
:1034900002FA03F3DB4319403B6898683B681A68FB
:1034A00013465B0013441E3B00FA03F27B681B6863
:1034B0000A43DA6019E07B681B6819693B681A687F
:1034C00013465B001344072202FA03F3DB4319405F
:1034D0003B6898683B681A6813465B00134400FA1F
:1034E00003F27B681B680A431A613B681B68102B58
:1034F00003D03B681B68112B32D17B681B681D4AC7
:10350000934225D17B681B689B6803F40003002B62
:1035100026D17B681B689A687B681B6842F40002AE
:103520009A603B681B68102B1AD1134B1B68134A17
:10353000A2FB03239A0C13469B0013445B00BB6061
:1035400002E0BB68013BBB60BB68002BF9D107E020
:103550007B689B6A43F020027B689A620123FB73BD
:103560007B68002283F82420FB7B18461437BD4675
:1035700080BC7047002401403801002083DE1B43DB
:1035800080B584B000AF78600023FB600023BB608F
:103590007B681B689B6803F00103012B40D07B68AC
:1035A0001B689A687B681B6842F001029A601F4B97
:1035B0001B681F4AA2FB03239B0CBB6002E0BB6895
:1035C000013BBB60BB68002BF9D1FFF75BFCF860E7
:1035D0001FE0FFF757FC0246FB68D31A022B18D9ED
:1035E0007B681B689B6803F00103012B11D07B688B
:1035F0009B6A43F010027B689A627B68DB6A43F047
:1036000001027B68DA627B68002283F824200123B0
:1036100007E07B681B689B6803F00103012BD8D18E
:10362000002318461037BD4680BD00BF380100207A
:1036300083DE1B4380B584B000AF78600023FB605D
:103640007B681B689B6803F00103012B2ED17B680C
:103650001B689A687B681B6822F001029A60FFF77A
:1036600011FCF8601BE0FFF70DFC0246FB68D31A63
:10367000022B14D97B681B689B6803F00103012BA4
:103680000DD17B689B6A43F010027B689A627B686D
:10369000DB6A43F001027B68DA62012307E07B68A2
:1036A0001B689B6803F00103012BDCD00023184644
:1036B0001037BD4680BD80B483B000AF786000BFD6
:1036C0000C37BD4680BC704780B485B000AF7860D1
:1036D0007B6803F00703FB600C4BDB68BB60BA68D8
:1036E0004FF6FF031340BB60FB681A02BB6813432D
:1036F00043F0BF6343F40033BB60044ABB68D3604C
:1037000000BF1437BD4680BC704700BF00ED00E02D
:1037100080B400AF044BDB681B0A03F007031846B4
:10372000BD4680BC704700BF00ED00E080B483B0B0
:1037300000AF0346FB7197F90730002B0BDBFB79D9
:1037400003F01F02064997F907305B09012000FAD0
:1037500002F241F8232000BF0C37BD4680BC704701
:1037600000E100E080B483B000AF03463960FB7134
:1037700097F90730002B0ADB3B68DAB20C4997F95E
:1037800007301201D2B20B4483F800230AE03B68F1
:10379000DAB20849FB7903F00F03043B1201D2B2FD
:1037A0000B441A7600BF0C37BD4680BC704700BF83
:1037B00000E100E000ED00E080B489B000AFF86007
:1037C000B9607A60FB6803F00703FB61FB69C3F132
:1037D0000703042B28BF0423BB61FB690433062BBA
:1037E00002D9FB69033B00E000237B614FF0FF320D
:1037F000BB6902FA03F3DA43BB681A407B699A405B
:103800004FF0FF317B6901FA03F3D9437B680B402A
:10381000134318462437BD4680BC704780B582B03C
:1038200000AF78607B68013BB3F1807F01D3012357
:103830000FE00A4A7B68013B53600F214FF0FF30D5
:10384000FFF790FF054B00229A60044B07221A6095
:10385000002318460837BD4680BD00BF10E000E0D9
:1038600080B582B000AF78607868FFF72DFF00BFA9
:103870000837BD4680BD80B586B000AF0346B9604D
:103880007A60FB7300237B61FFF742FF78617A68FF
:10389000B9687869FFF790FF024697F90F30114633
:1038A0001846FFF75FFF00BF1837BD4680BD80B5E3
:1038B00082B000AF0346FB7197F907301846FFF757
:1038C00035FF00BF0837BD4680BD80B582B000AF70
:1038D00078607868FFF7A2FF034618460837BD46B0
:1038E00080BD000080B48BB000AF786039600023E9
:1038F0007B6200233B6248E101227B6A02FA03F308
:10390000FB613B681B68FA691340BB61BA69FB69DC
:103910009A4240F037813B685B68A34A93425ED08D
:10392000A14A934275D8A14A934258D09F4A9342E4
:103930006FD89F4A934252D09D4A934269D89D4A7C
:1039400093424CD09B4A934263D89B4A934246D0C1
:10395000994A93425DD8122B2AD8122B59D801A22A
:1039600052F823F0DF390008B9390008CB390008D4
:103970000D3A0008133A0008133A0008133A0008F9
:10398000133A0008133A0008133A0008133A0008E3
:10399000133A0008133A0008133A0008133A0008D3
:1039A000133A0008133A0008C1390008D539000855
:1039B000824A934213D02CE03B68DB683B6229E0EB
:1039C0003B68DB6804333B6224E03B68DB68083318
:1039D0003B621FE03B68DB680C333B621AE03B68EC
:1039E0009B68002B02D104233B6213E03B689B6879
:1039F000012B05D108233B627B68FA691A6109E053
:103A000008233B627B68FA695A6103E000233B624A
:103A100000E000BFBB69FF2B01D87B6801E07B6839
:103A200004337B61BB69FF2B02D87B6A9B0002E0F9
:103A30007B6A083B9B003B617B691A680F213B69ED
:103A400001FA03F3DB431A40396A3B6901FA03F3D5
:103A50001A437B691A603B685B6803F08053002B54
:103A600000F09080564B9B69554A43F001039361E7
:103A7000534B9B6903F00103BB60BB68514A7B6AEF
:103A80009B08023352F82330FB607B6A03F0030388
:103A90009B000F2202FA03F3DB43FA681340FB603A
:103AA0007B68494A93420DD07B68484A934207D0CD
:103AB0007B68474A934201D1022304E0032302E0DA
:103AC000012300E000237A6A02F00302920093408F
:103AD000FA681343FB603B497B6A9B080233FA6830
:103AE00041F823203B685B6803F48013002B06D069
:103AF000384B9A683749BB6913438B6006E0354BF6
:103B00009A68BB69DB43334913408B603B685B6851
:103B100003F40013002B06D02E4BDA682D49BB6945
:103B20001343CB6006E02B4BDA68BB69DB432949C2
:103B30001340CB603B685B6803F40033002B06D076
:103B4000244B5A682349BB6913434B6006E0214B61
:103B50005A68BB69DB431F4913404B603B685B6895
:103B600003F48033002B06D01A4B1A681949BB693D
:103B700013430B6006E0174B1A68BB69DB4315491A
:103B800013400B607B6A01337B623B681A687B6A77
:103B900022FA03F3002B7FF4AFAE00BF00BF2C3737
:103BA000BD4680BC704700BF0000321000003110DD
:103BB000000022100000211000001210000011105F
:103BC000001002400000014000080140000C0140CC
:103BD000001001400004014080B485B000AF78605F
:103BE0000B467B807B689A687B881340002B02D051
:103BF0000123FB7301E00023FB73FB7B18461437A2
:103C0000BD4680BC704780B483B000AF78600B467F
:103C10007B8013467B707B78002B03D07A887B688F
:103C20001A6103E07B881A047B681A6100BF0C37B5
:103C3000BD4680BC704780B485B000AF78600B464D
:103C40007B807B68DB68FB607A88FB6813401A0422
:103C5000FB68D9437B880B401A437B681A6100BF1D
:103C60001437BD4680BC704780B584B000AF786023
:103C70007B68002B01D101232BE17B6893F83D3059
:103C8000DBB2002B06D17B68002283F83C207868E9
:103C9000FEF760FF7B68242283F83D207B681B6869
:103CA0001A687B681B6822F001021A607B681B6837
:103CB0001A687B681B6842F400421A607B681B68C4
:103CC0001A687B681B6822F400421A6001F030F821
:103CD000F8607B685B68814A934207D8FB68804A3A
:103CE000934294BF01230023DBB206E0FB687D4AC8
:103CF000934294BF01230023DBB2002B01D00123A8
:103D0000E7E0FB68784AA2FB03239B0CBB607B685F
:103D10001B685B6823F03F017B681B68BA680A4335
:103D20005A607B681B681B6A23F03F017B685B68F5
:103D30006A4A934202D8BB68013309E0BB684FF47A
:103D4000967202FB03F3694AA2FB03239B0901332A
:103D50007A6812680B4313627B681B68DB6923F483
:103D60004F4222F0FF027B685B685C498B4219D8A6
:103D7000FB68591E7B685B685B00B1FBF3F3591C61
:103D800040F6FC730B40002B0AD0FB68591E7B6881
:103D90005B685B00B1FBF3F30133C3F30B0351E04A
:103DA00004234FE07B689B68002B11D1FB68581EF1
:103DB0007B6859680B465B000B44B0FBF3F301339F
:103DC000C3F30B03002B0CBF01230023DBB212E073
:103DD000FB68581E7B6859680B469B000B44990092
:103DE0000B44B0FBF3F30133C3F30B03002B0CBF05
:103DF00001230023DBB2002B01D0012322E07B68EA
:103E00009B68002B0ED1FB68581E7B6859680B46D7
:103E10005B000B44B0FBF3F30133C3F30B0343F438
:103E200000430FE0FB68581E7B6859680B469B00F7
:103E30000B4499000B44B0FBF3F30133C3F30B03C2
:103E400043F44043796809681343CB617B681B687E
:103E50001B6823F0C0017B68DA697B681B6A1A4320
:103E60007B681B680A431A607B681B689B6823F4A5
:103E7000034323F0FF037A6811697A68D26811431B
:103E80007A6812680B4393607B681B68DB6823F0D9
:103E9000FF017B685A697B689B691A437B681B68D2
:103EA0000A43DA607B681B681A687B681B6842F00B
:103EB00001021A607B6800221A647B68202283F862
:103EC0003D207B6800221A637B68002283F83E2035
:103ED000002318461037BD4680BD00BFA0860100F4
:103EE0007F841E00FF083D0083DE1B43D34D62101C
:103EF00080B588B002AFF8607A601A460B467B81C5
:103F000013463B81FEF7BEFF7861FB6893F83D30B6
:103F1000DBB2202B40F0E0807B6900931923012263
:103F20007049F86800F064F90346002B01D00223C1
:103F3000D3E0FB6893F83C30012B01D10223CCE0A5
:103F4000FB68012283F83C20FB681B681B6803F0B8
:103F50000103012B07D0FB681B681A68FB681B680C
:103F600042F001021A60FB681B681A68FB681B6854
:103F700022F400621A60FB68212283F83D20FB686E
:103F8000102283F83E20FB6800221A64FB687A68DE
:103F90005A62FB683A895A85FB685B8D9AB2FB6866
:103FA0001A85FB68504ADA6279897B693A6AF8684F
:103FB00000F09CF80346002B01D001238DE0002384
:103FC0003B61FB681B685B693B61FB681B689B6925
:103FD0003B613B6966E07A69396AF86800F022FA69
:103FE0000346002B0DD0FB681B6C042B07D1FB682C
:103FF0001B681A68FB681B6842F400721A60012390
:104000006BE0FB685B6A1A78FB681B681A61FB68E7
:104010005B6A5A1CFB685A62FB685B8D9BB2013B72
:104020009AB2FB685A85FB681B8D013B9AB2FB680C
:104030001A85FB681B685B6903F00403042B1BD122
:10404000FB681B8D002B17D0FB685B6A1A78FB6836
:104050001B681A61FB685B6A5A1CFB685A62FB6842
:104060005B8D9BB2013B9AB2FB685A85FB681B8D46
:10407000013B9AB2FB681A857A69396AF86800F0E0
:1040800019FA0346002B0DD0FB681B6C042B07D1DB
:10409000FB681B681A68FB681B6842F400721A60B0
:1040A00001231AE0FB681B8D002B94D1FB681B6871
:1040B0001A68FB681B6842F400721A60FB682022D1
:1040C00083F83D20FB68002283F83E20FB68002235
:1040D00083F83C20002300E0022318461837BD4631
:1040E00080BD00BF020010000000FFFF80B588B057
:1040F00002AFF8607A603B600B467B81FB68DB6A4D
:104100007B617B69082B06D07B69012B03D07B691F
:1041100013F5803F08D1FB681B681A68FB681B68B1
:1041200042F480721A600BE0FB681B6B122B07D104
:10413000FB681B681A68FB681B6842F480721A608F
:104140003B6800937B6800224FF00111F86800F093
:104150004FF80346002B0DD0FB681B681B6803F467
:104160008073B3F5807F03D1FB684FF400721A644B
:10417000032335E0FB681B69B3F5804F08D17B89C9
:10418000DBB21A46FB681B6802F0FE021A611BE0F4
:104190007B89DB11DBB203F00603DBB263F00F03B4
:1041A000DAB2FB681B681A613B687A680E49F868E6
:1041B00000F098F80346002B01D0012310E07B8922
:1041C000DAB2FB681B681A613B687A680749F868CD
:1041D00000F088F80346002B01D0012300E0002303
:1041E00018461837BD4680BD0800010002000100D6
:1041F00080B584B000AFF860B9603B601346FB71D6
:1042000048E03B68B3F1FF3F44D0FEF73BFE024677
:10421000BB69D31A3A689A4202D33B68002B39D162
:10422000BB681B0CDBB2012B0DD1FB681B685B6903
:10423000DA43BB6813409BB2002B0CBF0123002361
:10424000DBB21A460CE0FB681B689B69DA43BB686B
:1042500013409BB2002B0CBF01230023DBB21A4694
:10426000FB799A4216D1FB6800221A63FB68202270
:1042700083F83D20FB68002283F83E20FB681B6C1E
:1042800043F02002FB681A64FB68002283F83C209C
:10429000012323E0BB681B0CDBB2012B0DD1FB68B3
:1042A0001B685B69DA43BB6813409BB2002B0CBFF1
:1042B00001230023DBB21A460CE0FB681B689B69F4
:1042C000DA43BB6813409BB2002B0CBF01230023D1
:1042D000DBB21A46FB799A4293D000231846103776
:1042E000BD4680BD80B584B000AFF860B9607A602B
:1042F0003B6071E0FB681B685B6903F48063B3F5A6
:10430000806F23D1FB681B681A68FB681B6842F446
:1043100000721A60FB681B686FF480625A61FB6868
:1043200000221A63FB68202283F83D20FB680022EC
:1043300083F83E20FB681B6C43F00402FB681A64A0
:10434000FB68002283F83C20012367E07B68B3F11F
:10435000FF3F41D0FEF796FD02463B68D31A7A68CC
:104360009A4202D37B68002B36D1BB681B0CDBB2B0
:10437000012B0CD1FB681B685B69DA43BB681340F7
:104380009BB2002B14BF01230023DBB20BE0FB68C0
:104390001B689B69DA43BB6813409BB2002B14BFB8
:1043A00001230023DBB2002B16D0FB6800221A6326
:1043B000FB68202283F83D20FB68002283F83E2022
:1043C000FB681B6C43F02002FB681A64FB68002248
:1043D00083F83C20012321E0BB681B0CDBB2012BDE
:1043E0000CD1FB681B685B69DA43BB6813409BB266
:1043F000002B14BF01230023DBB20BE0FB681B681A
:104400009B69DA43BB6813409BB2002B14BF0123A6
:104410000023DBB2002B7FF46DAF0023184610376A
:10442000BD4680BD80B584B000AFF860B9607A60E9
:1044300034E0F86800F086F80346002B01D0012331
:1044400034E0BB68B3F1FF3F28D0FEF71BFD024606
:104450007B68D31ABA689A4202D3BB68002B1DD17D
:10446000FB681B685B6903F08003802B16D0FB6838
:1044700000221A63FB68202283F83D20FB6800229B
:1044800083F83E20FB681B6C43F02002FB681A6433
:10449000FB68002283F83C20012307E0FB681B68CF
:1044A0005B6903F08003802BC3D1002318461037CB
:1044B000BD4680BD80B584B000AFF860B9607A6059
:1044C00034E0F86800F03EF80346002B01D00123E9
:1044D00034E0BB68B3F1FF3F28D0FEF7D3FC0246BF
:1044E0007B68D31ABA689A4202D3BB68002B1DD1ED
:1044F000FB681B685B6903F00403042B16D0FB68A0
:1045000000221A63FB68202283F83D20FB6800220A
:1045100083F83E20FB681B6C43F02002FB681A64A2
:10452000FB68002283F83C20012307E0FB681B683E
:104530005B6903F00403042BC3D100231846103732
:10454000BD4680BD80B483B000AF78607B681B68D7
:104550005B6903F48063B3F5806F1BD17B681B68D4
:104560006FF480625A617B6800221A637B682022A4
:1045700083F83D207B68002283F83E207B681B6C1B
:1045800043F004027B681A647B68002283F83C20B5
:10459000012300E0002318460C37BD4680BC70475D
:1045A00080B586B000AF78607B68002B01D1012315
:1045B0006CE27B681B6803F00103002B00F087802E
:1045C000924B5B6803F00C03042B0CD08F4B5B68A1
:1045D00003F00C03082B12D18C4B5B6803F480337F
:1045E000B3F5803F0BD1894B1B6803F40033002BDC
:1045F0006CD07B685B68002B68D1012346E27B6846
:104600005B68B3F5803F06D1804B1B687F4A43F45B
:10461000803313602EE07B685B68002B0CD17B4BF2
:104620001B687A4A23F480331360784B1B68774AFF
:1046300023F4802313601DE07B685B68B3F5A02F33
:104640000CD1724B1B68714A43F4802313606F4B8B
:104650001B686E4A43F4803313600BE06B4B1B689E
:104660006A4A23F480331360684B1B68674A23F45B
:10467000802313607B685B68002B13D0FEF702FC7D
:10468000386108E0FEF7FEFB02463B69D31A642B53
:1046900001D90323FAE15D4B1B6803F40033002BBF
:1046A000F0D014E0FEF7EEFB386108E0FEF7EAFB1D
:1046B00002463B69D31A642B01D90323E6E1534B2D
:1046C0001B6803F40033002BF0D100E000BF7B68CF
:1046D0001B6803F00203002B63D04C4B5B6803F0B4
:1046E0000C03002B0BD0494B5B6803F00C03082B29
:1046F0001CD1464B5B6803F48033002B16D1434B2F
:104700001B6803F00203002B05D07B681B69012B9B
:1047100001D00123BAE13D4B1B6823F0F8027B680E
:104720005B69DB00394913430B603AE07B681B6926
:10473000002B20D0364B01221A60FEF7A3FB386114
:1047400008E0FEF79FFB02463B69D31A022B01D912
:1047500003239BE12D4B1B6803F00203002BF0D0D9
:104760002A4B1B6823F0F8027B685B69DB00274952
:1047700013430B6015E0264B00221A60FEF782FB04
:10478000386108E0FEF77EFB02463B69D31A022B34
:1047900001D903237AE11D4B1B6803F00203002BB0
:1047A000F0D17B681B6803F00803002B3AD07B68CC
:1047B0009B69002B19D0174B01221A60FEF762FB90
:1047C000386108E0FEF75EFB02463B69D31A022B14
:1047D00001D903235AE10D4B5B6A03F00203002B5E
:1047E000F0D0012000F0B8FA1CE00A4B00221A6059
:1047F000FEF748FB38610FE0FEF744FB02463B69D9
:10480000D31A022B08D9032340E100BF0010024055
:1048100000004242800442429E4B5B6A03F0020366
:10482000002BE9D17B681B6803F00403002B00F028
:10483000A6800023FB75974BDB6903F08053002BA8
:104840000DD1944BDB69934A43F08053D361914B74
:10485000DB6903F08053BB60BB680123FB758E4BA3
:104860001B6803F48073002B18D18B4B1B688A4A9A
:1048700043F480731360FEF705FB386108E0FEF730
:1048800001FB02463B69D31A642B01D90323FDE0E7
:10489000814B1B6803F48073002BF0D07B68DB68CE
:1048A000012B06D17B4B1B6A7A4A43F0010313624A
:1048B0002DE07B68DB68002B0CD1764B1B6A754AB8
:1048C00023F001031362734B1B6A724A23F0040343
:1048D00013621CE07B68DB68052B0CD16D4B1B6AF7
:1048E0006C4A43F0040313626A4B1B6A694A43F043
:1048F000010313620BE0674B1B6A664A23F0010356
:104900001362644B1B6A634A23F0040313627B68DF
:10491000DB68002B15D0FEF7B5FA38610AE0FEF728
:10492000B1FA02463B69D31A41F28832934201D967
:104930000323ABE0574B1B6A03F00203002BEED0BE
:1049400014E0FEF79FFA38610AE0FEF79BFA024690
:104950003B69D31A41F28832934201D9032395E08F
:104960004C4B1B6A03F00203002BEED1FB7D012BA5
:1049700005D1484BDB69474A23F08053D3617B68FC
:10498000DB69002B00F08180424B5B6803F00C0375
:10499000082B61D07B68DB69022B46D13F4B00229C
:1049A0001A60FEF76FFA386108E0FEF76BFA02460C
:1049B0003B69D31A022B01D9032367E0354B1B68EF
:1049C00003F00073002BF0D17B681B6AB3F5803FC6
:1049D00008D1304B5B6823F400327B689B682D491B
:1049E00013434B602B4B5B6823F474127B68196A8A
:1049F0007B685B6A0B43274913434B60274B0122BB
:104A00001A60FEF73FFA386108E0FEF73BFA02460B
:104A10003B69D31A022B01D9032337E01D4B1B68D6
:104A200003F00073002BF0D02FE01C4B00221A6023
:104A3000FEF728FA386108E0FEF724FA02463B69DF
:104A4000D31A022B01D9032320E0124B1B6803F079
:104A50000073002BF0D118E07B68DB69012B01D1DA
:104A6000012313E00B4B5B68FB60FB6803F48032AF
:104A70007B681B6A9A4206D1FB6803F470127B685C
:104A80005B6A9A4201D0012300E0002318461837E0
:104A9000BD4680BD001002400070004060004242F0
:104AA00080B584B000AF786039607B68002B01D19D
:104AB0000123D0E06A4B1B6803F007033A689A426F
:104AC00010D9674B1B6823F0070265493B68134305
:104AD0000B60634B1B6803F007033A689A4201D0EE
:104AE0000123B8E07B681B6803F00203002B20D091
:104AF0007B681B6803F00403002B05D0594B5B68EF
:104B0000584A43F4E06353607B681B6803F0080372
:104B1000002B05D0534B5B68524A43F460535360FB
:104B2000504B5B6823F0F0027B689B684D49134350
:104B30004B607B681B6803F00103002B40D07B684F
:104B40005B68012B07D1474B1B6803F40033002B34
:104B500015D101237FE07B685B68022B07D1414BB5
:104B60001B6803F00073002B09D1012373E03D4B58
:104B70001B6803F00203002B01D101236BE0394BCA
:104B80005B6823F003027B685B68364913434B6024
:104B9000FEF778F9F8600AE0FEF774F90246FB6860
:104BA000D31A41F28832934201D9032353E02D4BAB
:104BB0005B6803F00C027B685B689B009A42EBD158
:104BC000274B1B6803F007033A689A4210D2244B24
:104BD0001B6823F0070222493B6813430B60204BFC
:104BE0001B6803F007033A689A4201D0012332E0C0
:104BF0007B681B6803F00403002B08D0194B5B682B
:104C000023F4E0627B68DB68164913434B607B68E2
:104C10001B6803F00803002B09D0124B5B6823F4D8
:104C200060527B681B69DB000E4913434B6000F048
:104C300021F802460B4B5B681B0903F00F030A497E
:104C4000CB5C22FA03F3094A1360094B1B68184630
:104C5000FEF7D6F8002318461037BD4680BD00BFCA
:104C600000200240001002404C6100083801002082
:104C70003C01002080B487B000AF0023FB6000231C
:104C8000BB6000237B6100237B6000233B611E4BE4
:104C90005B68FB60FB6803F00C03042B02D0082B5D
:104CA00003D027E0194B3B6127E0FB689B0C03F026
:104CB0000F03174AD35C7B60FB6803F48033002B3F
:104CC00010D0114B5B685B0C03F00103114AD35CFD
:104CD000BB607B680D4A02FB03F2BB68B2FBF3F3D7
:104CE0007B6104E07B680C4A02FB03F37B617B6918
:104CF0003B6102E0054B3B6100BF3B6918461C3736
:104D0000BD4680BC704700BF0010024000127A0010
:104D1000646100087461000800093D0080B400AFC0
:104D2000024B1B681846BD4680BC70473801002006
:104D300080B500AFFFF7F2FF0246054B5B681B0A28
:104D400003F007030349CB5C22FA03F3184680BD46
:104D5000001002405C61000880B485B000AF78604C
:104D60000A4B1B680A4AA2FB03235B0A7A6802FB10
:104D700003F3FB6000BFFB685A1EFA60002BF9D1F9
:104D800000BF00BF1437BD4680BC7047380100200B
:104D9000D34D621080B586B000AF786000233B61D0
:104DA0000023FB607B681B6803F00103002B7DD0B0
:104DB0000023FB754F4BDB6903F08053002B0DD1B3
:104DC0004C4BDB694B4A43F08053D361494BDB6961
:104DD00003F08053BB60BB680123FB75464B1B6827
:104DE00003F48073002B18D1434B1B68424A43F4F1
:104DF00080731360FEF746F8386108E0FEF742F86A
:104E000002463B69D31A642B01D903236DE03A4B68
:104E10001B6803F48073002BF0D0364B1B6A03F43D
:104E20004073FB60FB68002B2ED07B685B6803F44B
:104E30004073FA689A4227D02E4B1B6A23F44073C2
:104E4000FB602E4B01221A602C4B00221A60294A6B
:104E5000FB681362FB6803F00103002B14D0FEF71C
:104E600011F838610AE0FEF70DF802463B69D31AE3
:104E700041F28832934201D9032336E01D4B1B6A6D
:104E800003F00203002BEED01A4B1B6A23F440728E
:104E90007B685B68174913430B62FB7D012B05D1CF
:104EA000144BDB69134A23F08053D3617B681B6882
:104EB00003F00203002B08D00E4B5B6823F4404242
:104EC0007B689B680B4913434B607B681B6803F04E
:104ED0001003002B08D0074B5B6823F480027B682B
:104EE000DB68044913434B60002318461837BD465E
:104EF00080BD00BF001002400070004040044242EC
:104F000080B582B000AF78607B68002B01D10123AF
:104F100041E07B6893F83D30DBB2002B06D17B6823
:104F2000002283F83C207868FDF780FE7B6802222F
:104F300083F83D207B681A687B6804331946104665
:104F400000F070FC7B68012283F846207B68012218
:104F500083F83E207B68012283F83F207B68012292
:104F600083F840207B68012283F841207B6801227E
:104F700083F842207B68012283F843207B6801226A
:104F800083F844207B68012283F845207B68012256
:104F900083F83D20002318460837BD4680BD000039
:104FA00080B485B000AF78607B6893F83D30DBB2A9
:104FB000012B01D0012335E07B68022283F83D20DC
:104FC0007B681B68DA687B681B6842F00102DA6064
:104FD0007B681B68164A934209D07B681B68B3F153
:104FE000804F04D07B681B68124A934211D17B68C2
:104FF0001B689B6803F00703FB60FB68062B10D05F
:105000007B681B681A687B681B6842F001021A60A3
:1050100007E07B681B681A687B681B6842F0010226
:105020001A60002318461437BD4680BC704700BF85
:10503000002C01400004004080B582B000AF7860D1
:105040007B68002B01D1012341E07B6893F83D3060
:10505000DBB2002B06D17B68002283F83C20786805
:1050600000F039F87B68022283F83D207B681A68DB
:105070007B6804331946104600F0D4FB7B6801229C
:1050800083F846207B68012283F83E207B6801225A
:1050900083F83F207B68012283F840207B6801224F
:1050A00083F841207B68012283F842207B6801223B
:1050B00083F843207B68012283F844207B68012227
:1050C00083F845207B68012283F83D2000231846A1
:1050D0000837BD4680BD80B483B000AF786000BFA4
:1050E0000C37BD4680BC704780B584B000AF786097
:1050F00039603B68002B09D17B6893F83E30DBB206
:10510000012B14BF01230023DBB222E03B68042BF8
:1051100009D17B6893F83F30DBB2012B14BF012328
:105120000023DBB215E03B68082B09D17B6893F8BC
:105130004030DBB2012B14BF01230023DBB208E0B7
:105140007B6893F84130DBB2012B14BF01230023AD
:10515000DBB2002B01D0012359E03B68002B04D1C6
:105160007B68022283F83E2013E03B68042B04D1C5
:105170007B68022283F83F200BE03B68082B04D1B8
:105180007B68022283F8402003E07B68022283F8D8
:1051900041207B681B6801223968184600F0C4FD75
:1051A0007B681B681C4A934207D17B681B685A6C5A
:1051B0007B681B6842F400425A647B681B68164A8D
:1051C000934209D07B681B68B3F1804F04D07B68A1
:1051D0001B68124A934211D17B681B689B6803F0DD
:1051E0000703FB60FB68062B10D07B681B681A68FE
:1051F0007B681B6842F001021A6007E07B681B684D
:105200001A687B681B6842F001021A600023184686
:105210001037BD4680BD00BF002C01400004004097
:1052200080B582B000AF786039607B681B6800226F
:105230003968184600F078FD7B681B68294A93425C
:1052400017D17B681B681A6A41F211131340002BB7
:105250000FD17B681B681A6A40F244431340002B4D
:1052600007D17B681B685A6C7B681B6822F400427C
:105270005A647B681B681A6A41F211131340002BB1
:105280000FD17B681B681A6A40F244431340002B1D
:1052900007D17B681B681A687B681B6822F00102D3
:1052A0001A603B68002B04D17B68012283F83E2002
:1052B00013E03B68042B04D17B68012283F83F2074
:1052C0000BE03B68082B04D17B68012283F8402067
:1052D00003E07B68012283F8412000231846083749
:1052E000BD4680BD002C014080B584B000AF786021
:1052F0007B681B68DB68FB607B681B681B69BB60A5
:10530000BB6803F00203002B20D0FB6803F002030C
:10531000002B1BD07B681B686FF002021A617B6850
:1053200001221A777B681B689B6903F00303002B3B
:1053300003D0786800F05AFA05E0786800F04DFA7A
:10534000786800F05CFA7B6800221A77BB6803F08B
:105350000403002B20D0FB6803F00403002B1BD0B8
:105360007B681B686FF004021A617B6802221A775F
:105370007B681B689B6903F44073002B03D078683B
:1053800000F034FA05E0786800F027FA786800F059
:1053900036FA7B6800221A77BB6803F00803002BFB
:1053A00020D0FB6803F00803002B1BD07B681B6830
:1053B0006FF008021A617B6804221A777B681B6809
:1053C000DB6903F00303002B03D0786800F00EFACA
:1053D00005E0786800F001FA786800F010FA7B6860
:1053E00000221A77BB6803F01003002B20D0FB6863
:1053F00003F01003002B1BD07B681B686FF01002BA
:105400001A617B6808221A777B681B68DB6903F4E2
:105410004073002B03D0786800F0E8F905E0786865
:1054200000F0DBF9786800F0EAF97B6800221A776F
:10543000BB6803F00103002B0CD0FB6803F00103F1
:10544000002B07D07B681B686FF001021A61786837
:10545000FCF7B0FEBB6803F08003002B0CD0FB68A8
:1054600003F08003002B07D07B681B686FF080027D
:105470001A61786800F02EFDBB6803F04003002B32
:105480000CD0FB6803F04003002B07D07B681B683F
:105490006FF040021A61786800F0BAF9BB6803F057
:1054A0002003002B0CD0FB6803F02003002B07D057
:1054B0007B681B686FF020021A61786800F001FDBC
:1054C00000BF1037BD4680BD80B586B000AFF86024
:1054D000B9607A600023FB75FB6893F83C30012BC0
:1054E00001D10223AEE0FB68012283F83C207B68F7
:1054F0000C2B00F29F8001A252F823F031550008D6
:105500003556000835560008355600087155000814
:10551000355600083556000835560008B3550008C2
:10552000355600083556000835560008F355000872
:10553000FB681B68B968184600F0D8F9FB681B685F
:105540009A69FB681B6842F008029A61FB681B6855
:105550009A69FB681B6822F004029A61FB681B6869
:105560009969BB681A69FB681B680A439A6164E021
:10557000FB681B68B968184600F01EFAFB681B68D8
:105580009A69FB681B6842F400629A61FB681B68B9
:105590009A69FB681B6822F480629A61FB681B6849
:1055A0009969BB681B691A02FB681B680A439A6108
:1055B00043E0FB681B68B968184600F067FAFB68AF
:1055C0001B68DA69FB681B6842F00802DA61FB6855
:1055D0001B68DA69FB681B6822F00402DA61FB6869
:1055E0001B68D969BB681A69FB681B680A43DA61E2
:1055F00023E0FB681B68B968184600F0B1FAFB6845
:105600001B68DA69FB681B6842F40062DA61FB68B8
:105610001B68DA69FB681B6822F48062DA61FB6848
:105620001B68D969BB681B691A02FB681B680A43BF
:10563000DA6102E00123FB7500BFFB68002283F8FA
:105640003C20FB7D18461837BD4680BD80B584B030
:1056500000AF786039600023FB737B6893F83C30BF
:10566000012B01D10223B4E07B68012283F83C20A6
:105670007B68022283F83D207B681B689B68BB60C7
:10568000BB6823F07703BB60BB6823F47F43BB6038
:105690007B681B68BA689A603B681B68B3F5005F5B
:1056A0003ED0B3F5005F00F28780B3F5805F00F075
:1056B0008680B3F5805F7FD8702B1AD0702B7BD893
:1056C000602B50D0602B77D8502B3CD0502B73D808
:1056D000402B58D0402B6FD8302B64D0302B6BD858
:1056E000202B60D0202B67D8002B5CD0102B5AD0F9
:1056F00062E07B6818683B6899683B685A683B6859
:10570000DB6800F0F2FA7B681B689B68BB60BB68D3
:1057100043F07703BB607B681B68BA689A604FE010
:105720007B6818683B6899683B685A683B68DB6827
:1057300000F0DBFA7B681B689A687B681B6842F4A0
:1057400080429A603CE07B6818683B6859683B6817
:10575000DB681A4600F052FA7B681B685021184635
:1057600000F0A9FA2CE07B6818683B6859683B6830
:10577000DB681A4600F070FA7B681B6860211846E7
:1057800000F099FA1CE07B6818683B6859683B6830
:10579000DB681A4600F032FA7B681B684021184625
:1057A00000F089FA0CE07B681A683B681B681946B0
:1057B000104600F080FA03E00123FB7300E000BF15
:1057C0007B68012283F83D207B68002283F83C201F
:1057D000FB7B18461037BD4680BD80B483B000AF58
:1057E000786000BF0C37BD4680BC704780B483B082
:1057F00000AF786000BF0C37BD4680BC704780B4F6
:1058000083B000AF786000BF0C37BD4680BC7047E6
:1058100080B483B000AF786000BF0C37BD4680BC59
:105820007047000080B485B000AF786039607B6855
:105830001B68FB607B682B4A934207D07B68B3F1FF
:10584000804F03D07B68284A934208D1FB6823F03D
:105850007003FB603B685B68FA681343FB607B681E
:10586000204A934207D07B68B3F1804F03D07B6816
:105870001D4A934208D1FB6823F44073FB603B68E8
:10588000DB68FA681343FB60FB6823F080023B6827
:105890005B691343FB607B68FA681A603B689A682F
:1058A0007B68DA623B681A687B689A627B680D4A9B
:1058B000934203D13B681A697B681A637B680122B3
:1058C0005A617B681B6903F00103002B05D07B68DC
:1058D0001B6923F001027B681A6100BF1437BD46C3
:1058E00080BC7047002C01400004004080B487B0A9
:1058F00000AF786039607B681B6A7B617B681B6ADC
:1059000023F001027B681A627B685B683B617B68FD
:105910009B69FB60FB6823F07003FB60FB6823F06E
:105920000303FB603B681B68FA681343FB607B69F9
:1059300023F002037B613B689B687A6913437B61B8
:105940007B681C4A93420CD17B6923F008037B617E
:105950003B68DB687A6913437B617B6923F004034E
:105960007B617B68134A934211D13B6923F48073B6
:105970003B613B6923F400733B613B685B693A69B7
:1059800013433B613B689B693A6913433B617B6806
:105990003A695A607B68FA689A613B685A687B6822
:1059A0005A637B687A691A6200BF1C37BD4680BCA7
:1059B000704700BF002C014080B487B000AF786012
:1059C00039607B681B6A7B617B681B6A23F010026D
:1059D0007B681A627B685B683B617B689B69FB60E4
:1059E000FB6823F4E043FB60FB6823F44073FB6037
:1059F0003B681B681B02FA681343FB607B6923F05A
:105A000020037B613B689B681B017A6913437B61C0
:105A10007B681D4A93420DD17B6923F080037B6133
:105A20003B68DB681B017A6913437B617B6923F068
:105A300040037B617B68144A934213D13B6923F492
:105A400080633B613B6923F400633B613B685B69B6
:105A50009B003A6913433B613B689B699B003A6931
:105A600013433B617B683A695A607B68FA689A61C4
:105A70003B685A687B689A637B687A691A6200BFE0
:105A80001C37BD4680BC7047002C014080B487B0F5
:105A900000AF786039607B681B6A7B617B681B6A3A
:105AA00023F480727B681A627B685B683B617B6869
:105AB000DB69FB60FB6823F07003FB60FB6823F08D
:105AC0000303FB603B681B68FA681343FB607B6958
:105AD00023F400737B613B689B681B027A69134364
