:020000040800F2
:1000000000280020A51F0008211F0008271F000846
:100010002D1F0008331F0008391F000800000000D2
:100020000000000000000000000000003F1F00086A
:100030004B1F000800000000571F0008631F000846
:10004000ED1F0008ED1F0008ED1F0008ED1F000860
:10005000ED1F0008ED1F0008ED1F0008ED1F000850
:10006000ED1F0008ED1F0008ED1F0008ED1F000840
:10007000ED1F0008ED1F0008ED1F0008ED1F000830
:10008000ED1F0008ED1F0008711F0008ED1F00089C
:10009000ED1F0008ED1F0008ED1F0008ED1F000810
:1000A000ED1F0008ED1F0008ED1F0008ED1F000800
:1000B000851F0008ED1F000800000000ED1F00086C
:1000C000ED1F00080000000000000000ED1F000808
:1000D00000000000ED1F0008ED1F000800000000F8
:1000E000ED1F0008ED1F0008ED1F000800000000D4
:1000F0000000000000000000000000000000000000
:0C01000000000000000000005FF808F1A3
:10010C0010B5054C237833B9044B13B10448AFF345
:10011C0000800123237010BDCC00002000000000E3
:10012C002C49000808B5034B1BB103490348AFF336
:10013C00008008BD00000000D00000202C49000801
:10014C0080B483B000AF00237B6039E0214A7B6828
:10015C005B01134401221A601E4A7B685B01134445
:10016C00043301221A601B4A7B685B011344083379
:10017C0001221A60174A7B685B0113440C3301227D
:10018C001A60144A7B685B011344103332221A60E4
:10019C00104A7B685B011344143300221A600D4A29
:1001AC007B685B011344183300221A60094A7B6890
:1001BC005B0113441C3300221A607B6801337B60A3
:1001CC007B68092BC2DD00BF00BF0C37BD4680BC6D
:1001DC00704700BF3801002080B483B000AF786056
:1001EC000B4A7B685B01134414331B68012B08D149
:1001FC00074A7B685B011344143300221A60012305
:10020C0000E0002318460C37BD4680BC704700BF89
:10021C003801002080B483B000AF78600B4A7B6853
:10022C005B01134418331B68012B08D1074A7B6808
:10023C005B011344183300221A60012300E00023F1
:10024C0018460C37BD4680BC704700BF38010020F3
:10025C0080B483B000AF78600B4A7B685B011344B9
:10026C001C331B68012B08D1074A7B685B011344C4
:10027C001C3300221A60012300E0002318460C37BF
:10028C00BD4680BC704700BF3801002080B483B0ED
:10029C0000AF7860054A7B685B011344143300227D
:1002AC001A6000BF0C37BD4680BC70473801002077
:1002BC0080B582B000AF00237B60B3E05E4A7B6800
:1002CC005B01134404331A685B497B685B010B4484
:1002DC0008331A60584A7B685B0113441A68564904
:1002EC007B685B010B4404331A60544A7B6852F8F8
:1002FC00232053497B6831F813301946104602F01D
:10030C0073FD034619464C4A7B685B011344196024
:10031C00494A7B685B01134404331A6846497B687D
:10032C005B010B441B689A4279D1434A7B685B01A1
:10033C00134404331A6840497B685B010B4408334F
:10034C001B689A426BD13C4A7B685B0113440833AF
:10035C001A6839497B685B010B440C331B689A4261
:10036C0032D0354A7B685B01134408331A68324932
:10037C007B685B010B440C331A602F4A7B685B0172
:10038C0013440C331B68002B0ED12B4A7B685B018A
:10039C001344103332221A60274A7B685B011344E2
:1003AC00143301221A603AE0234A7B685B01134440
:1003BC000C331B68012B32D11F4A7B685B01134441
:1003CC001C3301221A602AE01B4A7B685B01134430
:1003DC000C331B68002B22D1174A7B685B0113443A
:1003EC0010331B685A1E14497B685B010B44103395
:1003FC001A60114A7B685B01134410331B68002B95
:10040C000DD10D4A7B685B011344103332221A6004
:10041C00094A7B685B011344183301221A607B681C
:10042C0001337B607B68092B7FF748AF00BF00BFAF
:10043C000837BD4680BD00BF3801002000000020F9
:10044C002800002080B500AF01228021044802F072
:10045C00E2FC00228021024802F0DDFC00BF80BDDE
:10046C000008014080B500AF01224021044802F091
:10047C00D2FC00224021024802F0CDFC00BF80BD1E
:10048C000008014080B584B000AF0346FB71072320
:10049C00FB6011E0FA79FB6842FA03F3DBB203F07C
:1004AC000103DBB21A460121074802F0B4FCFFF746
:1004BC00C9FFFB68013BFB60FB68002BEADA00BF5D
:1004CC0000BF1037BD4680BD000C014080B582B026
:1004DC0000AF0346FB710B46BB7113467B710022C8
:1004EC0040210A4802F097FCFB791846FFF7CAFF37
:1004FC00BB791846FFF7C6FF7B791846FFF7C2FF9A
:10050C00FFF7B0FF00BF0837BD4680BD00080140B3
:10051C0080B483B000AF0346FB71FB79DB43DBB2E5
:10052C0003F07F03DBB218460C37BD4680BC704726
:10053C0080B485B000AFF860B9607A60064AFB6899
:10054C001360054ABB685360034A7B68936000BF25
:10055C001437BD4680BC704744000020B0B582B053
:10056C0000AF144B1B68144AD35CFB71114B5B68D6
:10057C00114AD35CBB710F4B9B680F4AD35C7B71E8
:10058C007B791846FFF7C4FF03461C46BB79184617
:10059C00FFF7BEFF03461D46FB791846FFF7B8FF71
:1005AC0003461A4629462046FFF790FF00BF08373E
:1005BC00BD46B0BD44000020F04A000880B500AF35
:1005CC0000F076FCC821062001F066FBFA21092018
:1005DC0001F062FB00BF80BD80B500AF032100209D
:1005EC0000F032FC034800F08BFC00F05FFB00BF16
:1005FC0080BD00BF4449000880B582B000AF786070
:10060C0000F018FC7B68143B052B77D801A252F83C
:10061C0023F000BF390600084906000859060008F7
:10062C0069060008A3060008DD0600080821002062
:10063C0000F00AFC344800F063FC60E00621002066
:10064C0000F002FC314800F05BFC58E00021002077
:10065C0000F0FAFB2E4800F053FC50E0052101207D
:10066C0000F0F2FB2B4800F04BFC0D21012000F0B8
:10067C00EBFB294800F044FC0321022000F0E4FBD2
:10068C00264800F03DFC0C21022000F0DDFB244844
:10069C0000F036FC33E00521012000F0D5FB1D48AD
:1006AC0000F02EFC0D21012000F0CEFB1A4800F0CA
:1006BC0027FC0321022000F0C7FB194800F020FCA6
:1006CC000C21022000F0C0FB144800F019FC16E0CD
:1006DC000521012000F0B8FB0E4800F011FC0D21A3
:1006EC00012000F0B1FB0C4800F00AFC01210220B3
:1006FC0000F0AAFB0B4800F003FC00E000BF00BFB9
:10070C000837BD4680BD00BF544900085C4900084D
:10071C006849000880490008844900088849000895
:10072C00904900089849000880B592B000AF0620A7
:10073C0001F0D2FA0346002B7AD0C821062001F032
:10074C00ABFA00237B640DE007F11C027B6C1344B5
:10075C0020221A703A1D7B6C134420221A707B6C79
:10076C0001337B647B6C132BEEDD002387F8303078
:10077C0000233B7600233B6413E02F4B1A683B6C41
:10078C00D31A7B637B6B012B08DD7B6B112B05DC98
:10079C0007F11C027B6B13443C221A703B6C013337
:1007AC003B643B6C022BE8DD0023FB6312E0234B24
:1007BC001B68FA6B1344BB63BB6B012B07DDBB6B74
:1007CC00112B04DC3A1DBB6B13443E221A70FB6BDD
:1007DC000133FB63FB6B022BE9DD0021012000F0F0
:1007EC0033FB07F11C03184600F08AFB00210220A2
:1007FC0000F02AFB3B1D184600F082FB0E4B1B68D9
:10080C00013B0D4A13600D4B1B6801330B4A1360FF
:10081C00094B1B68B3F1FF3F02DA074B11221A6038
:10082C00064B1B68122B04DD044B00221A6000E0FF
:10083C0000BF4837BD4680BD3C0000204000002072
:10084C0080B400AF044B11221A60044B02221A60D0
:10085C0000BFBD4680BC70473C000020400000201B
:10086C0080B500AFD14B1B68072B00F2DA8101A2D7
:10087C0052F823F0A10800080109000897090008A4
:10088C002D0A0008C30A0008A9080008550B000827
:10089C00170C0008C54B05221A60D1E1002100207D
:1008AC0000F0D2FAC24800F02BFB0021012000F02E
:1008BC00CBFAC04800F024FB0021022000F0C4FA5F
:1008CC00BD4800F01DFB0021032000F0BDFABB4821
:1008DC0000F016FB0020FFF77FFC0346012B40F0D5
:1008EC00A28100F0A7FAB14B01221A600020FFF799
:1008FC00CDFC98E10021002000F0A6FAB04800F0F1
:10090C00FFFA0021012000F09FFAAA4800F0F8FA43
:10091C000021022000F098FAA74800F0F1FA00211B
:10092C00032000F091FAA54800F0EAFA0220FFF744
:10093C0053FC0346012B18D1A24B01221A6000F084
:10094C0093FF00F077FA0521012000F07DFA9E4814
:10095C0000F0D6FA0221032000F076FA9B4800F052
:10096C00CFFA0220FFF792FC6AE10020FFF734FC7B
:10097C000346012B40F0598100F05CFA8B4B0222AC
:10098C001A600020FFF782FC4FE10021002000F0EC
:10099C005BFA874800F0B4FA0021012000F054FA09
:1009AC008B4800F0ADFA0021022000F04DFA82488D
:1009BC0000F0A6FA0021032000F046FA7F4800F070
:1009CC009FFA0220FFF708FC0346012B18D17D4B40
:1009DC0002221A6000F0D4FE00F02CFA052101204E
:1009EC0000F032FA7B4800F08BFA0221032000F071
:1009FC002BFA764800F084FA0220FFF747FC1FE13F
:100A0C000020FFF7E9FB0346012B40F0108100F0BA
:100A1C0011FA664B03221A600020FFF737FC06E13F
:100A2C000021002000F010FA614800F069FA002162
:100A3C00012000F009FA5F4800F062FA0021022060
:100A4C0000F002FA644800F05BFA0021032000F089
:100A5C00FBF95A4800F054FA0220FFF7BDFB03469D
:100A6C00012B18D1574B03221A6000F00BFE00F03B
:100A7C00E1F90321012000F0E7F9584800F040FAB1
:100A8C000221032000F0E0F9504800F039FA02206E
:100A9C00FFF7FCFBD4E00020FFF79EFB0346012B85
:100AAC0040F0C78000F0C6F9404B04221A600020C9
:100ABC00FFF7ECFBBDE00021002000F0C5F93C483D
:100ACC0000F01EFA0021012000F0BEF9394800F0B8
:100ADC0017FA0021022000F0B7F9374800F010FA9D
:100AEC000021032000F0B0F93D4800F009FA022083
:100AFC00FFF772FB0346012B16D1324B04221A600E
:100B0C0001F08CF800F096F90521012000F09CF919
:100B1C00344800F0F5F94FF47A71072001F0BCF875
:100B2C000220FFF7B3FB8BE00020FFF755FB0346D9
:100B3C00012B40F0808000F07DF91C4B06221A60DE
:100B4C000020FFF7A3FB76E00021002000F07CF9E9
:100B5C00184800F0D5F90021012000F075F916486D
:100B6C0000F0CEF90021022000F06EF9134800F0DD
:100B7C00C7F90021032000F067F91B4800F0C0F909
:100B8C000220FFF729FB0346012B2FD10922092153
:100B9C000920FFF7CDFCFFF7E1FC00F04BF9094B06
:100BAC0007221A60014B07221A6049E0E800002076
:100BBC00AC490008BC490008C8490008DC490008D9
:100BCC00EC490008EC000020FC490008084A000829
:100BDC001C4A0008284A0008344A0008484A000801
:100BEC00584A0008684A0008744A00080020FFF7B9
:100BFC00F3FA0346012B20D100F01CF9114B012212
:100C0C001A600020FFF742FB17E00320FFF7E4FA1D
:100C1C000346012B13D100F00DF90320FFF736FB2F
:100C2C000EE000BF0CE000BF0AE000BF08E000BF10
:100C3C0006E000BF04E000BF02E000BF00E000BF20
:100C4C0000BF80BDE800002080B582B000AF7860A6
:100C5C007B68012B0ED10021012000F0F5F8104823
:100C6C0000F04EF90221032000F0EEF80D4800F0E0
:100C7C0047F910E07B68022B0DD10721012000F011
:100C8C00E3F8094800F03CF90221032000F0DCF8FD
:100C9C00044800F035F900BF0837BD4680BD00BFE1
:100CAC00844A0008084A0008944A000880B500AF3E
:100CBC000121022000F0C8F81A4800F021F90621A1
:100CCC00022000F0C1F8184800F01AF90C2102209B
:100CDC0000F0BAF8154800F013F91121022000F0C9
:100CEC00B3F8134800F00CF90021032000F0ACF825
:100CFC00104800F005F90521032000F0A5F80E4876
:100D0C0000F0FEF80B21032000F09EF80B4800F0D9
:100D1C00F7F81021032000F097F8094800F0F0F8DC
:100D2C0000BF80BDA44A0008A84A0008AC4A0008CD
:100D3C00B04A0008B44A0008BC4A0008C44A00087B
:100D4C00CC4A000880B400AF094B1A68084B5B68AA
:100D5C009A4207D1064B5A68054B9B689A4201D1BF
:100D6C00012300E000231846BD4680BC704700BF3D
:100D7C004400002080B586B002AF0346FB71FB79BE
:100D8C0023F00F03FB73FB791B01BB73FB7B43F05D
:100D9C000C03DBB23B72FB7B43F00803DBB27B72D0
:100DAC00BB7B43F00C03DBB2BB72BB7B43F0080391
:100DBC00DBB2FB7207F108026423009304234E217B
:100DCC00034802F09DF900BF1037BD4680BD00BF3F
:100DDC007802002080B586B002AF0346FB71FB7928
:100DEC0023F00F03FB73FB791B01BB73FB7B43F0FD
:100DFC000D03DBB23B72FB7B43F00903DBB27B726E
:100E0C00BB7B43F00D03DBB2BB72BB7B43F009032E
:100E1C00DBB2FB7207F108026423009304234E211A
:100E2C00034802F06DF900BF1037BD4680BD00BF0E
:100E3C007802002080B500AF0120FFF79BFF022055
:100E4C0001F032F900BF80BD80B584B000AF78608E
:100E5C0039607B68032B1FD801A252F823F000BF26
:100E6C007D0E0008870E0008910E00089B0E0008EE
:100E7C003B68DBB2803BFB7311E03B68DBB2403B71
:100E8C00FB730CE03B68DBB26C3BFB7307E03B682D
:100E9C00DBB22C3BFB7302E08023FB7300BFFB7BBC
:100EAC001846FFF767FF00BF1037BD4680BD00BF77
:100EBC0080B500AF322001F0F7F83020FFF75AFF71
:100ECC00052001F0F1F83020FFF754FF012001F06C
:100EDC00EBF83020FFF74EFF2020FFF74BFF2820C8
:100EEC00FFF748FF0C20FFF745FF0120FFF742FFFB
:100EFC00022001F0D9F80620FFF73CFF00BF80BDAF
:100F0C0080B582B000AF786006E07B685A1C7A60CE
:100F1C001B781846FFF75EFF7B681B78002BF4D11B
:100F2C0000BF00BF0837BD4680BD000080B500AFD4
:100F3C00194B1A68194913465B0013449B000B4468
:100F4C001B68174A1360144B1A68144913465B004C
:100F5C0013449B000B4404331B68114A53600E4B23
:100F6C001A680E4913465B0013449B000B4408336C
:100F7C001B680B4A9360FFF7F1FA074B1B680133B0
:100F8C00054A1360044B1B68012B02DD024B002247
:100F9C001A6000BF80BD00BFF80000205000002088
:100FAC004400002080B500AF504B1B68072B00F2AB
:100FBC009A8001A252F823F0E50F000815100008E2
:100FCC00391000085D10000881100008E7100008B7
:100FDC00F3100008B1100008092209210920FFF7BD
:100FEC00A7FAFFF7BBFAFFF7F7FA0320FFF7F4F8BD
:100FFC000346012B74D1FFF71DFF3C4B05221A60F1
:10100C000320FFF743F96BE00320FFF7E5F80346F5
:10101C00012B08D1FFF70EFF344B05221A60032079
:10102C00FFF734F95FE000F0BDFB5CE00320FFF755
:10103C00D3F80346012B08D1FFF7FCFE2B4B0522FE
:10104C001A600320FFF722F94DE000F02DFB4AE077
:10105C000320FFF7C1F80346012B08D1FFF7EAFE86
:10106C00224B05221A600320FFF710F93BE000F039
:10107C004DFA38E00320FFF7AFF80346012B08D1F7
:10108C00FFF7D8FE194B05221A600320FFF7FEF874
:10109C0029E0072000F020FE0346002B22D000F0B0
:1010AC0091FC1FE0FFF798FA0320FFF795F8034631
:1010BC00012B12D1092209210920FFF739FAFFF778
:1010CC004DFAFFF7B7FE094B05221A60084B0022B8
:1010DC001A600320FFF7DAF805E0FFF7C1FB02E026
:1010EC0000BF00E000BF00BF80BD00BFEC000020CF
:1010FC00E800002080B500AF00F074FFFFF720F887
:10110C00642000F0D1FF00F05FF800F06BF900F004
:10111C001DF900F0AFF800F0EBF8264803F048F8A2
:10112C00254801F0BDF8FFF749FA01222021234898
:10113C0001F071FEFFF7BCFE642000F0B5FF6421E6
:10114C00002000F0A9FD6421012000F0A5FDFFF7AF
:10115C0071FE05210020FFF777FE1948FFF7D0FE3E
:10116C0003210220FFF770FE1648FFF7C9FE4FF46B
:10117C007A7000F099FFFFF75DFE002000F0ACFDE7
:10118C000346012B08D120210C4801F05CFE4FF4E2
:10119C007A71002000F080FD012000F09DFD0346D7
:1011AC00012BEAD1FFF7FEFE0A21012000F074FDAD
:1011BC00E3E700BFFC020020CC0200200008014045
:1011CC00D44A0008E04A000880B594B000AF07F19B
:1011DC00280328220021184603F09AFB07F1140378
:1011EC0000221A605A609A60DA601A613B1D002274
:1011FC001A605A609A60DA600223BB620123BB63F7
:10120C001023FB6302237B640023BB640023FB6479
:10121C0007F12803184602F0CBFA0346002B01D045
:10122C0000F06EF90F237B610223BB610023FB618D
:10123C004FF480633B6200237B6207F114030021AF
:10124C00184602F035FD0346002B01D000F058F98A
:10125C0002237B604FF40043FB603B1D184602F0F9
:10126C00A1FE0346002B01D000F04AF900BF503715
:10127C00BD4680BD80B584B000AF3B1D00221A6016
:10128C005A609A60184B194A1A60174B00229A60E0
:10129C00154B01221A73144B00221A75124B4FF482
:1012AC006022DA61104B00225A600F4B01221A6146
:1012BC000D4800F01DFF0346002B01D000F020F973
:1012CC0000237B600123BB600023FB603B1D1946A0
:1012DC00054801F065F90346002B01D000F010F928
:1012EC0000BF1037BD4680BDCC0200200024014059
:1012FC0080B500AF124B134A1A60114B124A5A6058
:10130C000F4B00229A600E4B0022DA600C4B4FF40C
:10131C0080421A610A4B00225A61094B00229A61E1
:10132C00074B0022DA61064B00221A62044801F0D6
:10133C00A3FD0346002B01D000F0E2F800BF80BDF6
:10134C007802002000540040A086010080B586B0D1
:10135C0000AF07F1080300221A605A609A60DA6045
:10136C003B4600221A605A601D4B4FF080421A60B7
:10137C001B4B41F63F725A60194B00229A60184B76
:10138C000922DA60164B00221A61154B00229A6171
:10139C00134802F0BDFE0346002B01D000F0B0F85C
:1013AC004FF48053BB6007F1080319460C4803F057
:1013BC003BF80346002B01D000F0A2F800233B6061
:1013CC0000237B603B461946054803F013FA03469D
:1013DC00002B01D000F094F800BF1837BD4680BD3B
:1013EC00FC02002080B588B000AF07F1100300228A
:1013FC001A605A609A60DA60374B9B69364A43F040
:10140C0010039361344B9B6903F01003FB60FB6882
:10141C00314B9B69304A43F0040393612E4B9B691B
:10142C0003F00403BB60BB682B4B9B692A4A43F057
:10143C0008039361284B9B6903F008037B607B686E
:10144C0000224FF40051254801F0E5FC0022EE216A
:10145C00234801F0E0FC00220121224801F0DBFCD2
:10146C004FF400533B6101237B610023BB610223DA
:10147C00FB6107F110031946184801F03BFBEE2302
:10148C003B6101237B610023BB610223FB6107F1FC
:10149C0010031946124801F02DFB01233B61012377
:1014AC007B610023BB610223FB6107F1100319462A
:1014BC000C4801F01FFB4FF4F0533B6100237B61A0
:1014CC000123BB6107F110031946054801F012FB1B
:1014DC0000BF2037BD4680BD001002400010014007
:1014EC0000080140000C014080B582B000AF78606C
:1014FC0000F006FCFEF7DCFE00BF0837BD4680BDE1
:10150C0080B400AF72B600BFFEE70000B0B500AF0C
:10151C000120FEF761FE0346012B22D1554B1B68BF
:10152C00002B1ED1FFF78CF9FFF784FCFFF7FCF8BA
:10153C00514B4FF4FA721A604F4B1B68194603203B
:10154C0000F0AAFB6421042000F0A6FB0120FEF7AA
:10155C009DFE484B1B680133464A1360474B0022E3
:10156C001A60444B1B68002B01DDFFF7DDF80120EE
:10157C00FEF750FE0346012B02D1404B00221A60AD
:10158C000120FEF765FE0346012B02D13B4B0122E5
:10159C001A60032000F0A0FB0346012B19D1354B38
:1015AC001B68002B15DD00F063FB044600F060FBAC
:1015BC00054600F05DFB03461A4629462046FEF719
:1015CC00B7FFFEF7CBFF2C4B1B681946032000F02E
:1015DC0063FB042000F080FB0346012B47D1254B15
:1015EC001B68002B43DD6421042000F055FB234BCA
:1015FC001B68002B12D1204B1B680A2B37DD1E4BAE
:10160C001A681F4B1B68D31A1B4A13601A4B1B68B2
:10161C00092B2CDC184B0A221A6028E0164B1B688D
:10162C00B3F5FA7F07DA144B1A68154B1B68134491
:10163C00114A13601BE0FFF779FCFFF783FB0346AD
:10164C00002B05D01520FEF7D7FFFFF72FFB04E08A
:10165C001620FEF7D1FFFFF729FB074B4FF4FA7268
:10166C001A60064B00221A60024B00221A6000BF5F
:10167C00B0BD00BF00010020B0000020040100201C
:10168C00B400002080B500AF064B00221A60054B59
:10169C0000225A60034B03229A60FEF75FFF00BFE3
:1016AC0080BD00BF44000020B0B500AF0120FEF7A4
:1016BC0093FD0346012B1FD1304B01221A60FFF71B
:1016CC00BFF8FFF7B7FBFFF72FF80A21022000F055
:1016DC00E3FA00F0CDFA044600F0CAFA054600F031
:1016EC00C7FA03461A4629462046FEF721FFFEF7A5
:1016FC0035FF0120FEF7CAFD204B1B68012B1BD1C7
:10170C00FFF712F8022000F0E7FA0346002B13D083
:10171C0000F0AEFA044600F0ABFA054600F0A8FA69
:10172C0003461A4629462046FEF702FFFEF716FF2F
:10173C006421022000F0B0FA0120FEF789FD034677
:10174C00012B18D10D4B1B68012B14D10B4B002214
:10175C001A60FFF7EBFBFFF7F5FA0346002B05D0F9
:10176C001520FEF749FFFFF7A1FA04E01620FEF75B
:10177C0043FFFFF79BFA00BFB0BD00BFF400002091
:10178C0080B500AF064B00221A60054B00225A6050
:10179C00034B02229A60FEF7E1FE00BF80BD00BF42
:1017AC0044000020B0B500AF0120FEF715FD034644
:1017BC00012B10D12A4B01221A600A21022000F0C1
:1017CC006BFAFFF73DF8FFF735FB00F063FC0346BF
:1017DC001A46244B1A60224B1B68012B3DD1FEF795
:1017EC00A3FF022000F078FA0346012B35D100F05C
:1017FC0051FC03461B4A12689B1A40F6B7329342BF
:10180C0016D800F035FA044600F032FA054600F01E
:10181C002FFA03461A4629462046FEF789FEFEF7A4
:10182C009DFEFEF781FF6421022000F035FA14E0E2
:10183C000B4B00221A60FFF779FBFFF783FA034684
:10184C00002B05D01520FEF7D7FEFFF72FFA04E08A
:10185C001620FEF7D1FEFFF729FA00BFB0BD00BF7E
:10186C00F4000020F000002080B500AF064B0022F1
:10187C001A60054B00225A60034B01229A60FEF756
:10188C006DFE00BF80BD00BF4400002080B400AFDF
:10189C004A4B1A68494B5B681A44484B9B68134483
:1018AC00464AD360464B1A68454B5B681A44444B16
:1018BC009B681344424AD360404B01221A61404B4F
:1018CC0001221A613D4B1A683C4B5B689A420BD063
:1018DC003A4B1A68394B9B689A4205D0374B5A6879
:1018EC00364B9B689A4202D1344B02221A61344B1C
:1018FC001A68334B5B689A420BD0314B1A68304BE9
:10190C009B689A4205D02E4B5A682D4B9B689A4285
:10191C0002D12B4B02221A61284B1A68274B5B68A9
:10192C009A4208D1254B1A68244B9B689A4202D1E3
:10193C00224B03221A61224B1A68214B5B689A4294
:10194C0008D11F4B1A681E4B9B689A4202D11C4B44
:10195C0003221A61194B1A69194B1B699A4201DD52
:10196C00012326E0154B1A69154B1B699A4201DAC3
:10197C0002231EE0114B1A69114B1B699A4217D1B5
:10198C000E4BDA680E4BDB689A4201DD012310E046
:10199C000A4BDA680A4BDB689A4201DA022308E048
:1019AC00064BDA68064BDB689A4201D1632300E0F0
:1019BC0000231846BD4680BC704700BF08010020BC
:1019CC001C010020B0B582B000AF8A4B1B68012B04
:1019DC001BD1052000F080F90346002B00F0068196
:1019EC00844B00221A60844B01221A60834B002224
:1019FC001A60834B1B680133814A1360804B1B6850
:101A0C00022B02DD7E4B00221A607E4B1B68002BE2
:101A1C0014D1784B1B68002B10D1784B1A68764B7D
:101A2C001B689A420AD0FFF705FA734B1B681846DD
:101A3C00FFF70AF9704B1B68704A13600120FEF720
:101A4C00CBFB0346012B19D16A4B1B68002B15D11C
:101A5C006C4B01221A6000F01DFB03461A466A4BC0
:101A6C001A60FEF7EDFEFFF7E5F9FEF75DFE0A21C1
:101A7C00022000F011F90120FEF708FC614B1B68F5
:101A8C00012B40F0B480022000F026F90346012B14
:101A9C0040F0AD8000F0FEFA03465B4A12689B1AD8
:101AAC0040F6B732934216D800F0E2F8044600F044
:101ABC00DFF8054600F0DCF803461A4629462046B6
:101ACC00FEF736FDFEF74AFDFEF72EFE64210220DE
:101ADC0000F0E2F88BE04B4B00221A60464B1B687F
:101AEC00012B14BF01230023DBB27B60444B19682C
:101AFC0046487B681A4652001A4493001A460B4615
:101B0C005B000B44DB00134403441B68404A136026
:101B1C003B4B19683D487B681A4652001A449300A7
:101B2C001A460B465B000B44DB001344034404339E
:101B3C001B68374A5360324B196834487B681A4625
:101B4C0052001A4493001A460B465B000B44DB0010
:101B5C001344034408331B682D4A9360FEF7FEFCC4
:101B6C00254B1B68012B0FD1294B1B68294A13608D
:101B7C00274B5B68274A5360254B9B68254A93602B
:101B8C001D4B02221A6032E01B4B1B68022B2ED11C
:101B9C001F4B1B68204A13601D4B5B681E4A536029
:101BAC001B4B9B681C4A9360FFF770FE0346632B2C
:101BBC000ED0632B10DC012B02D0022B04D00BE0D7
:101BCC001820FEF719FD08E01720FEF715FD04E0BC
:101BDC001920FEF711FD00E000BF064B01221A6030
:101BEC004FF4FA61052000F057F800E000BF083709
:101BFC00BD46B0BD30010020B800002034010020EB
:101C0C00FC000020F4000020F00000206800002000
:101C1C0044000020080100201C01002080B500AF0A
:101C2C00064B00221A60054B00225A60034B04221B
:101C3C009A60FEF793FC00BF80BD00BF44000020FB
:101C4C0080B400AF084B1B68084A02FB03F303F592
:101C5C0040533933044A1360034B1B681B0C184662
:101C6C00BD4680BC704700BFBC0000206D4EC64115
:101C7C0080B500AFFFF7E4FF0146064BA3FB012341
:101C8C00DA0813469B0013445B00CA1A1346184625
:101C9C0080BD00BFCDCCCCCC80B483B000AF78601D
:101CAC0039603B68094A82FB03129210DB17D21A87
:101CBC0007497B6841F82320064A7B68002142F8DB
:101CCC00231000BF0C37BD4680BC70476766666644
:101CDC00440300200C04002080B483B000AF786073
:101CEC00064A7B6852F82330012B01D1012300E016
:101CFC00002318460C37BD4680BC70470C040020EE
:101D0C0080B483B000AF00237B601CE0124A7B6878
:101D1C0052F82330002B13DD0F4A7B6852F8233026
:101D2C005A1E0D497B6841F823200B4A7B6852F8F8
:101D3C002330002B04DC094A7B68012142F8231074
:101D4C007B6801337B607B68312BDFDD00BF00BF1C
:101D5C000C37BD4680BC7047440300200C040020A7
:101D6C0080B485B000AF154B9B69144A43F0010356
:101D7C009361124B9B6903F00103BB60BB680F4B73
:101D8C00DB690E4A43F08053D3610C4BDB6903F0E3
:101D9C0080537B607B680A4B5B68FB60FB6823F0BD
:101DAC00E063FB60FB6843F00073FB60044AFB6874
:101DBC00536000BF1437BD4680BC70470010024012
:101DCC000000014080B588B000AF786007F11003C7
:101DDC0000221A605A609A60DA607B681B68184AA5
:101DEC00934229D1174B9B69164A43F400739361B4
:101DFC00144B9B6903F40073FB60FB68114B9B69EC
:101E0C00104A43F0040393610E4B9B6903F00403E7
:101E1C00BB60BB6801233B6103237B6107F11003AB
:101E2C001946094800F066FE00220021122000F03D
:101E3C002AFE122000F043FE00BF2037BD4680BDB5
:101E4C0000240140001002400008014080B588B019
:101E5C0000AF78607B681B68194A93422CD1194BF0
:101E6C009B69184A43F008039361164B9B6903F076
:101E7C000803FB60FB68134BDB69124A43F4001345
:101E8C00D361104BDB6903F40013BB60BB6807F133
:101E9C00100300221A605A609A60DA60C0233B611A
:101EAC0012237B610023BB610323FB6107F1100349
:101EBC001946054800F01EFE00BF2037BD4680BD08
:101ECC000054004000100240000C014080B584B06A
:101EDC0000AF78607B681B68B3F1804F13D10C4B5B
:101EEC00DB690B4A43F00103D361094BDB6903F057
:101EFC000103FB60FB68002200211C2000F0C3FDE5
:101F0C001C2000F0DCFD00BF1037BD4680BD00BFBB
:101F1C000010024080B400AFFEE780B400AFFEE7D3
:101F2C0080B400AFFEE780B400AFFEE780B400AF32
:101F3C00FEE780B400AF00BFBD4680BC704780B4E4
:101F4C0000AF00BFBD4680BC704780B400AF00BF7F
:101F5C00BD4680BC704780B500AF00F089F800BF6B
:101F6C0080BD000080B500AF024800F047FA00BF0A
:101F7C0080BD00BFCC02002080B500AF024802F04B
:101F8C0063F900BF80BD00BFFC02002080B400AF2D
:101F9C0000BFBD4680BC7047FFF7F8FF0B480C49EB
:101FAC000C4A002302E0D458C4500433C4188C42A9
:101FBC00F9D3094A094C002301E013600432A24210
:101FCC00FBD302F081FCFFF795F87047000000206E
:101FDC00CC000020304B0008CC000020D80400209E
:101FEC00FEE7000080B500AF084B1B68074A43F0C2
:101FFC0010031360032000F03BFD0F2000F008F8E5
:10200C00FFF7AEFE0023184680BD00BF0020024043
:10201C0080B582B000AF7860124B1A68124B1B78F7
:10202C0019464FF47A73B3FBF1F3B2FBF3F3184692
:10203C0000F053FD0346002B01D001230EE07B681A
:10204C000F2B0AD8002279684FF0FF3000F01BFDEF
:10205C00064A7B681360002300E00123184608370A
:10206C00BD4680BDC0000020C8000020C400002078
:10207C0080B400AF054B1B781A46054B1B68134404
:10208C00034A136000BFBD4680BC7047C8000020E7
:10209C00D404002080B400AF024B1B681846BD4628
:1020AC0080BC7047D404002080B584B000AF786049
:1020BC00FFF7F0FFB8607B68FB60FB68B3F1FF3F94
:1020CC0005D00A4B1B781A46FB681344FB6000BF13
:1020DC00FFF7E0FF0246BB68D31AFA689A42F7D8BA
:1020EC0000BF00BF1037BD4680BD00BFC800002038
:1020FC0080B586B000AF78600023FB7500233B6190
:10210C000023BB600023FB607B68002B01D1012303
:10211C00BEE07B689B68002B7B689B6A002B09D117
:10212C007B680022DA627B68002283F824207868BE
:10213C00FFF748FE786800F085FB0346FB757B686B
:10214C009B6A03F01003002B40F09980FB7D002B61
:10215C0040F095807B689B6A23F4885323F002033C
:10216C0043F002027B689A627B685A687B68DB6981
:10217C001A437B681B7B5B001343BA681343BB6039
:10218C007B689B68B3F5807F03D07B689B68012BD1
:10219C0002D14FF4807300E000233A6913433B6192
:1021AC007B681B7D012B19D17B681B7B002B09D114
:1021BC007B689B69013B5A033B69134343F40063FF
:1021CC003B610BE07B689B6A43F020027B689A6260
:1021DC007B68DB6A43F001027B68DA627B681B6810
:1021EC005B6823F469417B681B683A690A435A604F
:1021FC007B681B689A68284B13407A681268B96828
:10220C000B4393607B689B68B3F5807F03D07B683E
:10221C009B68012B04D17B681B69013B1B05FB6090
:10222C007B681B68DB6A23F470017B681B68FA68A7
:10223C000A43DA627B681B689A68184B1340BA68C9
:10224C009A420BD17B680022DA627B689B6A23F08E
:10225C00030343F001027B689A6218E07B689B6A77
:10226C0023F0120343F010027B689A627B68DB6AEE
:10227C0043F001027B68DA620123FB7507E07B689F
:10228C009B6A43F010027B689A620123FB75FB7D0D
:10229C0018461837BD4680BDFDF7E1FFFE0E1FFF47
:1022AC0080B584B000AF78600023FB737B6893F833
:1022BC002430012B01D1022398E07B68012283F8A2
:1022CC002420786800F064FA0346FB73FB7B002B38
:1022DC0040F087807B689B6A23F4407323F00103F2
:1022EC0043F480727B689A627B681B68414A934214
:1022FC0005D1414B5B6803F47023002B15D17B682F
:10230C009B6A23F480127B689A627B681B685B680B
:10231C0003F48063002B26D07B689B6A23F4405324
:10232C0043F480527B689A621DE07B689B6A43F49D
:10233C0080127B689A627B681B682F4A934204D098
:10234C007B681B682B4A93420DD12B4B5B6803F4C3
:10235C008063002B07D07B689B6A23F4405343F4C3
:10236C0080527B689A627B689B6A03F48053002BD3
:10237C0006D07B68DB6A23F006027B68DA6202E037
:10238C007B680022DA627B68002283F824207B6859
:10239C001B686FF002021A607B681B689B6803F471
:1023AC006023B3F5602F13D17B681B68114A9342ED
:1023BC0005D1114B5B6803F47023002B08D17B68AB
:1023CC001B689A687B681B6842F4A0029A600CE058
:1023DC007B681B689A687B681B6842F480129A6061
:1023EC0003E07B68002283F82420FB7B184610371F
:1023FC00BD4680BD002801400024014080B584B05A
:10240C0000AF78607B681B681B68FB607B681B688F
:10241C005B68BB60BB6803F02003002B3ED0FB68FD
:10242C0003F00203002B39D07B689B6A03F0100386
:10243C00002B05D17B689B6A43F400727B689A621F
:10244C007B681B689B6803F46023B3F5602F1DD178
:10245C007B681B7B002B19D17B681B685A687B68D7
:10246C001B6822F020025A607B689B6A23F48072FE
:10247C007B689A627B689B6A03F48053002B05D1BE
:10248C007B689B6A43F001027B689A62786800F073
:10249C0074F87B681B686FF012021A60BB6803F05B
:1024AC008003002B4DD0FB6803F00403002B48D0B5
:1024BC007B689B6A03F01003002B05D17B689B6A39
:1024CC0043F400527B689A627B681B689B6803F438
:1024DC00E043B3F5E04F12D07B681B685B6803F4F4
:1024EC008063002B25D17B681B689B6803F46023F9
:1024FC00B3F5602F1DD17B681B7B002B19D17B683A
:10250C001B685A687B681B6822F080025A607B68E3
:10251C009B6A23F480527B689A627B689B6A03F403
:10252C008073002B05D17B689B6A43F001027B68AA
:10253C009A62786800F0C7F97B681B686FF00C0230
:10254C001A60BB6803F04003002B12D0FB6803F049
:10255C000103002B0DD07B689B6A43F480327B68AF
:10256C009A62786800F012F87B681B686FF00102C1
:10257C001A6000BF1037BD4680BD80B483B000AF79
:10258C00786000BF0C37BD4680BC704780B483B008
:10259C0000AF786000BF0C37BD4680BC70470000B0
:1025AC0080B485B000AF786039600023FB730023E2
:1025BC00BB607B6893F82430012B01D10223DCE053
:1025CC007B68012283F824203B685B68062B1CD8AF
:1025DC007B681B68596B3B685A6813469B00134415
:1025EC00053B1F2202FA03F3DB4319403B681868D2
:1025FC003B685A6813469B001344053B00FA03F2F0
:10260C007B681B680A435A633CE03B685B680C2B95
:10261C001CD87B681B68196B3B685A6813469B0077
:10262C001344233B1F2202FA03F3DB4319403B689C
:10263C0018683B685A6813469B001344233B00FA06
:10264C0003F27B681B680A431A631BE07B681B68F8
:10265C00D96A3B685A6813469B001344413B1F22BE
:10266C0002FA03F3DB4319403B6818683B685A686D
:10267C0013469B001344413B00FA03F27B681B6832
:10268C000A43DA623B681B68092B1CD97B681B6800
:10269C00D9683B681A6813465B0013441E3B07223B
:1026AC0002FA03F3DB4319403B6898683B681A68ED
:1026BC0013465B0013441E3B00FA03F27B681B6855
:1026CC000A43DA6019E07B681B6819693B681A6871
:1026DC0013465B001344072202FA03F3DB43194051
:1026EC003B6898683B681A6813465B00134400FA11
:1026FC0003F27B681B680A431A613B681B68102B4A
:10270C0003D03B681B68112B32D17B681B681D4AB8
:10271C00934225D17B681B689B6803F40003002B54
:10272C0026D17B681B689A687B681B6842F40002A0
:10273C009A603B681B68102B1AD1134B1B68134A09
:10274C00A2FB03239A0C13469B0013445B00BB6053
:10275C0002E0BB68013BBB60BB68002BF9D107E012
:10276C007B689B6A43F020027B689A620123FB73AF
:10277C007B68002283F82420FB7B18461437BD4667
:10278C0080BC704700240140C000002083DE1B4346
:10279C0080B584B000AF78600023FB600023BB6081
:1027AC007B681B689B6803F00103012B40D07B689E
:1027BC001B689A687B681B6842F001029A601F4B89
:1027CC001B681F4AA2FB03239B0CBB6002E0BB6887
:1027DC00013BBB60BB68002BF9D1FFF75BFCF860D9
:1027EC001FE0FFF757FC0246FB68D31A022B18D9DF
:1027FC007B681B689B6803F00103012B11D07B687D
:10280C009B6A43F010027B689A627B68DB6A43F038
:10281C0001027B68DA627B68002283F824200123A2
:10282C0007E07B681B689B6803F00103012BD8D180
:10283C00002318461037BD4680BD00BFC0000020E5
:10284C0083DE1B4380B584B000AF78600023FB604F
:10285C007B681B689B6803F00103012B2ED17B68FE
:10286C001B689A687B681B6822F001029A60FFF76C
:10287C0011FCF8601BE0FFF70DFC0246FB68D31A55
:10288C00022B14D97B681B689B6803F00103012B96
:10289C000DD17B689B6A43F010027B689A627B685F
:1028AC00DB6A43F001027B68DA62012307E07B6894
:1028BC001B689B6803F00103012BDCD00023184636
:1028CC001037BD4680BD80B483B000AF786000BFC8
:1028DC000C37BD4680BC704780B485B000AF7860C3
:1028EC007B6803F00703FB600C4BDB68BB60BA68CA
:1028FC004FF6FF031340BB60FB681A02BB6813431F
:10290C0043F0BF6343F40033BB60044ABB68D3603D
:10291C0000BF1437BD4680BC704700BF00ED00E01F
:10292C0080B400AF044BDB681B0A03F007031846A6
:10293C00BD4680BC704700BF00ED00E080B483B0A2
:10294C0000AF0346FB7197F90730002B0BDBFB79CB
:10295C0003F01F02064997F907305B09012000FAC2
:10296C0002F241F8232000BF0C37BD4680BC7047F3
:10297C0000E100E080B483B000AF03463960FB7126
:10298C0097F90730002B0ADB3B68DAB20C4997F950
:10299C0007301201D2B20B4483F800230AE03B68E3
:1029AC00DAB20849FB7903F00F03043B1201D2B2EF
:1029BC000B441A7600BF0C37BD4680BC704700BF75
:1029CC0000E100E000ED00E080B489B000AFF860F9
:1029DC00B9607A60FB6803F00703FB61FB69C3F124
:1029EC000703042B28BF0423BB61FB690433062BAC
:1029FC0002D9FB69033B00E000237B614FF0FF32FF
:102A0C00BB6902FA03F3DA43BB681A407B699A404C
:102A1C004FF0FF317B6901FA03F3D9437B680B401C
:102A2C00134318462437BD4680BC704780B582B02E
:102A3C0000AF78607B68013BB3F1807F01D3012349
:102A4C000FE00A4A7B68013B53600F214FF0FF30C7
:102A5C00FFF790FF054B00229A60044B07221A6087
:102A6C00002318460837BD4680BD00BF10E000E0CB
:102A7C0080B582B000AF78607868FFF72DFF00BF9B
:102A8C000837BD4680BD80B586B000AF0346B9603F
:102A9C007A60FB7300237B61FFF742FF78617A68F1
:102AAC00B9687869FFF790FF024697F90F30114625
:102ABC001846FFF75FFF00BF1837BD4680BD80B5D5
:102ACC0082B000AF0346FB7197F907301846FFF749
:102ADC0035FF00BF0837BD4680BD80B582B000AF62
:102AEC0078607868FFF7A2FF034618460837BD46A2
:102AFC0080BD000080B48BB000AF786039600023DB
:102B0C007B6200233B6248E101227B6A02FA03F3F9
:102B1C00FB613B681B68FA691340BB61BA69FB69CE
:102B2C009A4240F037813B685B68A34A93425ED07F
:102B3C00A14A934275D8A14A934258D09F4A9342D6
:102B4C006FD89F4A934252D09D4A934269D89D4A6E
:102B5C0093424CD09B4A934263D89B4A934246D0B3
:102B6C00994A93425DD8122B2AD8122B59D801A21C
:102B7C0052F823F0FB2B0008D52B0008E72B00089C
:102B8C00292C00082F2C00082F2C00082F2C0008B3
:102B9C002F2C00082F2C00082F2C00082F2C00089D
:102BAC002F2C00082F2C00082F2C00082F2C00088D
:102BBC002F2C00082F2C0008DD2B0008F12B00080F
:102BCC00824A934213D02CE03B68DB683B6229E0DD
:102BDC003B68DB6804333B6224E03B68DB6808330A
:102BEC003B621FE03B68DB680C333B621AE03B68DE
:102BFC009B68002B02D104233B6213E03B689B686B
:102C0C00012B05D108233B627B68FA691A6109E044
:102C1C0008233B627B68FA695A6103E000233B623C
:102C2C0000E000BFBB69FF2B01D87B6801E07B682B
:102C3C0004337B61BB69FF2B02D87B6A9B0002E0EB
:102C4C007B6A083B9B003B617B691A680F213B69DF
:102C5C0001FA03F3DB431A40396A3B6901FA03F3C7
:102C6C001A437B691A603B685B6803F08053002B46
:102C7C0000F09080564B9B69554A43F001039361D9
:102C8C00534B9B6903F00103BB60BB68514A7B6AE1
:102C9C009B08023352F82330FB607B6A03F003037A
:102CAC009B000F2202FA03F3DB43FA681340FB602C
:102CBC007B68494A93420DD07B68484A934207D0BF
:102CCC007B68474A934201D1022304E0032302E0CC
:102CDC00012300E000237A6A02F003029200934081
:102CEC00FA681343FB603B497B6A9B080233FA6822
:102CFC0041F823203B685B6803F48013002B06D05B
:102D0C00384B9A683749BB6913438B6006E0354BE7
:102D1C009A68BB69DB43334913408B603B685B6843
:102D2C0003F40013002B06D02E4BDA682D49BB6937
:102D3C001343CB6006E02B4BDA68BB69DB432949B4
:102D4C001340CB603B685B6803F40033002B06D068
:102D5C00244B5A682349BB6913434B6006E0214B53
:102D6C005A68BB69DB431F4913404B603B685B6887
:102D7C0003F48033002B06D01A4B1A681949BB692F
:102D8C0013430B6006E0174B1A68BB69DB4315490C
:102D9C0013400B607B6A01337B623B681A687B6A69
:102DAC0022FA03F3002B7FF4AFAE00BF00BF2C3729
:102DBC00BD4680BC704700BF0000321000003110CF
:102DCC000000221000002110000012100000111051
:102DDC00001002400000014000080140000C0140BE
:102DEC00001001400004014080B485B000AF786051
:102DFC000B467B807B689A687B881340002B02D043
:102E0C000123FB7301E00023FB73FB7B1846143793
:102E1C00BD4680BC704780B483B000AF78600B4671
:102E2C007B8013467B707B78002B03D07A887B6881
:102E3C001A6103E07B881A047B681A6100BF0C37A7
:102E4C00BD4680BC704780B485B000AF78600B463F
:102E5C007B807B68DB68FB607A88FB6813401A0414
:102E6C00FB68D9437B880B401A437B681A6100BF0F
:102E7C001437BD4680BC704780B584B000AF786015
:102E8C007B68002B01D101232BE17B6893F83D304B
:102E9C00DBB2002B06D17B68002283F83C207868DB
:102EAC00FEF7D4FF7B68242283F83D207B681B68E7
:102EBC001A687B681B6822F001021A607B681B6829
:102ECC001A687B681B6842F400421A607B681B68B6
:102EDC001A687B681B6822F400421A6001F030F813
:102EEC00F8607B685B68814A934207D8FB68804A2C
:102EFC00934294BF01230023DBB206E0FB687D4ABA
:102F0C00934294BF01230023DBB2002B01D0012399
:102F1C00E7E0FB68784AA2FB03239B0CBB607B6851
:102F2C001B685B6823F03F017B681B68BA680A4327
:102F3C005A607B681B681B6A23F03F017B685B68E7
:102F4C006A4A934202D8BB68013309E0BB684FF46C
:102F5C00967202FB03F3694AA2FB03239B0901331C
:102F6C007A6812680B4313627B681B68DB6923F475
:102F7C004F4222F0FF027B685B685C498B4219D898
:102F8C00FB68591E7B685B685B00B1FBF3F3591C53
:102F9C0040F6FC730B40002B0AD0FB68591E7B6873
:102FAC005B685B00B1FBF3F30133C3F30B0351E03C
:102FBC0004234FE07B689B68002B11D1FB68581EE3
:102FCC007B6859680B465B000B44B0FBF3F3013391
:102FDC00C3F30B03002B0CBF01230023DBB212E065
:102FEC00FB68581E7B6859680B469B000B44990084
:102FFC000B44B0FBF3F30133C3F30B03002B0CBFF7
:10300C0001230023DBB2002B01D0012322E07B68DB
:10301C009B68002B0ED1FB68581E7B6859680B46C9
:10302C005B000B44B0FBF3F30133C3F30B0343F42A
:10303C0000430FE0FB68581E7B6859680B469B00E9
:10304C000B4499000B44B0FBF3F30133C3F30B03B4
:10305C0043F44043796809681343CB617B681B6870
:10306C001B6823F0C0017B68DA697B681B6A1A4312
:10307C007B681B680A431A607B681B689B6823F497
:10308C00034323F0FF037A6811697A68D26811430D
:10309C007A6812680B4393607B681B68DB6823F0CB
:1030AC00FF017B685A697B689B691A437B681B68C4
:1030BC000A43DA607B681B681A687B681B6842F0FD
:1030CC0001021A607B6800221A647B68202283F854
:1030DC003D207B6800221A637B68002283F83E2027
:1030EC00002318461037BD4680BD00BFA0860100E6
:1030FC007F841E00FF083D0083DE1B43D34D62100E
:10310C0080B588B002AFF8607A601A460B467B81B6
:10311C0013463B81FEF7BEFF7861FB6893F83D30A8
:10312C00DBB2202B40F0E0807B6900931923012255
:10313C007049F86800F064F90346002B01D00223B3
:10314C00D3E0FB6893F83C30012B01D10223CCE097
:10315C00FB68012283F83C20FB681B681B6803F0AA
:10316C000103012B07D0FB681B681A68FB681B68FE
:10317C0042F001021A60FB681B681A68FB681B6846
:10318C0022F400621A60FB68212283F83D20FB6860
:10319C00102283F83E20FB6800221A64FB687A68D0
:1031AC005A62FB683A895A85FB685B8D9AB2FB6858
:1031BC001A85FB68504ADA6279897B693A6AF86841
:1031CC0000F09CF80346002B01D001238DE0002376
:1031DC003B61FB681B685B693B61FB681B689B6917
:1031EC003B613B6966E07A69396AF86800F022FA5B
:1031FC000346002B0DD0FB681B6C042B07D1FB681E
:10320C001B681A68FB681B6842F400721A60012381
:10321C006BE0FB685B6A1A78FB681B681A61FB68D9
:10322C005B6A5A1CFB685A62FB685B8D9BB2013B64
:10323C009AB2FB685A85FB681B8D013B9AB2FB68FE
:10324C001A85FB681B685B6903F00403042B1BD114
:10325C00FB681B8D002B17D0FB685B6A1A78FB6828
:10326C001B681A61FB685B6A5A1CFB685A62FB6834
:10327C005B8D9BB2013B9AB2FB685A85FB681B8D38
:10328C00013B9AB2FB681A857A69396AF86800F0D2
:10329C0019FA0346002B0DD0FB681B6C042B07D1CD
:1032AC00FB681B681A68FB681B6842F400721A60A2
:1032BC0001231AE0FB681B8D002B94D1FB681B6863
:1032CC001A68FB681B6842F400721A60FB682022C3
:1032DC0083F83D20FB68002283F83E20FB68002227
:1032EC0083F83C20002300E0022318461837BD4623
:1032FC0080BD00BF020010000000FFFF80B588B049
:10330C0002AFF8607A603B600B467B81FB68DB6A3E
:10331C007B617B69082B06D07B69012B03D07B6911
:10332C0013F5803F08D1FB681B681A68FB681B68A3
:10333C0042F480721A600BE0FB681B6B122B07D1F6
:10334C00FB681B681A68FB681B6842F480721A6081
:10335C003B6800937B6800224FF00111F86800F085
:10336C004FF80346002B0DD0FB681B681B6803F459
:10337C008073B3F5807F03D1FB684FF400721A643D
:10338C00032335E0FB681B69B3F5804F08D17B89BB
:10339C00DBB21A46FB681B6802F0FE021A611BE0E6
:1033AC007B89DB11DBB203F00603DBB263F00F03A6
:1033BC00DAB2FB681B681A613B687A680E49F868D8
:1033CC0000F098F80346002B01D0012310E07B8914
:1033DC00DAB2FB681B681A613B687A680749F868BF
:1033EC0000F088F80346002B01D0012300E00023F5
:1033FC0018461837BD4680BD0800010002000100C8
:10340C0080B584B000AFF860B9603B601346FB71C7
:10341C0048E03B68B3F1FF3F44D0FEF73BFE024669
:10342C00BB69D31A3A689A4202D33B68002B39D154
:10343C00BB681B0CDBB2012B0DD1FB681B685B69F5
:10344C00DA43BB6813409BB2002B0CBF0123002353
:10345C00DBB21A460CE0FB681B689B69DA43BB685D
:10346C0013409BB2002B0CBF01230023DBB21A4686
:10347C00FB799A4216D1FB6800221A63FB68202262
:10348C0083F83D20FB68002283F83E20FB681B6C10
:10349C0043F02002FB681A64FB68002283F83C208E
:1034AC00012323E0BB681B0CDBB2012B0DD1FB68A5
:1034BC001B685B69DA43BB6813409BB2002B0CBFE3
:1034CC0001230023DBB21A460CE0FB681B689B69E6
:1034DC00DA43BB6813409BB2002B0CBF01230023C3
:1034EC00DBB21A46FB799A4293D000231846103768
:1034FC00BD4680BD80B584B000AFF860B9607A601D
:10350C003B6071E0FB681B685B6903F48063B3F597
:10351C00806F23D1FB681B681A68FB681B6842F438
:10352C0000721A60FB681B686FF480625A61FB685A
:10353C0000221A63FB68202283F83D20FB680022DE
:10354C0083F83E20FB681B6C43F00402FB681A6492
:10355C00FB68002283F83C20012367E07B68B3F111
:10356C00FF3F41D0FEF796FD02463B68D31A7A68BE
:10357C009A4202D37B68002B36D1BB681B0CDBB2A2
:10358C00012B0CD1FB681B685B69DA43BB681340E9
:10359C009BB2002B14BF01230023DBB20BE0FB68B2
:1035AC001B689B69DA43BB6813409BB2002B14BFAA
:1035BC0001230023DBB2002B16D0FB6800221A6318
:1035CC00FB68202283F83D20FB68002283F83E2014
:1035DC00FB681B6C43F02002FB681A64FB6800223A
:1035EC0083F83C20012321E0BB681B0CDBB2012BD0
:1035FC000CD1FB681B685B69DA43BB6813409BB258
:10360C00002B14BF01230023DBB20BE0FB681B680B
:10361C009B69DA43BB6813409BB2002B14BF012398
:10362C000023DBB2002B7FF46DAF0023184610375C
:10363C00BD4680BD80B584B000AFF860B9607A60DB
:10364C0034E0F86800F086F80346002B01D0012323
:10365C0034E0BB68B3F1FF3F28D0FEF71BFD0246F8
:10366C007B68D31ABA689A4202D3BB68002B1DD16F
:10367C00FB681B685B6903F08003802B16D0FB682A
:10368C0000221A63FB68202283F83D20FB6800228D
:10369C0083F83E20FB681B6C43F02002FB681A6425
:1036AC00FB68002283F83C20012307E0FB681B68C1
:1036BC005B6903F08003802BC3D1002318461037BD
:1036CC00BD4680BD80B584B000AFF860B9607A604B
:1036DC0034E0F86800F03EF80346002B01D00123DB
:1036EC0034E0BB68B3F1FF3F28D0FEF7D3FC0246B1
:1036FC007B68D31ABA689A4202D3BB68002B1DD1DF
:10370C00FB681B685B6903F00403042B16D0FB6891
:10371C0000221A63FB68202283F83D20FB680022FC
:10372C0083F83E20FB681B6C43F02002FB681A6494
:10373C00FB68002283F83C20012307E0FB681B6830
:10374C005B6903F00403042BC3D100231846103724
:10375C00BD4680BD80B483B000AF78607B681B68C9
:10376C005B6903F48063B3F5806F1BD17B681B68C6
:10377C006FF480625A617B6800221A637B68202296
:10378C0083F83D207B68002283F83E207B681B6C0D
:10379C0043F004027B681A647B68002283F83C20A7
:1037AC00012300E0002318460C37BD4680BC70474F
:1037BC0080B586B000AF78607B68002B01D1012307
:1037CC006CE27B681B6803F00103002B00F0878020
:1037DC00924B5B6803F00C03042B0CD08F4B5B6893
:1037EC0003F00C03082B12D18C4B5B6803F4803371
:1037FC00B3F5803F0BD1894B1B6803F40033002BCE
:10380C006CD07B685B68002B68D1012346E27B6837
:10381C005B68B3F5803F06D1804B1B687F4A43F44D
:10382C00803313602EE07B685B68002B0CD17B4BE4
:10383C001B687A4A23F480331360784B1B68774AF1
:10384C0023F4802313601DE07B685B68B3F5A02F25
:10385C000CD1724B1B68714A43F4802313606F4B7D
:10386C001B686E4A43F4803313600BE06B4B1B6890
:10387C006A4A23F480331360684B1B68674A23F44D
:10388C00802313607B685B68002B13D0FEF702FC6F
:10389C00386108E0FEF7FEFB02463B69D31A642B45
:1038AC0001D90323FAE15D4B1B6803F40033002BB1
:1038BC00F0D014E0FEF7EEFB386108E0FEF7EAFB0F
:1038CC0002463B69D31A642B01D90323E6E1534B1F
:1038DC001B6803F40033002BF0D100E000BF7B68C1
:1038EC001B6803F00203002B63D04C4B5B6803F0A6
:1038FC000C03002B0BD0494B5B6803F00C03082B1B
:10390C001CD1464B5B6803F48033002B16D1434B20
:10391C001B6803F00203002B05D07B681B69012B8D
:10392C0001D00123BAE13D4B1B6823F0F8027B6800
:10393C005B69DB00394913430B603AE07B681B6918
:10394C00002B20D0364B01221A60FEF7A3FB386106
:10395C0008E0FEF79FFB02463B69D31A022B01D904
:10396C0003239BE12D4B1B6803F00203002BF0D0CB
:10397C002A4B1B6823F0F8027B685B69DB00274944
:10398C0013430B6015E0264B00221A60FEF782FBF6
:10399C00386108E0FEF77EFB02463B69D31A022B26
:1039AC0001D903237AE11D4B1B6803F00203002BA2
:1039BC00F0D17B681B6803F00803002B3AD07B68BE
:1039CC009B69002B19D0174B01221A60FEF762FB82
:1039DC00386108E0FEF75EFB02463B69D31A022B06
:1039EC0001D903235AE10D4B5B6A03F00203002B50
:1039FC00F0D0012000F0B8FA1CE00A4B00221A604B
:103A0C00FEF748FB38610FE0FEF744FB02463B69CA
:103A1C00D31A022B08D9032340E100BF0010024047
:103A2C0000004242800442429E4B5B6A03F0020358
:103A3C00002BE9D17B681B6803F00403002B00F01A
:103A4C00A6800023FB75974BDB6903F08053002B9A
:103A5C000DD1944BDB69934A43F08053D361914B66
:103A6C00DB6903F08053BB60BB680123FB758E4B95
:103A7C001B6803F48073002B18D18B4B1B688A4A8C
:103A8C0043F480731360FEF705FB386108E0FEF722
:103A9C0001FB02463B69D31A642B01D90323FDE0D9
:103AAC00814B1B6803F48073002BF0D07B68DB68C0
:103ABC00012B06D17B4B1B6A7A4A43F0010313623C
:103ACC002DE07B68DB68002B0CD1764B1B6A754AAA
:103ADC0023F001031362734B1B6A724A23F0040335
:103AEC0013621CE07B68DB68052B0CD16D4B1B6AE9
:103AFC006C4A43F0040313626A4B1B6A694A43F035
:103B0C00010313620BE0674B1B6A664A23F0010347
:103B1C001362644B1B6A634A23F0040313627B68D1
:103B2C00DB68002B15D0FEF7B5FA38610AE0FEF71A
:103B3C00B1FA02463B69D31A41F28832934201D959
:103B4C000323ABE0574B1B6A03F00203002BEED0B0
:103B5C0014E0FEF79FFA38610AE0FEF79BFA024682
:103B6C003B69D31A41F28832934201D9032395E081
:103B7C004C4B1B6A03F00203002BEED1FB7D012B97
:103B8C0005D1484BDB69474A23F08053D3617B68EE
:103B9C00DB69002B00F08180424B5B6803F00C0367
:103BAC00082B61D07B68DB69022B46D13F4B00228E
:103BBC001A60FEF76FFA386108E0FEF76BFA0246FE
:103BCC003B69D31A022B01D9032367E0354B1B68E1
:103BDC0003F00073002BF0D17B681B6AB3F5803FB8
:103BEC0008D1304B5B6823F400327B689B682D490D
:103BFC0013434B602B4B5B6823F474127B68196A7C
:103C0C007B685B6A0B43274913434B60274B0122AC
:103C1C001A60FEF73FFA386108E0FEF73BFA0246FD
:103C2C003B69D31A022B01D9032337E01D4B1B68C8
:103C3C0003F00073002BF0D02FE01C4B00221A6015
:103C4C00FEF728FA386108E0FEF724FA02463B69D1
:103C5C00D31A022B01D9032320E0124B1B6803F06B
:103C6C000073002BF0D118E07B68DB69012B01D1CC
:103C7C00012313E00B4B5B68FB60FB6803F48032A1
:103C8C007B681B6A9A4206D1FB6803F470127B684E
:103C9C005B6A9A4201D0012300E0002318461837D2
:103CAC00BD4680BD001002400070004060004242E2
:103CBC0080B584B000AF786039607B68002B01D18F
:103CCC000123D0E06A4B1B6803F007033A689A4261
:103CDC0010D9674B1B6823F0070265493B681343F7
:103CEC000B60634B1B6803F007033A689A4201D0E0
:103CFC000123B8E07B681B6803F00203002B20D083
:103D0C007B681B6803F00403002B05D0594B5B68E0
:103D1C00584A43F4E06353607B681B6803F0080364
:103D2C00002B05D0534B5B68524A43F460535360ED
:103D3C00504B5B6823F0F0027B689B684D49134342
:103D4C004B607B681B6803F00103002B40D07B6841
:103D5C005B68012B07D1474B1B6803F40033002B26
:103D6C0015D101237FE07B685B68022B07D1414BA7
:103D7C001B6803F00073002B09D1012373E03D4B4A
:103D8C001B6803F00203002B01D101236BE0394BBC
:103D9C005B6823F003027B685B68364913434B6016
:103DAC00FEF778F9F8600AE0FEF774F90246FB6852
:103DBC00D31A41F28832934201D9032353E02D4B9D
:103DCC005B6803F00C027B685B689B009A42EBD14A
:103DDC00274B1B6803F007033A689A4210D2244B16
:103DEC001B6823F0070222493B6813430B60204BEE
:103DFC001B6803F007033A689A4201D0012332E0B2
:103E0C007B681B6803F00403002B08D0194B5B681C
:103E1C0023F4E0627B68DB68164913434B607B68D4
:103E2C001B6803F00803002B09D0124B5B6823F4CA
:103E3C0060527B681B69DB000E4913434B6000F03A
:103E4C0021F802460B4B5B681B0903F00F030A4970
:103E5C00CB5C22FA03F3094A1360094B1B68184622
:103E6C00FEF7D6F8002318461037BD4680BD00BFBC
:103E7C000020024000100240FC4A0008C000002054
:103E8C00C400002080B487B000AF0023FB60002387
:103E9C00BB6000237B6100237B6000233B611E4BD6
:103EAC005B68FB60FB6803F00C03042B02D0082B4F
:103EBC0003D027E0194B3B6127E0FB689B0C03F018
:103ECC000F03174AD35C7B60FB6803F48033002B31
:103EDC0010D0114B5B685B0C03F00103114AD35CEF
:103EEC00BB607B680D4A02FB03F2BB68B2FBF3F3C9
:103EFC007B6104E07B680C4A02FB03F37B617B690A
:103F0C003B6102E0054B3B6100BF3B6918461C3727
:103F1C00BD4680BC704700BF0010024000127A0002
:103F2C00144B0008244B000800093D0080B400AF7E
:103F3C00024B1B681846BD4680BC7047C000002071
:103F4C0080B500AFFFF7F2FF0246054B5B681B0A1A
:103F5C0003F007030349CB5C22FA03F3184680BD38
:103F6C00001002400C4B000880B485B000AF7860A4
:103F7C000A4B1B680A4AA2FB03235B0A7A6802FB02
:103F8C0003F3FB6000BFFB685A1EFA60002BF9D1EB
:103F9C0000BF00BF1437BD4680BC7047C000002076
:103FAC00D34D621080B586B000AF786000233B61C2
:103FBC000023FB607B681B6803F00103002B7DD0A2
:103FCC000023FB754F4BDB6903F08053002B0DD1A5
:103FDC004C4BDB694B4A43F08053D361494BDB6953
:103FEC0003F08053BB60BB680123FB75464B1B6819
:103FFC0003F48073002B18D1434B1B68424A43F4E3
:10400C0080731360FEF746F8386108E0FEF742F85B
:10401C0002463B69D31A642B01D903236DE03A4B5A
:10402C001B6803F48073002BF0D0364B1B6A03F42F
:10403C004073FB60FB68002B2ED07B685B6803F43D
:10404C004073FA689A4227D02E4B1B6A23F44073B4
:10405C00FB602E4B01221A602C4B00221A60294A5D
:10406C00FB681362FB6803F00103002B14D0FEF70E
:10407C0011F838610AE0FEF70DF802463B69D31AD5
:10408C0041F28832934201D9032336E01D4B1B6A5F
:10409C0003F00203002BEED01A4B1B6A23F4407280
:1040AC007B685B68174913430B62FB7D012B05D1C1
:1040BC00144BDB69134A23F08053D3617B681B6874
:1040CC0003F00203002B08D00E4B5B6823F4404234
:1040DC007B689B680B4913434B607B681B6803F040
:1040EC001003002B08D0074B5B6823F480027B681D
:1040FC00DB68044913434B60002318461837BD4650
:10410C0080BD00BF001002400070004040044242DD
:10411C0080B582B000AF78607B68002B01D10123A1
:10412C0041E07B6893F83D30DBB2002B06D17B6815
:10413C00002283F83C207868FDF7C8FE7B680222D9
:10414C0083F83D207B681A687B6804331946104657
:10415C0000F056FA7B68012283F846207B68012226
:10416C0083F83E207B68012283F83F207B68012284
:10417C0083F840207B68012283F841207B68012270
:10418C0083F842207B68012283F843207B6801225C
:10419C0083F844207B68012283F845207B68012248
:1041AC0083F83D20002318460837BD4680BD00002B
:1041BC0080B485B000AF78607B6893F83D30DBB29B
:1041CC00012B01D0012335E07B68022283F83D20CE
:1041DC007B681B68DA687B681B6842F00102DA6056
:1041EC007B681B68164A934209D07B681B68B3F145
:1041FC00804F04D07B681B68124A934211D17B68B4
:10420C001B689B6803F00703FB60FB68062B10D050
:10421C007B681B681A687B681B6842F001021A6095
:10422C0007E07B681B681A687B681B6842F0010218
:10423C001A60002318461437BD4680BC704700BF77
:10424C00002C01400004004080B584B000AF7860C1
:10425C007B681B68DB68FB607B681B681B69BB6049
:10426C00BB6803F00203002B20D0FB6803F00203B1
:10427C00002B1BD07B681B686FF002021A617B68F5
:10428C0001221A777B681B689B6903F00303002BE0
:10429C0003D0786800F098F905E0786800F08BF9A5
:1042AC00786800F09AF97B6800221A77BB6803F0F3
:1042BC000403002B20D0FB6803F00403002B1BD05D
:1042CC007B681B686FF004021A617B6802221A7704
:1042DC007B681B689B6903F44073002B03D07868E0
:1042EC0000F072F905E0786800F065F9786800F084
:1042FC0074F97B6800221A77BB6803F00803002B63
:10430C0020D0FB6803F00803002B1BD07B681B68D4
:10431C006FF008021A617B6804221A777B681B68AD
:10432C00DB6903F00303002B03D0786800F04CF931
:10433C0005E0786800F03FF9786800F04EF97B688A
:10434C0000221A77BB6803F01003002B20D0FB6807
:10435C0003F01003002B1BD07B681B686FF010025E
:10436C001A617B6808221A777B681B68DB6903F487
:10437C004073002B03D0786800F026F905E07868CC
:10438C0000F019F9786800F028F97B6800221A7798
:10439C00BB6803F00103002B0CD0FB6803F0010396
:1043AC00002B07D07B681B686FF001021A617868DC
:1043BC00FDF79AF8BB6803F08003002B0CD0FB6868
:1043CC0003F08003002B07D07B681B686FF0800222
:1043DC001A61786800F06FFABB6803F04003002B99
:1043EC000CD0FB6803F04003002B07D07B681B68E4
:1043FC006FF040021A61786800F0F8F8BB6803F0BF
:10440C002003002B0CD0FB6803F02003002B07D0FB
:10441C007B681B686FF020021A61786800F042FA22
:10442C0000BF1037BD4680BD80B584B000AF78604A
:10443C0039600023FB737B6893F83C30012B01D16E
:10444C000223B4E07B68012283F83C207B680222C3
:10445C0083F83D207B681B689B68BB60BB6823F0BE
:10446C007703BB60BB6823F47F43BB607B681B682E
:10447C00BA689A603B681B68B3F5005F3ED0B3F531
:10448C00005F00F28780B3F5805F00F08680B3F5A3
:10449C00805F7FD8702B1AD0702B7BD8602B50D0BC
:1044AC00602B77D8502B3CD0502B73D8402B58D046
:1044BC00402B6FD8302B64D0302B6BD8202B60D096
:1044CC00202B67D8002B5CD0102B5AD062E07B6875
:1044DC0018683B6899683B685A683B68DB6800F071
:1044EC006AF97B681B689B68BB60BB6843F0770309
:1044FC00BB607B681B68BA689A604FE07B68186881
:10450C003B6899683B685A683B68DB6800F053F974
:10451C007B681B689A687B681B6842F480429A60CF
:10452C003CE07B6818683B6859683B68DB681A4656
:10453C0000F0CAF87B681B685021184600F021F97E
:10454C002CE07B6818683B6859683B68DB681A4646
:10455C0000F0E8F87B681B686021184600F011F940
:10456C001CE07B6818683B6859683B68DB681A4636
:10457C0000F0AAF87B681B684021184600F001F98E
:10458C000CE07B681A683B681B681946104600F003
:10459C00F8F803E00123FB7300E000BF7B68012205
:1045AC0083F83D207B68002283F83C20FB7B184677
:1045BC001037BD4680BD80B483B000AF786000BFBB
:1045CC000C37BD4680BC704780B483B000AF7860B8
:1045DC0000BF0C37BD4680BC704780B483B000AFC1
:1045EC00786000BF0C37BD4680BC704780B483B088
:1045FC0000AF786000BF0C37BD4680BC7047000030
:10460C0080B485B000AF786039607B681B68FB6054
:10461C007B682B4A934207D07B68B3F1804F03D061
:10462C007B68284A934208D1FB6823F07003FB6037
:10463C003B685B68FA681343FB607B68204A9342D3
:10464C0007D07B68B3F1804F03D07B681D4A93423F
:10465C0008D1FB6823F44073FB603B68DB68FA68A5
:10466C001343FB60FB6823F080023B685B691343D8
:10467C00FB607B68FA681A603B689A687B68DA6250
:10468C003B681A687B689A627B680D4A934203D137
:10469C003B681A697B681A637B6801225A617B68E4
:1046AC001B6903F00103002B05D07B681B6923F009
:1046BC0001027B681A6100BF1437BD4680BC70478D
:1046CC00002C01400004004080B487B000AFF860BB
:1046DC00B9607A60FB681B6A7B61FB681B6A23F01C
:1046EC000102FB681A62FB689B693B613B6923F022
:1046FC00F0033B617B681B013A6913433B617B69A7
:10470C0023F00A037B617A69BB6813437B61FB6806
:10471C003A699A61FB687A691A6200BF1C37BD4618
:10472C0080BC704780B487B000AFF860B9607A6025
:10473C00FB681B6A7B61FB681B6A23F01002FB6839
:10474C001A62FB689B693B613B6923F470433B61D4
:10475C007B681B033A6913433B617B6923F0A0031D
:10476C007B61BB681B017A6913437B61FB683A6907
:10477C009A61FB687A691A6200BF1C37BD4680BC1F
:10478C00704780B485B000AF786039607B689B68F7
:10479C00FB60FB6823F07003FB603A68FB68134313
:1047AC0043F00703FB607B68FA689A6000BF14371C
:1047BC00BD4680BC704780B487B000AFF860B9606C
:1047CC007A603B60FB689B687B617B6923F47F4369
:1047DC007B613B681A027B681A43BB6813437A6996
:1047EC0013437B61FB687A699A6000BF1C37BD4636
:1047FC0080BC704780B485B000AF786039607B684E
:10480C0093F83C30012B01D1022341E07B6801225B
:10481C0083F83C207B68022283F83D207B681B6870
:10482C005B68FB607B681B689B68BB60FB6823F064
:10483C007003FB603B681B68FA681343FB607B6882
:10484C001B68FA685A607B681B68144A934209D04B
:10485C007B681B68B3F1804F04D07B681B68104ADF
:10486C0093420CD1BB6823F08003BB603B685B6850
:10487C00BA681343BB607B681B68BA689A607B6834
:10488C00012283F83D207B68002283F83C20002322
:10489C0018461437BD4680BC704700BF002C014041
:1048AC000004004080B483B000AF786000BF0C37C8
:1048BC00BD4680BC704780B483B000AF786000BF49
:1048CC000C37BD4680BC704770B500260C4D0D4CA6
:1048DC00641BA410A64209D100F022F800260A4D50
:1048EC000A4C641BA410A64205D170BD55F8043BBC
:1048FC0098470136EEE755F8043B98470136F2E746
:10490C00284B0008284B0008284B00082C4B0008AB
:10491C0003460244934200D1704703F8011BF9E7A8
:10492C00F8B500BFF8BC08BC9E467047F8B500BF90
:08493C00F8BC08BC9E46704760
:104944004C75636B79205370696E2047616D650007
:1049540053544152540000004249472057494E21C4
:1049640000000000474F4F44204C55434B204E4518
:1049740058542054494D4521000000005031000096
:10498400503200004C4F53455200000057494E45E9
:10499400520000005448452053434F524520495388
:1049A400204556454E210000202053696E676C65F2
:1049B400205370696E0000002020486F6C642053FF
:1049C40070696E00202041636320446563656C2038
:1049D4005370696E00000000202054776F20506CE3
:1049E40061796572730000003E2053696E676C65DF
:1049F400205370696E00000053696E676C65205324
:104A040070696E00507265737320423120746F2098
:104A14007370696E000000003E20486F6C64205380
:104A240070696E00486F6C64205370696E000000FA
:104A34003E2041636320446563656C205370696E56
:104A44000000000041636320446563656C2053707B
:104A5400696E00003E2054776F20506C6179657256
:104A64007300000054776F20506C61796572730095
:104A74003E20486F6D652073637265656E000000AB
:104A8400466972737420506C61796572000000008D
:104A94005365636F6E6420506C6179657200000029
:104AA4004230000042310000423200004233000034
:104AB4004D4F4445000000005350494E0000000093
:104AC40041435054000000004C495354000000007E
:104AD40057656C636F6D6520546F00004C75636B94
:104AE40079205370696E2047616D65003F065B4F06
:104AF400666D7D077F6F000000000000000000006D
:104B0400010203040607080900000000010203046F
:104B140002030405060708090A0B0C0D0E0F1010FA
:044B2400010200008A
:044B2800310100084F
:044B2C000D0100086F
:104B30000008014000080140000801400008014051
:104B40000000000000000000000000000000000065
:104B50000000000000000000000200040008001037
:104B60000000000000000000000000001100000034
:104B7000020000000100000002000000030000002D
:104B80000100000002000000030000000700000018
:104B900007000000070000000700000007000000F9
:104BA00007000000010000000200000003000000F8
:104BB00001000000020000000300000007000000E8
:104BC00007000000070000000500000005000000CD
:104BD00005000000050000000500000005000000C1
:104BE000F4010000140000000100000001000000BA
:0C4BF00000127A0010000000010000001C
:0400000508001FA52B
:00000001FF
