:020000040800F2
:1000000000280020AD0A0008290A00082F0A00086D
:10001000350A00083B0A0008410A000800000000F9
:10002000000000000000000000000000470A000877
:10003000530A0008000000005F0A00086B0A00086D
:10004000F50A0008F50A0008F50A0008F50A000894
:10005000F50A0008F50A0008F50A0008F50A000884
:10006000F50A0008F50A0008F50A0008F50A000874
:10007000F50A0008F50A0008F50A0008F50A000864
:10008000F50A0008F50A0008790A0008F50A0008D0
:10009000F50A0008F50A0008F50A0008F50A000844
:1000A000F50A0008F50A0008F50A0008F50A000834
:1000B0008D0A0008F50A000800000000F50A000893
:1000C000F50A00080000000000000000F50A000822
:1000D00000000000F50A0008F50A00080000000012
:1000E000F50A0008F50A0008F50A000800000000FB
:1000F0000000000000000000000000000000000000
:0C01000000000000000000005FF808F1A3
:10010C0010B5054C237833B9044B13B10448AFF345
:10011C0000800123237010BD10000020000000009F
:10012C004438000808B5034B1BB103490348AFF32F
:10013C00008008BD000000001400002044380008B6
:10014C0080B582B000AF00237B60B3E05E4A7B6871
:10015C005B01134404331A685B497B685B010B44F5
:10016C0008331A60584A7B685B0113441A68564975
:10017C007B685B010B4404331A60544A7B6852F869
:10018C00232053497B6831F813301946104601F08F
:10019C00EDFC034619464C4A7B685B01134419601D
:1001AC00494A7B685B01134404331A6846497B68EF
:1001BC005B010B441B689A4279D1434A7B685B0113
:1001CC00134404331A6840497B685B010B440833C1
:1001DC001B689A426BD13C4A7B685B011344083321
:1001EC001A6839497B685B010B440C331B689A42D3
:1001FC0032D0354A7B685B01134408331A683249A4
:10020C007B685B010B440C331A602F4A7B685B01E3
:10021C0013440C331B68002B0ED12B4A7B685B01FB
:10022C001344103332221A60274A7B685B01134453
:10023C00143301221A603AE0234A7B685B011344B1
:10024C000C331B68012B32D11F4A7B685B011344B2
:10025C001C3301221A602AE01B4A7B685B011344A1
:10026C000C331B68002B22D1174A7B685B011344AB
:10027C0010331B685A1E14497B685B010B44103306
:10028C001A60114A7B685B01134410331B68002B06
:10029C000DD10D4A7B685B011344103332221A6076
:1002AC00094A7B685B011344183301221A607B688E
:1002BC0001337B607B68032B7FF748AF00BF00BF27
:1002CC000837BD4680BD00BF440000202C00002034
:1002DC003C00002080B586B002AF0346FB71FB7971
:1002EC0023F00F03FB73FB791B01BB73FB7B43F008
:1002FC000C03DBB23B72FB7B43F00803DBB27B727B
:10030C00BB7B43F00C03DBB2BB72BB7B43F008033B
:10031C00DBB2FB7207F10802642300930423422131
:10032C00034801F0AFFD00BF1037BD4680BD00BFD4
:10033C00C400002080B500AF3320FFF7CBFF322084
:10034C00FFF7C8FF322000F033FC2820FFF7C2FF74
:10035C00322000F02DFC0120FFF7BCFF322000F012
:10036C0027FC0620FFF7B6FF322000F021FC0C2002
:10037C00FFF7B0FF322000F01BFC0220FFF7AAFFB2
:10038C00322000F015FC8020FFF7A4FF00BF80BDD9
:10039C0080B500AF0120FFF79DFF00BF80BD0000BE
:1003AC0080B500AF00F0A2FB00F038F800F03EF989
:1003BC0000F0F0F800F082F800F0BEF8144802F0FB
:1003CC0083FE00F0D7F9FFF7B5FF6421002000F0A1
:1003DC00F1F93221012000F0EDF96421022000F046
:1003EC00E9F9FFF7D5FF002000F0FCF90346012BDB
:1003FC00F9D14FF40051074801F0E7FB20210648E2
:10040C0001F0E3FB6421002000F0D4F9EBE700BF1E
:10041C0048010020001001400008014080B594B054
:10042C0000AF07F1280328220021184603F0FCF93D
:10043C0007F1140300221A605A609A60DA601A619C
:10044C003B1D00221A605A609A60DA600223BB627C
:10045C000123BB631023FB6300237B6407F1280398
:10046C00184602F067F80346002B01D000F062F941
:10047C000F237B610023BB610023FB6100233B62E4
:10048C0000237B6207F114030021184602F0D2FA14
:10049C000346002B01D000F04DF902237B600023B2
:1004AC00FB603B1D184602F053FC0346002B01D0A9
:1004BC0000F040F900BF5037BD4680BD80B584B018
:1004CC0000AF3B1D00221A605A609A60184B194A03
:1004DC001A60174B00229A60154B00221A73144BAA
:1004EC0000221A75124B4FF46022DA61104B002275
:1004FC005A600F4B01221A610D4800F07DFB034638
:10050C00002B01D000F016F903237B600123BB60A4
:10051C000723FB603B1D1946054800F003FF03460B
:10052C00002B01D000F006F900BF1037BD4680BD8E
:10053C00180100200024014080B500AF124B134A73
:10054C001A60114B124A5A600F4B00229A600E4BE4
:10055C000022DA600C4B4FF480421A610A4B0022E5
:10056C005A61094B00229A61074B0022DA61064B53
:10057C0000221A62044801F041FB0346002B01D013
:10058C0000F0D8F800BF80BDC4000020005400402B
:10059C00A086010080B586B000AF07F108030022E9
:1005AC001A605A609A60DA603B4600221A605A6000
:1005BC001D4B4FF080421A601B4B41F63F725A6044
:1005CC00194B00229A60184B0922DA60164B002254
:1005DC001A61154B00229A61134802F025FD03465F
:1005EC00002B01D000F0A6F84FF48053BB6007F14C
:1005FC00080319460C4802F0A3FE0346002B01D059
:10060C0000F098F800233B6000237B603B461946C2
:10061C00054803F07BF80346002B01D000F08AF864
:10062C0000BF1837BD4680BD4801002080B588B09A
:10063C0000AF07F1100300221A605A609A60DA606A
:10064C00324B9B69314A43F0100393612F4B9B69EA
:10065C0003F01003FB60FB682C4B9B692B4A43F0A7
:10066C0004039361294B9B6903F00403BB60BB68D3
:10067C00264B9B69254A43F008039361234B9B69E6
:10068C0003F008037B607B6800224FF40051204884
:10069C0001F083FA00224FF4FF511E4801F07DFA5D
:1006AC00002238211C4801F078FA4FF400533B61CA
:1006BC0001237B610023BB610223FB6107F1100363
:1006CC001946134801F0D8F84FF4FF533B6101234E
:1006DC007B610023BB610223FB6107F11003194608
:1006EC000C4801F0C9F838233B6101237B610023DE
:1006FC00BB610223FB6107F110031946064801F0A8
:10070C00BBF800BF2037BD4680BD00BF00100240C3
:10071C000010014000080140000C014080B582B07F
:10072C0000AF786000F072F8FFF70AFD00BF0837E1
:10073C00BD4680BD80B400AF72B600BFFEE70000BE
:10074C0080B582B000AF0A4800F02EFB0A210848A1
:10075C0000F004FC064800F007FD0346FB8004484B
:10076C0000F0D0FBFB8818460837BD4680BD00BFA3
:10077C001801002080B582B000AFFFF7E1FF0346FF
:10078C00FB8000F00BFA3860FB881B041A463B68B0
:10079C009BB21343064A1360054B1B68002B02D116
:1007AC00034B01221A6000BF0837BD4680BD00BF55
:1007BC000000002080B483B000AF78603960074936
:1007CC007B683A6841F82320054A7B68002142F88F
:1007DC00231000BF0C37BD4680BC70479001002031
:1007EC00E001002080B483B000AF7860064A7B68DB
:1007FC0052F82330012B01D1012300E000231846CD
:10080C000C37BD4680BC7047E001002080B483B03B
:10081C0000AF00237B601CE0124A7B6852F8233047
:10082C00002B13DD0F4A7B6852F823305A1E0D49FA
:10083C007B6841F823200B4A7B6852F82330002B4D
:10084C0004DC094A7B68012142F823107B680133E0
:10085C007B607B68132BDFDD00BF00BF0C37BD4610
:10086C0080BC704790010020E001002080B485B06E
:10087C0000AF154B9B69144A43F001039361124B73
:10088C009B6903F00103BB60BB680F4BDB690E4A2D
:10089C0043F08053D3610C4BDB6903F080537B60D6
:1008AC007B680A4B5B68FB60FB6823F0E063FB60D2
:1008BC00FB6843F00073FB60044AFB68536000BFA5
:1008CC001437BD4680BC7047001002400000014048
:1008DC0080B588B000AF786007F1100300221A6071
:1008EC005A609A60DA607B681B68184A934229D177
:1008FC00174B9B69164A43F400739361144B9B6925
:10090C0003F40073FB60FB68114B9B69104A43F0C6
:10091C00040393610E4B9B6903F00403BB60BB683B
:10092C0008233B6103237B6107F110031946094837
:10093C0000F0A2FF00220021122000F066FF12201E
:10094C0000F07FFF00BF2037BD4680BD0024014072
:10095C00001002400008014080B588B000AF7860FC
:10096C0007F1100300221A605A609A60DA607B6803
:10097C001B68154A934223D1144B9B69134A43F0CD
:10098C0008039361114B9B6903F00803FB60FB6840
:10099C00C0233B6112237B610023BB6107F1100371
:1009AC0019460B4800F068FF084BDB69074A43F413
:1009BC000013D361054BDB6903F40013BB60BB6808
:1009CC0000BF2037BD4680BD0054004000100240DF
:1009DC00000C014080B584B000AF78607B681B6868
:1009EC00B3F1804F13D10C4BDB690B4A43F001037D
:1009FC00D361094BDB6903F00103FB60FB68002248
:100A0C0000211C2000F001FF1C2000F01AFF00BF89
:100A1C001037BD4680BD00BF0010024080B400AF4F
:100A2C00FEE780B400AFFEE780B400AFFEE780B411
:100A3C0000AFFEE780B400AFFEE780B400AF00BFAC
:100A4C00BD4680BC704780B400AF00BFBD4680BCC3
:100A5C00704780B400AF00BFBD4680BC704780B506
:100A6C0000AF00F089F800BF80BD000080B500AF7A
:100A7C00024800F085FB00BF80BD00BF18010020BC
:100A8C0080B500AF024802F06BFB00BF80BD00BF19
:100A9C004801002080B400AF00BFBD4680BC704749
:100AAC00FFF7F8FF0B480C490C4A002302E0D4581E
:100ABC00C4500433C4188C42F9D3094A094C00239E
:100ACC0001E013600432A242FBD302F089FEFFF76F
:100ADC0067FC70470000002010000020A4380008BC
:100AEC001000002034020020FEE7000080B500AFAB
:100AFC00084B1B68074A43F010031360032000F0F7
:100B0C0079FE0F2000F008F8FFF7B0FE002318461E
:100B1C0080BD00BF0020024080B582B000AF78607D
:100B2C00124B1A68124B1B7819464FF47A73B3FBAD
:100B3C00F1F3B2FBF3F3184600F091FE0346002BE1
:100B4C0001D001230EE07B680F2B0AD800227968B4
:100B5C004FF0FF3000F059FE064A7B68136000230B
:100B6C0000E0012318460837BD4680BD0400002074
:100B7C000C0000200800002080B400AF054B1B784F
:100B8C001A46054B1B681344034A136000BFBD464D
:100B9C0080BC70470C0000203002002080B400AFF5
:100BAC00024B1B681846BD4680BC704730020020C3
:100BBC0080B584B000AF7860FFF7F0FFB8607B6859
:100BCC00FB60FB68B3F1FF3F05D00A4B1B781A465C
:100BDC00FB681344FB6000BFFFF7E0FF0246BB68F5
:100BEC00D31AFA689A42F7D800BF00BF1037BD4637
:100BFC0080BD00BF0C00002080B586B000AF7860CF
:100C0C000023FB7500233B610023BB600023FB60CA
:100C1C007B68002B01D10123BEE07B689B68002B15
:100C2C007B689B6A002B09D17B680022DA627B68A7
:100C3C00002283F824207868FFF74AFE786800F0D9
:100C4C00C3FC0346FB757B689B6A03F01003002B07
:100C5C0040F09980FB7D002B40F095807B689B6A6F
:100C6C0023F4885323F0020343F002027B689A6258
:100C7C007B685A687B68DB691A437B681B7B5B006B
:100C8C001343BA681343BB607B689B68B3F5807FE2
:100C9C0003D07B689B68012B02D14FF4807300E07A
:100CAC0000233A6913433B617B681B7D012B19D1EF
:100CBC007B681B7B002B09D17B689B69013B5A032A
:100CCC003B69134343F400633B610BE07B689B6A15
:100CDC0043F020027B689A627B68DB6A43F0010276
:100CEC007B68DA627B681B685B6823F469417B680C
:100CFC001B683A690A435A607B681B689A68284BE0
:100D0C0013407A681268B9680B4393607B689B68E0
:100D1C00B3F5807F03D07B689B68012B04D17B6883
:100D2C001B69013B1B05FB607B681B68DB6A23F4BA
:100D3C0070017B681B68FA680A43DA627B681B687F
:100D4C009A68184B1340BA689A420BD17B68002200
:100D5C00DA627B689B6A23F0030343F001027B6831
:100D6C009A6218E07B689B6A23F0120343F010022E
:100D7C007B689A627B68DB6A43F001027B68DA620B
:100D8C000123FB7507E07B689B6A43F010027B68CC
:100D9C009A620123FB75FB7D18461837BD4680BD52
:100DAC00FDF7E1FFFE0E1FFF80B584B000AF786049
:100DBC000023FB737B6893F82430012B01D10223B1
:100DCC0098E07B68012283F82420786800F0A2FB6D
:100DDC000346FB73FB7B002B40F087807B689B6A90
:100DEC0023F4407323F0010343F480727B689A620E
:100DFC007B681B68414A934205D1414B5B6803F405
:100E0C007023002B15D17B689B6A23F480127B68BE
:100E1C009A627B681B685B6803F48063002B26D0A6
:100E2C007B689B6A23F4405343F480527B689A623C
:100E3C001DE07B689B6A43F480127B689A627B6836
:100E4C001B682F4A934204D07B681B682B4A934241
:100E5C000DD12B4B5B6803F48063002B07D07B68B0
:100E6C009B6A23F4405343F480527B689A627B68FC
:100E7C009B6A03F48053002B06D07B68DB6A23F05B
:100E8C0006027B68DA6202E07B680022DA627B6829
:100E9C00002283F824207B681B686FF002021A6022
:100EAC007B681B689B6803F46023B3F5602F13D138
:100EBC007B681B68114A934205D1114B5B6803F4A4
:100ECC007023002B08D17B681B689A687B681B68B1
:100EDC0042F4A0029A600CE07B681B689A687B68FD
:100EEC001B6842F480129A6003E07B68002283F84E
:100EFC002420FB7B18461037BD4680BD00280140DE
:100F0C000024014080B584B000AF78600023FB73EF
:100F1C007B6893F82430012B01D102231AE07B6803
:100F2C00012283F82420786800F04EFB0346FB7303
:100F3C00FB7B002B09D17B689B6A23F4885323F03D
:100F4C00010343F001027B689A627B68002283F8FC
:100F5C002420FB7B18461037BD4680BD90B587B06A
:100F6C0000AF7860396000237B610023FB600023B5
:100F7C003B61FFF713FE78617B681B689B6803F489
:100F8C008073002B0BD07B689B6A43F020027B683C
:100F9C009A627B68002283F824200123D3E07B68CB
:100FAC001B685B6803F48073002B31D17B681B6872
:100FBC00DB6A03F47003002B2AD121E03B68B3F108
:100FCC00FF3F1DD03B68002B07D0FFF7E7FD024623
:100FDC007B69D31A3A689A4212D27B681B681B68E9
:100FEC0003F00203002B0BD17B689B6A43F00402D5
:100FFC007B689A627B68002283F824200323A2E09A
:10100C007B681B681B6803F00203002BD6D070E0D2
:10101C004F4B1C68022001F051FF0346B4FBF3F266
:10102C007B681B6819694B4B0B40002B18D17B68F4
:10103C001B68D968484B0B40002B11D17B681B688F
:10104C001969464B0B40002B08D17B681B68D9688B
:10105C00434B0B40002B01D1142320E029231EE02D
:10106C007B681B6819693D4B0B40002B06D17B68D4
:10107C001B68D9683A4B0B40002B0DD07B681B6862
:10108C001969384B0B40002B08D17B681B68D96859
:10109C00344B0B40002B01D1542300E0FC2302FB0A
:1010AC0003F33B6121E03B68B3F1FF3F1AD03B688F
:1010BC00002B07D0FFF772FD02467B69D31A3A6802
:1010CC009A420FD2FB683A699A420BD97B689B6AA9
:1010DC0043F004027B689A627B68002283F8242028
:1010EC00032330E0FB680133FB60FB683A699A42EA
:1010FC00D9D87B681B686FF012021A607B689B6AF8
:10110C0043F400727B689A627B681B689B6803F4EB
:10111C006023B3F5602F15D17B681B7B002B11D19D
:10112C007B689B6A23F480727B689A627B689B6AFB
:10113C0003F48053002B05D17B689B6A43F00102BA
:10114C007B689A62002318461C37BD4690BD00BFD1
:10115C00040000202449922424499200922449122C
:10116C00922449004992240080B483B000AF786087
:10117C007B681B68DB6C18460C37BD4680BC70471F
:10118C0080B584B000AF78607B681B681B68FB601F
:10119C007B681B685B68BB60BB6803F02003002B9B
:1011AC003ED0FB6803F00203002B39D07B689B6AAE
:1011BC0003F01003002B05D17B689B6A43F400728B
:1011CC007B689A627B681B689B6803F46023B3F5A9
:1011DC00602F1DD17B681B7B002B19D17B681B6892
:1011EC005A687B681B6822F020025A607B689B6AF5
:1011FC0023F480727B689A627B689B6A03F4805349
:10120C00002B05D17B689B6A43F001027B689A62D4
:10121C00786800F074F87B681B686FF012021A6033
:10122C00BB6803F08003002B4DD0FB6803F0040374
:10123C00002B48D07B689B6A03F01003002B05D170
:10124C007B689B6A43F400527B689A627B681B68DC
:10125C009B6803F4E043B3F5E04F12D07B681B6846
:10126C005B6803F48063002B25D17B681B689B684B
:10127C0003F46023B3F5602F1DD17B681B7B002B1F
:10128C0019D17B681B685A687B681B6822F0800246
:10129C005A607B689B6A23F480527B689A627B68F5
:1012AC009B6A03F48073002B05D17B689B6A43F027
:1012BC0001027B689A62786800F0C7F97B681B684A
:1012CC006FF00C021A60BB6803F04003002B12D0C5
:1012DC00FB6803F00103002B0DD07B689B6A43F481
:1012EC0080327B689A62786800F012F87B681B6821
:1012FC006FF001021A6000BF1037BD4680BD80B48C
:10130C0083B000AF786000BF0C37BD4680BC70471F
:10131C0080B483B000AF786000BF0C37BD4680BC92
:10132C007047000080B485B000AF7860396000234E
:10133C00FB730023BB607B6893F82430012B01D135
:10134C000223DCE07B68012283F824203B685B6885
:10135C00062B1CD87B681B68596B3B685A68134674
:10136C009B001344053B1F2202FA03F3DB43194095
:10137C003B6818683B685A6813469B001344053B4E
:10138C0000FA03F27B681B680A435A633CE03B6833
:10139C005B680C2B1CD87B681B68196B3B685A6804
:1013AC0013469B001344233B1F2202FA03F3DB4337
:1013BC0019403B6818683B685A6813469B001344F5
:1013CC00233B00FA03F27B681B680A431A631BE099
:1013DC007B681B68D96A3B685A6813469B001344A8
:1013EC00413B1F2202FA03F3DB4319403B681868A8
:1013FC003B685A6813469B001344413B00FA03F2C6
:10140C007B681B680A43DA623B681B68092B1CD992
:10141C007B681B68D9683B681A6813465B001344E9
:10142C001E3B072202FA03F3DB4319403B68986822
:10143C003B681A6813465B0013441E3B00FA03F228
:10144C007B681B680A43DA6019E07B681B681969C2
:10145C003B681A6813465B001344072202FA03F335
:10146C00DB4319403B6898683B681A6813465B007D
:10147C00134400FA03F27B681B680A431A613B6849
:10148C001B68102B03D03B681B68112B32D17B6877
:10149C001B681D4A934225D17B681B689B6803F42B
:1014AC000003002B26D17B681B689A687B681B683D
:1014BC0042F400029A603B681B68102B1AD1134B44
:1014CC001B68134AA2FB03239A0C13469B0013447C
:1014DC005B00BB6002E0BB68013BBB60BB68002BE0
:1014EC00F9D107E07B689B6A43F020027B689A6223
:1014FC000123FB737B68002283F82420FB7B1846B6
:10150C001437BD4680BC7047002401400400002005
:10151C0083DE1B4380B584B000AF78600023FB6092
:10152C000023BB607B681B689B6803F00103012BE5
:10153C0040D07B681B689A687B681B6842F001028C
:10154C009A601F4B1B681F4AA2FB03239B0CBB60BA
:10155C0002E0BB68013BBB60BB68002BF9D1FFF715
:10156C001DFBF8601FE0FFF719FB0246FB68D31A5E
:10157C00022B18D97B681B689B6803F00103012BB5
:10158C0011D07B689B6A43F010027B689A627B687F
:10159C00DB6A43F001027B68DA627B68002283F825
:1015AC002420012307E07B681B689B6803F0010380
:1015BC00012BD8D1002318461037BD4680BD00BF83
:1015CC000400002083DE1B4380B584B000AF78603C
:1015DC000023FB607B681B689B6803F00103012BF5
:1015EC002ED17B681B689A687B681B6822F001020D
:1015FC009A60FFF7D3FAF8601BE0FFF7CFFA0246C8
:10160C00FB68D31A022B14D97B681B689B6803F008
:10161C000103012B0DD17B689B6A43F010027B68A0
:10162C009A627B68DB6A43F001027B68DA62012311
:10163C0007E07B681B689B6803F00103012BDCD07F
:10164C00002318461037BD4680BD80B483B000AF70
:10165C00786000BF0C37BD4680BC704780B485B045
:10166C0000AF78607B6803F00703FB600C4BDB6812
:10167C00BB60BA684FF6FF031340BB60FB681A02ED
:10168C00BB68134343F0BF6343F40033BB60044AAD
:10169C00BB68D36000BF1437BD4680BC704700BF29
:1016AC0000ED00E080B400AF044BDB681B0A03F0D4
:1016BC0007031846BD4680BC704700BF00ED00E034
:1016CC0080B483B000AF0346FB7197F90730002B51
:1016DC000BDBFB7903F01F02064997F907305B0916
:1016EC00012000FA02F241F8232000BF0C37BD465E
:1016FC0080BC704700E100E080B483B000AF0346CB
:10170C003960FB7197F90730002B0ADB3B68DAB2C2
:10171C000C4997F907301201D2B20B4483F800231D
:10172C000AE03B68DAB20849FB7903F00F03043B8B
:10173C001201D2B20B441A7600BF0C37BD4680BCE6
:10174C00704700BF00E100E000ED00E080B489B01C
:10175C0000AFF860B9607A60FB6803F00703FB61C7
:10176C00FB69C3F10703042B28BF0423BB61FB698E
:10177C000433062B02D9FB69033B00E000237B6199
:10178C004FF0FF32BB6902FA03F3DA43BB681A402D
:10179C007B699A404FF0FF317B6901FA03F3D9431F
:1017AC007B680B40134318462437BD4680BC7047FA
:1017BC0080B582B000AF78607B68013BB3F1807F6D
:1017CC0001D301230FE00A4A7B68013B53600F21D0
:1017DC004FF0FF30FFF790FF054B00229A60044B4F
:1017EC0007221A60002318460837BD4680BD00BF8B
:1017FC0010E000E080B582B000AF78607868FFF749
:10180C002DFF00BF0837BD4680BD80B586B000AF48
:10181C000346B9607A60FB7300237B61FFF742FFDC
:10182C0078617A68B9687869FFF790FF024697F992
:10183C000F3011461846FFF75FFF00BF1837BD4643
:10184C0080BD80B582B000AF0346FB7197F90730BD
:10185C001846FFF735FF00BF0837BD4680BD80B581
:10186C0082B000AF78607868FFF7A2FF0346184695
:10187C000837BD4680BD000080B48BB000AF7860E7
:10188C00396000237B6200233B6248E101227B6AC2
:10189C0002FA03F3FB613B681B68FA691340BB61F6
:1018AC00BA69FB699A4240F037813B685B68A34A8E
:1018BC0093425ED0A14A934275D8A14A934258D024
:1018CC009F4A93426FD89F4A934252D09D4A93426B
:1018DC0069D89D4A93424CD09B4A934263D89B4A09
:1018EC00934246D0994A93425DD8122B2AD8122B98
:1018FC0059D801A252F823F07F1900085919000891
:10190C006B190008AD190008B3190008B3190008C9
:10191C00B3190008B3190008B3190008B31900086B
:10192C00B3190008B3190008B3190008B31900085B
:10193C00B3190008B3190008B3190008611900089D
:10194C0075190008824A934213D02CE03B68DB687F
:10195C003B6229E03B68DB6804333B6224E03B6874
:10196C00DB6808333B621FE03B68DB680C333B628F
:10197C001AE03B689B68002B02D104233B6213E006
:10198C003B689B68012B05D108233B627B68FA6995
:10199C001A6109E008233B627B68FA695A6103E02B
:1019AC0000233B6200E000BFBB69FF2B01D87B68C2
:1019BC0001E07B6804337B61BB69FF2B02D87B6A37
:1019CC009B0002E07B6A083B9B003B617B691A68C9
:1019DC000F213B6901FA03F3DB431A40396A3B6977
:1019EC0001FA03F31A437B691A603B685B6803F0E6
:1019FC008053002B00F09080564B9B69554A43F066
:101A0C0001039361534B9B6903F00103BB60BB68FB
:101A1C00514A7B6A9B08023352F82330FB607B6A85
:101A2C0003F003039B000F2202FA03F3DB43FA6873
:101A3C001340FB607B68494A93420DD07B68484A4F
:101A4C00934207D07B68474A934201D1022304E0BA
:101A5C00032302E0012300E000237A6A02F0030270
:101A6C0092009340FA681343FB603B497B6A9B08E6
:101A7C000233FA6841F823203B685B6803F4801357
:101A8C00002B06D0384B9A683749BB6913438B60DF
:101A9C0006E0354B9A68BB69DB43334913408B60D6
:101AAC003B685B6803F40013002B06D02E4BDA68FE
:101ABC002D49BB691343CB6006E02B4BDA68BB693D
:101ACC00DB4329491340CB603B685B6803F400336C
:101ADC00002B06D0244B5A682349BB6913434B6037
:101AEC0006E0214B5A68BB69DB431F4913404B602E
:101AFC003B685B6803F48033002B06D01A4B1A68E2
:101B0C001949BB6913430B6006E0174B1A68BB6994
:101B1C00DB43154913400B607B6A01337B623B68E6
:101B2C001A687B6A22FA03F3002B7FF4AFAE00BF76
:101B3C0000BF2C37BD4680BC704700BF0000321080
:101B4C0000003110000022100000211000001210C3
:101B5C00000011100010024000000140000801407C
:101B6C00000C0140001001400004014080B485B01D
:101B7C0000AF78600B467B807B689A687B8813404B
:101B8C00002B02D00123FB7301E00023FB73FB7BD2
:101B9C0018461437BD4680BC704780B483B000AF84
:101BAC0078600B467B8013467B707B78002B03D0D0
:101BBC007A887B681A6103E07B881A047B681A6157
:101BCC0000BF0C37BD4680BC704780B485B000AFF9
:101BDC0078600B467B807B68DB68FB607A88FB68EF
:101BEC0013401A04FB68D9437B880B401A437B686B
:101BFC001A6100BF1437BD4680BC704780B584B0F5
:101C0C0000AF78607B68002B01D101232BE17B684E
:101C1C0093F83D30DBB2002B06D17B68002283F8B1
:101C2C003C207868FEF798FE7B68242283F83D20E0
:101C3C007B681B681A687B681B6822F001021A60BB
:101C4C007B681B681A687B681B6842F400421A6048
:101C5C007B681B681A687B681B6822F400421A6058
:101C6C0001F030F8F8607B685B68814A934207D8D2
:101C7C00FB68804A934294BF01230023DBB206E049
:101C8C00FB687D4A934294BF01230023DBB2002BF7
:101C9C0001D00123E7E0FB68784AA2FB03239B0CED
:101CAC00BB607B681B685B6823F03F017B681B682B
:101CBC00BA680A435A607B681B681B6A23F03F01B1
:101CCC007B685B686A4A934202D8BB68013309E0BF
:101CDC00BB684FF4967202FB03F3694AA2FB032321
:101CEC009B0901337A6812680B4313627B681B688B
:101CFC00DB6923F44F4222F0FF027B685B685C498E
:101D0C008B4219D8FB68591E7B685B685B00B1FB82
:101D1C00F3F3591C40F6FC730B40002B0AD0FB6804
:101D2C00591E7B685B685B00B1FBF3F30133C3F3B3
:101D3C000B0351E004234FE07B689B68002B11D10F
:101D4C00FB68581E7B6859680B465B000B44B0FB64
:101D5C00F3F30133C3F30B03002B0CBF012300235C
:101D6C00DBB212E0FB68581E7B6859680B469B007F
:101D7C000B4499000B44B0FBF3F30133C3F30B0397
:101D8C00002B0CBF01230023DBB2002B01D001235D
:101D9C0022E07B689B68002B0ED1FB68581E7B6889
:101DAC0059680B465B000B44B0FBF3F30133C3F3F0
:101DBC000B0343F400430FE0FB68581E7B68596823
:101DCC000B469B000B4499000B44B0FBF3F301331F
:101DDC00C3F30B0343F44043796809681343CB61A5
:101DEC007B681B681B6823F0C0017B68DA697B6821
:101DFC001B6A1A437B681B680A431A607B681B6862
:101E0C009B6823F4034323F0FF037A6811697A6813
:101E1C00D26811437A6812680B4393607B681B6825
:101E2C00DB6823F0FF017B685A697B689B691A4366
:101E3C007B681B680A43DA607B681B681A687B68DE
:101E4C001B6842F001021A607B6800221A647B68EE
:101E5C00202283F83D207B6800221A637B680022D5
:101E6C0083F83E20002318461037BD4680BD00BFC6
:101E7C00A08601007F841E00FF083D0083DE1B430B
:101E8C00D34D621080B588B002AFF8607A601A4604
:101E9C000B467B8113463B81FEF780FE7861FB6825
:101EAC0093F83D30DBB2202B40F0E0807B6900934F
:101EBC00192301227049F86800F064F90346002BDD
:101ECC0001D00223D3E0FB6893F83C30012B01D105
:101EDC000223CCE0FB68012283F83C20FB681B68E2
:101EEC001B6803F00103012B07D0FB681B681A6801
:101EFC00FB681B6842F001021A60FB681B681A68D9
:101F0C00FB681B6822F400621A60FB68212283F8CC
:101F1C003D20FB68102283F83E20FB6800221A64E7
:101F2C00FB687A685A62FB683A895A85FB685B8D54
:101F3C009AB2FB681A85FB68504ADA6279897B6928
:101F4C003A6AF86800F09CF80346002B01D0012394
:101F5C008DE000233B61FB681B685B693B61FB68A0
:101F6C001B689B693B613B6966E07A69396AF86872
:101F7C0000F022FA0346002B0DD0FB681B6C042BDF
:101F8C0007D1FB681B681A68FB681B6842F4007277
:101F9C001A6001236BE0FB685B6A1A78FB681B68AC
:101FAC001A61FB685B6A5A1CFB685A62FB685B8DA2
:101FBC009BB2013B9AB2FB685A85FB681B8D013BB7
:101FCC009AB2FB681A85FB681B685B6903F0040313
:101FDC00042B1BD1FB681B8D002B17D0FB685B6A95
:101FEC001A78FB681B681A61FB685B6A5A1CFB68F1
:101FFC005A62FB685B8D9BB2013B9AB2FB685A85B7
:10200C00FB681B8D013B9AB2FB681A857A69396AA9
:10201C00F86800F019FA0346002B0DD0FB681B6C16
:10202C00042B07D1FB681B681A68FB681B6842F419
:10203C0000721A6001231AE0FB681B8D002B94D1EF
:10204C00FB681B681A68FB681B6842F400721A6014
:10205C00FB68202283F83D20FB68002283F83E2099
:10206C00FB68002283F83C20002300E00223184682
:10207C001837BD4680BD00BF020010000000FFFFF6
:10208C0080B588B002AFF8607A603B600B467B810C
:10209C00FB68DB6A7B617B69082B06D07B69012BB3
:1020AC0003D07B6913F5803F08D1FB681B681A6865
:1020BC00FB681B6842F480721A600BE0FB681B6BB8
:1020CC00122B07D1FB681B681A68FB681B6842F46B
:1020DC0080721A603B6800937B6800224FF00111FC
:1020EC00F86800F04FF80346002B0DD0FB681B6816
:1020FC001B6803F48073B3F5807F03D1FB684FF446
:10210C0000721A64032335E0FB681B69B3F5804F3A
:10211C0008D17B89DBB21A46FB681B6802F0FE0211
:10212C001A611BE07B89DB11DBB203F00603DBB227
:10213C0063F00F03DAB2FB681B681A613B687A68BC
:10214C000E49F86800F098F80346002B01D00123E3
:10215C0010E07B89DAB2FB681B681A613B687A680D
:10216C000749F86800F088F80346002B01D00123DA
:10217C0000E0002318461837BD4680BD080001005A
:10218C000200010080B584B000AFF860B9603B601C
:10219C001346FB7148E03B68B3F1FF3F44D0FEF7B8
:1021AC00FDFC0246BB69D31A3A689A4202D33B68DB
:1021BC00002B39D1BB681B0CDBB2012B0DD1FB689A
:1021CC001B685B69DA43BB6813409BB2002B0CBFE6
:1021DC0001230023DBB21A460CE0FB681B689B69E9
:1021EC00DA43BB6813409BB2002B0CBF01230023C6
:1021FC00DBB21A46FB799A4216D1FB6800221A63AD
:10220C00FB68202283F83D20FB68002283F83E20E7
:10221C00FB681B6C43F02002FB681A64FB6800220D
:10222C0083F83C20012323E0BB681B0CDBB2012BA1
:10223C000DD1FB681B685B69DA43BB6813409BB22A
:10224C00002B0CBF01230023DBB21A460CE0FB6809
:10225C001B689B69DA43BB6813409BB2002B0CBF15
:10226C0001230023DBB21A46FB799A4293D0002358
:10227C0018461037BD4680BD80B584B000AFF860FD
:10228C00B9607A603B6071E0FB681B685B6903F4C2
:10229C008063B3F5806F23D1FB681B681A68FB68F9
:1022AC001B6842F400721A60FB681B686FF4806252
:1022BC005A61FB6800221A63FB68202283F83D20D8
:1022CC00FB68002283F83E20FB681B6C43F0040281
:1022DC00FB681A64FB68002283F83C20012367E04A
:1022EC007B68B3F1FF3F41D0FEF758FC02463B68D8
:1022FC00D31A7A689A4202D37B68002B36D1BB681A
:10230C001B0CDBB2012B0CD1FB681B685B69DA433D
:10231C00BB6813409BB2002B14BF01230023DBB21C
:10232C000BE0FB681B689B69DA43BB6813409BB2EC
:10233C00002B14BF01230023DBB2002B16D0FB684B
:10234C0000221A63FB68202283F83D20FB680022E0
:10235C0083F83E20FB681B6C43F02002FB681A6478
:10236C00FB68002283F83C20012321E0BB681B0C96
:10237C00DBB2012B0CD1FB681B685B69DA43BB68D1
:10238C0013409BB2002B14BF01230023DBB20BE0E4
:10239C00FB681B689B69DA43BB6813409BB2002B3C
:1023AC0014BF01230023DBB2002B7FF46DAF00239D
:1023BC0018461037BD4680BD80B584B000AFF860BC
:1023CC00B9607A6034E0F86800F086F80346002BB8
:1023DC0001D0012334E0BB68B3F1FF3F28D0FEF7F6
:1023EC00DDFB02467B68D31ABA689A4202D3BB68FB
:1023FC00002B1DD1FB681B685B6903F08003802BED
:10240C0016D0FB6800221A63FB68202283F83D205B
:10241C00FB68002283F83E20FB681B6C43F0200213
:10242C00FB681A64FB68002283F83C20012307E058
:10243C00FB681B685B6903F08003802BC3D100230E
:10244C0018461037BD4680BD80B584B000AFF8602B
:10245C00B9607A6034E0F86800F03EF80346002B6F
:10246C0001D0012334E0BB68B3F1FF3F28D0FEF765
:10247C0095FB02467B68D31ABA689A4202D3BB68B2
:10248C00002B1DD1FB681B685B6903F00403042B54
:10249C0016D0FB6800221A63FB68202283F83D20CB
:1024AC00FB68002283F83E20FB681B6C43F0200283
:1024BC00FB681A64FB68002283F83C20012307E0C8
:1024CC00FB681B685B6903F00403042BC3D1002376
:1024DC0018461037BD4680BD80B483B000AF78601D
:1024EC007B681B685B6903F48063B3F5806F1BD159
:1024FC007B681B686FF480625A617B6800221A63E8
:10250C007B68202283F83D207B68002283F83E20E4
:10251C007B681B6C43F004027B681A647B680022A6
:10252C0083F83C20012300E0002318460C37BD46FD
:10253C0080BC704780B586B000AF78607B68002B9C
:10254C0001D101236CE27B681B6803F00103002BB3
:10255C0000F08780924B5B6803F00C03042B0CD0CB
:10256C008F4B5B6803F00C03082B12D18C4B5B6810
:10257C0003F48033B3F5803F0BD1894B1B6803F414
:10258C000033002B6CD07B685B68002B68D1012377
:10259C0046E27B685B68B3F5803F06D1804B1B68D5
:1025AC007F4A43F4803313602EE07B685B68002B1A
:1025BC000CD17B4B1B687A4A23F480331360784B25
:1025CC001B68774A23F4802313601DE07B685B68EB
:1025DC00B3F5A02F0CD1724B1B68714A43F48023C6
:1025EC0013606F4B1B686E4A43F4803313600BE02F
:1025FC006B4B1B686A4A23F480331360684B1B686F
:10260C00674A23F4802313607B685B68002B13D02C
:10261C00FEF7C4FA386108E0FEF7C0FA02463B69DF
:10262C00D31A642B01D90323FAE15D4B1B6803F425
:10263C000033002BF0D014E0FEF7B0FA386108E05C
:10264C00FEF7ACFA02463B69D31A642B01D903237B
:10265C00E6E1534B1B6803F40033002BF0D100E090
:10266C0000BF7B681B6803F00203002B63D04C4B4C
:10267C005B6803F00C03002B0BD0494B5B6803F039
:10268C000C03082B1CD1464B5B6803F48033002BE6
:10269C0016D1434B1B6803F00203002B05D07B685B
:1026AC001B69012B01D00123BAE13D4B1B6823F0C0
:1026BC00F8027B685B69DB00394913430B603AE035
:1026CC007B681B69002B20D0364B01221A60FEF769
:1026DC0065FA386108E0FEF761FA02463B69D31AE5
:1026EC00022B01D903239BE12D4B1B6803F0020342
:1026FC00002BF0D02A4B1B6823F0F8027B685B6937
:10270C00DB00274913430B6015E0264B00221A60AF
:10271C00FEF744FA386108E0FEF740FA02463B69DE
:10272C00D31A022B01D903237AE11D4B1B6803F04A
:10273C000203002BF0D17B681B6803F00803002B0D
:10274C003AD07B689B69002B19D0174B01221A6079
:10275C00FEF724FA386108E0FEF720FA02463B69DE
:10276C00D31A022B01D903235AE10D4B5B6A03F0F8
:10277C000203002BF0D0012000F0CCFA1CE00A4B35
:10278C0000221A60FEF70AFA38610FE0FEF706FA2B
:10279C0002463B69D31A022B08D9032340E100BF40
:1027AC000010024000004242800442429E4B5B6A91
:1027BC0003F00203002BE9D17B681B6803F00403D0
:1027CC00002B00F0A6800023FB75974BDB6903F010
:1027DC008053002B0DD1944BDB69934A43F080530B
:1027EC00D361914BDB6903F08053BB60BB68012361
:1027FC00FB758E4B1B6803F48073002B18D18B4B2D
:10280C001B688A4A43F480731360FEF7C7F938617A
:10281C0008E0FEF7C3F902463B69D31A642B01D9D1
:10282C000323FDE0814B1B6803F48073002BF0D075
:10283C007B68DB68012B06D17B4B1B6A7A4A43F021
:10284C00010313622DE07B68DB68002B0CD1764B07
:10285C001B6A754A23F001031362734B1B6A724A9D
:10286C0023F0040313621CE07B68DB68052B0CD19E
:10287C006D4B1B6A6C4A43F0040313626A4B1B6A70
:10288C00694A43F0010313620BE0674B1B6A664A0B
:10289C0023F001031362644B1B6A634A23F00403A5
:1028AC0013627B68DB68002B15D0FEF777F9386173
:1028BC000AE0FEF773F902463B69D31A41F28832FB
:1028CC00934201D90323ABE0574B1B6A03F002037D
:1028DC00002BEED014E0FEF761F938610AE0FEF748
:1028EC005DF902463B69D31A41F28832934201D911
:1028FC00032395E04C4B1B6A03F00203002BEED133
:10290C00FB7D012B05D1484BDB69474A23F08053F3
:10291C00D3617B68DB69002B00F08180424B5B68E4
:10292C0003F00C03082B61D07B68DB69022B46D1CA
:10293C003F4B00221A60FEF731F9386108E0FEF7D0
:10294C002DF902463B69D31A022B01D9032367E008
:10295C00354B1B6803F00073002BF0D17B681B6AAE
:10296C00B3F5803F08D1304B5B6823F400327B68B1
:10297C009B682D4913434B602B4B5B6823F47412FB
:10298C007B68196A7B685B6A0B43274913434B606E
:10299C00274B01221A60FEF701F9386108E0FEF7B7
:1029AC00FDF802463B69D31A022B01D9032337E009
:1029BC001D4B1B6803F00073002BF0D02FE01C4B59
:1029CC0000221A60FEF7EAF8386108E0FEF7E6F834
:1029DC0002463B69D31A022B01D9032320E0124B88
:1029EC001B6803F00073002BF0D118E07B68DB69E7
:1029FC00012B01D1012313E00B4B5B68FB60FB68DF
:102A0C0003F480327B681B6A9A4206D1FB6803F49C
:102A1C0070127B685B6A9A4201D0012300E00023AC
:102A2C0018461837BD4680BD0010024000700040AB
:102A3C006000424280B584B000AF786039607B683A
:102A4C00002B01D10123D0E06A4B1B6803F0070374
:102A5C003A689A4210D9674B1B6823F00702654904
:102A6C003B6813430B60634B1B6803F007033A6826
:102A7C009A4201D00123B8E07B681B6803F0020383
:102A8C00002B20D07B681B6803F00403002B05D0BF
:102A9C00594B5B68584A43F4E06353607B681B688E
:102AAC0003F00803002B05D0534B5B68524A43F4E8
:102ABC0060535360504B5B6823F0F0027B689B685B
:102ACC004D4913434B607B681B6803F00103002BDB
:102ADC0040D07B685B68012B07D1474B1B6803F424
:102AEC000033002B15D101237FE07B685B68022B40
:102AFC0007D1414B1B6803F00073002B09D1012354
:102B0C0073E03D4B1B6803F00203002B01D1012342
:102B1C006BE0394B5B6823F003027B685B683649DA
:102B2C0013434B60FEF73AF8F8600AE0FEF736F80C
:102B3C000246FB68D31A41F28832934201D903232F
:102B4C0053E02D4B5B6803F00C027B685B689B00C9
:102B5C009A42EBD1274B1B6803F007033A689A4261
:102B6C0010D2244B1B6823F0070222493B68134305
:102B7C000B60204B1B6803F007033A689A4201D0A4
:102B8C00012332E07B681B6803F00403002B08D0A0
:102B9C00194B5B6823F4E0627B68DB6816491343CE
:102BAC004B607B681B6803F00803002B09D0124BA9
:102BBC005B6823F460527B681B69DB000E4913438E
:102BCC004B6000F021F802460B4B5B681B0903F0CD
:102BDC000F030A49CB5C22FA03F3094A1360094B31
:102BEC001B681846FDF798FF002318461037BD46A2
:102BFC0080BD00BF00200240001002405C3800087D
:102C0C00040000200800002080B487B000AF00232F
:102C1C00FB600023BB6000237B6100237B600023EF
:102C2C003B611E4B5B68FB60FB6803F00C03042BE1
:102C3C0002D0082B03D027E0194B3B6127E0FB683F
:102C4C009B0C03F00F03174AD35C7B60FB6803F407
:102C5C008033002B10D0114B5B685B0C03F001032D
:102C6C00114AD35CBB607B680D4A02FB03F2BB6864
:102C7C00B2FBF3F37B6104E07B680C4A02FB03F3C9
:102C8C007B617B693B6102E0054B3B6100BF3B69AB
:102C9C0018461C37BD4680BC704700BF0010024070
:102CAC0000127A00743800088438000800093D00CE
:102CBC0080B400AF024B1B681846BD4680BC704701
:102CCC000400002080B500AFFFF7F2FF0246054B71
:102CDC005B681B0A03F007030349CB5C22FA03F37E
:102CEC00184680BD001002406C38000880B500AF5B
:102CFC00FFF7DEFF0246054B5B68DB0A03F00703B8
:102D0C000349CB5C22FA03F3184680BD0010024045
:102D1C006C38000880B485B000AF78600A4B1B6833
:102D2C000A4AA2FB03235B0A7A6802FB03F3FB60EB
:102D3C0000BFFB685A1EFA60002BF9D100BF00BF20
:102D4C001437BD4680BC704704000020D34D621080
:102D5C0080B586B000AF786000233B610023FB6038
:102D6C007B681B6803F00103002B7DD00023FB75EF
:102D7C004F4BDB6903F08053002B0DD14C4BDB69BF
:102D8C004B4A43F08053D361494BDB6903F08053CA
:102D9C00BB60BB680123FB75464B1B6803F4807357
:102DAC00002B18D1434B1B68424A43F480731360C9
:102DBC00FDF7F4FE386108E0FDF7F0FE02463B69D2
:102DCC00D31A642B01D903236DE03A4B1B6803F42F
:102DDC008073002BF0D0364B1B6A03F44073FB60FE
:102DEC00FB68002B2ED07B685B6803F44073FA6899
:102DFC009A4227D02E4B1B6A23F44073FB602E4B58
:102E0C0001221A602C4B00221A60294AFB681362BB
:102E1C00FB6803F00103002B14D0FDF7BFFE3861F3
:102E2C000AE0FDF7BBFE02463B69D31A41F2883239
:102E3C00934201D9032336E01D4B1B6A03F00203B6
:102E4C00002BEED01A4B1B6A23F440727B685B6834
:102E5C00174913430B62FB7D012B05D1144BDB6926
:102E6C00134A23F08053D3617B681B6803F0020381
:102E7C00002B08D00E4B5B6823F440427B689B68A8
:102E8C000B4913434B607B681B6803F01003002B4A
:102E9C0008D0074B5B6823F480027B68DB6804492D
:102EAC0013434B60002318461837BD4680BD00BF46
:102EBC0000100240007000404004424280B588B0CF
:102ECC0000AF786000237B610023FB6100233B6132
:102EDC000023FB600023BB617B68102B0AD07B684E
:102EEC00102B00F28A807B68012B45D07B68022B6B
:102EFC0075D082E0464B5B68FB60454B1B6803F06A
:102F0C008073002B7BD0FB689B0C03F00F03414AB2
:102F1C00D35C3B61FB6803F48033002B15D03C4B36
:102F2C005B685B0C03F001033B4AD35C7B61FB6881
:102F3C0003F48033002B0DD0384A7B69B2FBF3F2DB
:102F4C003B6902FB03F3FB6104E03B69344A02FB7F
:102F5C0003F3FB612E4B5B6803F48003B3F5800F26
:102F6C0002D1FB69BB614AE0FB695B002D4AA2FB05
:102F7C0003235B08BB6142E0254B1B6AFB60FB68CB
:102F8C0003F44073B3F5807F08D1FB6803F00203B0
:102F9C00002B03D04FF40043BB611FE0FB6803F42C
:102FAC004073B3F5007F09D1194B5B6A03F0020340
:102FBC00002B03D049F64043BB610FE0FB6803F4E0
:102FCC004073B3F5407F1CD1114B1B6803F40033E5
:102FDC00002B16D04FF22443BB6112E011E0FFF737
:102FEC0085FE02460A4B5B689B0B03F0030301331F
:102FFC005B00B2FBF3F3BB6104E000BF02E000BF77
:10300C0000E000BFBB6918462037BD4680BD00BF3D
:10301C0000100240883800089838000800127A0026
:10302C0000093D00ABAAAAAA80B582B000AF7860B7
:10303C007B68002B01D1012341E07B6893F83D3084
:10304C00DBB2002B06D17B68002283F83C20786829
:10305C00FDF7C0FC7B68022283F83D207B681A6870
:10306C007B6804331946104600F056FA7B6801223F
:10307C0083F846207B68012283F83E207B6801227E
:10308C0083F83F207B68012283F840207B68012273
:10309C0083F841207B68012283F842207B6801225F
:1030AC0083F843207B68012283F844207B6801224B
:1030BC0083F845207B68012283F83D2000231846C5
:1030CC000837BD4680BD000080B485B000AF786085
:1030DC007B6893F83D30DBB2012B01D0012335E046
:1030EC007B68022283F83D207B681B68DA687B686A
:1030FC001B6842F00102DA607B681B68164A934237
:10310C0009D07B681B68B3F1804F04D07B681B68C7
:10311C00124A934211D17B681B689B6803F007032A
:10312C00FB60FB68062B10D07B681B681A687B68F9
:10313C001B6842F001021A6007E07B681B681A6882
:10314C007B681B6842F001021A6000231846143792
:10315C00BD4680BC704700BF002C014000040040FD
:10316C0080B584B000AF78607B681B68DB68FB605F
:10317C007B681B681B69BB60BB6803F00203002BF8
:10318C0020D0FB6803F00203002B1BD07B681B686C
:10319C006FF002021A617B6801221A777B681B6848
:1031AC009B6903F00303002B03D0786800F098F9B7
:1031BC0005E0786800F08BF9786800F09AF97B6884
:1031CC0000221A77BB6803F00403002B20D0FB68A5
:1031DC0003F00403002B1BD07B681B686FF0040208
:1031EC001A617B6802221A777B681B689B6903F45F
:1031FC004073002B03D0786800F072F905E0786812
:10320C0000F065F9786800F074F97B6800221A7791
:10321C00BB6803F00803002B20D0FB6803F0080305
:10322C00002B1BD07B681B686FF008021A617B684F
:10323C0004221A777B681B68DB6903F00303002BFD
:10324C0003D0786800F04CF905E0786800F03FF99D
:10325C00786800F04EF97B6800221A77BB6803F09F
:10326C001003002B20D0FB6803F01003002B1BD0A5
:10327C007B681B686FF010021A617B6808221A7752
:10328C007B681B68DB6903F44073002B03D0786800
:10329C0000F026F905E0786800F019F9786800F07C
:1032AC0028F97B6800221A77BB6803F00103002B16
:1032BC000CD0FB6803F00103002B07D07B681B6864
:1032CC006FF001021A617868FDF728FABB6803F009
:1032DC008003002B0CD0FB6803F08003002B07D07D
:1032EC007B681B686FF080021A61786800F06FFAD7
:1032FC00BB6803F04003002B0CD0FB6803F04003C9
:10330C00002B07D07B681B686FF040021A6178684D
:10331C0000F0F8F8BB6803F02003002B0CD0FB681E
:10332C0003F02003002B07D07B681B686FF0200292
:10333C001A61786800F042FA00BF1037BD4680BDB4
:10334C0080B584B000AF786039600023FB737B6874
:10335C0093F83C30012B01D10223B4E07B680122AD
:10336C0083F83C207B68022283F83D207B681B6835
:10337C009B68BB60BB6823F07703BB60BB6823F41E
:10338C007F43BB607B681B68BA689A603B681B68AC
:10339C00B3F5005F3ED0B3F5005F00F28780B3F564
:1033AC00805F00F08680B3F5805F7FD8702B1AD0D9
:1033BC00702B7BD8602B50D0602B77D8502B3CD007
:1033CC00502B73D8402B58D0402B6FD8302B64D057
:1033DC00302B6BD8202B60D0202B67D8002B5CD0E7
:1033EC00102B5AD062E07B6818683B6899683B6880
:1033FC005A683B68DB6800F06AF97B681B689B685D
:10340C00BB60BB6843F07703BB607B681B68BA6822
:10341C009A604FE07B6818683B6899683B685A680B
:10342C003B68DB6800F053F97B681B689A687B6823
:10343C001B6842F480429A603CE07B6818683B68E9
:10344C0059683B68DB681A4600F0CAF87B681B6851
:10345C005021184600F021F92CE07B6818683B6875
:10346C0059683B68DB681A4600F0E8F87B681B6813
:10347C006021184600F011F91CE07B6818683B6865
:10348C0059683B68DB681A4600F0AAF87B681B6831
:10349C004021184600F001F90CE07B681A683B6883
:1034AC001B681946104600F0F8F803E00123FB7383
:1034BC0000E000BF7B68012283F83D207B6800227E
:1034CC0083F83C20FB7B18461037BD4680BD80B48A
:1034DC0083B000AF786000BF0C37BD4680BC70472E
:1034EC0080B483B000AF786000BF0C37BD4680BCA1
:1034FC00704780B483B000AF786000BF0C37BD4616
:10350C0080BC704780B483B000AF786000BF0C37CC
:10351C00BD4680BC7047000080B485B000AF7860B9
:10352C0039607B681B68FB607B682B4A934207D031
:10353C007B68B3F1804F03D07B68284A934208D153
:10354C00FB6823F07003FB603B685B68FA6813430D
:10355C00FB607B68204A934207D07B68B3F1804FB5
:10356C0003D07B681D4A934208D1FB6823F4407357
:10357C00FB603B68DB68FA681343FB60FB6823F075
:10358C0080023B685B691343FB607B68FA681A60D6
:10359C003B689A687B68DA623B681A687B689A6257
:1035AC007B680D4A934203D13B681A697B681A63A6
:1035BC007B6801225A617B681B6903F00103002BB5
:1035CC0005D07B681B6923F001027B681A6100BF80
:1035DC001437BD4680BC7047002C014000040040ED
:1035EC0080B487B000AFF860B9607A60FB681B6A82
:1035FC007B61FB681B6A23F00102FB681A62FB68A3
:10360C009B693B613B6923F0F0033B617B681B01C9
:10361C003A6913433B617B6923F00A037B617A6946
:10362C00BB6813437B61FB683A699A61FB687A69F2
:10363C001A6200BF1C37BD4680BC704780B487B08F
:10364C0000AFF860B9607A60FB681B6A7B61FB684D
:10365C001B6A23F01002FB681A62FB689B693B61D2
:10366C003B6923F470433B617B681B033A6913434A
:10367C003B617B6923F0A0037B61BB681B017A690A
:10368C0013437B61FB683A699A61FB687A691A6239
:10369C0000BF1C37BD4680BC704780B485B000AFFE
:1036AC00786039607B689B68FB60FB6823F0700373
:1036BC00FB603A68FB68134343F00703FB607B68CD
:1036CC00FA689A6000BF1437BD4680BC704780B45E
:1036DC0087B000AFF860B9607A603B60FB689B68AC
:1036EC007B617B6923F47F437B613B681A027B68B7
:1036FC001A43BB6813437A6913437B61FB687A698D
:10370C009A6000BF1C37BD4680BC704780B485B042
:10371C0000AF786039607B6893F83C30012B01D1A5
:10372C00022341E07B68012283F83C207B68022263
:10373C0083F83D207B681B685B68FB607B681B68BB
:10374C009B68BB60FB6823F07003FB603B681B68E5
:10375C00FA681343FB607B681B68FA685A607B68E5
:10376C001B68144A934209D07B681B68B3F1804FE5
:10377C0004D07B681B68104A93420CD1BB6823F0C1
:10378C008003BB603B685B68BA681343BB607B68B3
:10379C001B68BA689A607B68012283F83D207B68BD
:1037AC00002283F83C20002318461437BD4680BC09
:1037BC00704700BF002C01400004004080B483B06F
:1037CC0000AF786000BF0C37BD4680BC704780B43A
:1037DC0083B000AF786000BF0C37BD4680BC70472B
:1037EC0070B500260C4D0D4C641BA410A64209D1DB
:1037FC0000F022F800260A4D0A4C641BA410A642C5
:10380C0005D170BD55F8043B98470136EEE755F8E5
:10381C00043B98470136F2E79C3800089C380008B6
:10382C009C380008A038000803460244934200D19B
:10383C00704703F8011BF9E7F8B500BFF8BC08BCEA
:10384C009E467047F8B500BFF8BC08BC9E46704752
:10385C000000000000000000010203040607080934
:10386C000000000001020304020304050607080916
:10387C000A0B0C0D0E0F10100102000002030405C0
:10388C00060708090A0B0C0D0E0F101001020000A0
:04389C0031010008EE
:0438A0000D0100080E
:1038A4000100000000127A00100000000100000076
:0400000508000AAD38
:00000001FF
