:020000040800F2
:1000000000280020A11100081D110008231100087C
:10001000291100082F110008351100080000000008
:100020000000000000000000000000003B1100087C
:100030004711000800000000531100085F1100087C
:10004000E9110008E9110008E9110008E9110008A8
:10005000E9110008E9110008E9110008E911000898
:10006000E9110008E9110008E9110008E911000888
:10007000E9110008E9110008E9110008E911000878
:10008000E9110008E91100086D110008E9110008E4
:10009000E9110008E9110008E9110008E911000858
:1000A000E9110008E9110008E9110008E911000848
:1000B00081110008E911000800000000E9110008A2
:1000C000E91100080000000000000000E91100082C
:1000D00000000000E9110008E9110008000000001C
:1000E000E9110008E9110008E9110008000000000A
:1000F0000000000000000000000000000000000000
:0C01000000000000000000005FF808F1A3
:10010C0010B5054C237833B9044B13B10448AFF345
:10011C0000800123237010BD34000020000000007B
:10012C00283B000808B5034B1BB103490348AFF348
:10013C00008008BD0000000038000020283B0008AB
:10014C0080B483B000AF00237B6047E028497A6815
:10015C001346DB009B1A9B000B4401221A602449B6
:10016C007A681346DB009B1A9B000B440433012274
:10017C001A601F497A681346DB009B1A9B000B44DC
:10018C00083301221A601A497A681346DB009B1A5D
:10019C009B000B440C3301221A6015497A681346F4
:1001AC00DB009B1A9B000B44103332221A6010495F
:1001BC007A681346DB009B1A9B000B441433002215
:1001CC001A600B497A681346DB009B1A9B000B44A0
:1001DC00183300221A607B6801337B607B68032B29
:1001EC00B4DD00BF00BF0C37BD4680BC704700BFFC
:1001FC005800002080B483B000AF78600E497A6854
:10020C001346DB009B1A9B000B4414331B68012B19
:10021C000BD109497A681346DB009B1A9B000B44EF
:10022C00143300221A60012300E0002318460C3717
:10023C00BD4680BC704700BF5800002080B582B01E
:10024C0000AF00237B60E7E078497A681346DB0057
:10025C009B1A9B000B440433196874487A68134644
:10026C00DB009B1A9B000344083319606F497A68C2
:10027C001346DB009B1A9B000B4419686B487A6889
:10028C001346DB009B1A9B00034404331960684A35
:10029C007B6852F8232067497B6831F81330194684
:1002AC00104601F09FFE0346184660497A681346D3
:1002BC00DB009B1A9B000B4418605C497A68134660
:1002CC00DB009B1A9B000B440433196857487A686F
:1002DC001346DB009B1A9B0003441B68994240F0B9
:1002EC00988052497A681346DB009B1A9B000B449A
:1002FC00043319684D487A681346DB009B1A9B003F
:10030C00034408331B68994240F0838047497A685C
:10031C001346DB009B1A9B000B44083319684348B7
:10032C007A681346DB009B1A9B0003440C331B6852
:10033C00994231D03D497A681346DB009B1A9B00E9
:10034C000B440833196839487A681346DB009B1A4A
:10035C009B0003440C33196034497A681346DB0064
:10036C009B1A9B000B440C331B68002B51D12F495B
:10037C007A681346DB009B1A9B000B441033322225
:10038C001A602A497A681346DB009B1A9B000B44BF
:10039C00143301221A603CE024497A681346DB00CE
:1003AC009B1A9B000B4410331B68591E1F487A681C
:1003BC001346DB009B1A9B000344103319601B4946
:1003CC007A681346DB009B1A9B000B4410331B68A6
:1003DC00002B1ED115497A681346DB009B1A9B0033
:1003EC000B44103332221A6010497A681346DB0032
:1003FC009B1A9B000B440C331B68002B09D10B4937
:10040C007A681346DB009B1A9B000B4414330122C1
:10041C001A607B6801337B607B68032B7FF714AF1A
:10042C0000BF00BF0837BD4680BD00BF580000208C
:10043C00000000201000002080B500AF01228021B8
:10044C00044801F0E6FD00228021024801F0E1FDA4
:10045C0000BF80BD0008014080B500AF01224021E3
:10046C00044801F0D6FD00224021024801F0D1FDE4
:10047C0000BF80BD0008014080B584B000AF0346CA
:10048C00FB710723FB6011E0FA79FB6842FA03F376
:10049C00DBB203F00103DBB21A460121074801F07D
:1004AC00B8FDFFF7C9FFFB68013BFB60FB68002B45
:1004BC00EADA00BF00BF1037BD4680BD000C01401A
:1004CC0080B582B000AF0346FB710B46BB7113467F
:1004DC007B71002240210A4801F09BFDFB791846F4
:1004EC00FFF7CAFFBB791846FFF7C6FF7B791846A2
:1004FC00FFF7C2FFFFF7B0FF00BF0837BD4680BD56
:10050C000008014080B483B000AF0346FB71FB7957
:10051C00DB43DBB203F07F03DBB218460C37BD467E
:10052C0080BC7047B0B582B000AF144B1B68144A46
:10053C00D35CFB71114B5B68114AD35CBB710F4BE5
:10054C009B680F4AD35C7B717B791846FFF7DAFF07
:10055C0003461C46BB791846FFF7D4FF03461D46DD
:10056C00FB791846FFF7CEFF03461A46294620466C
:10057C00FFF7A6FF00BF0837BD46B0BD180000202E
:10058C001C3C000880B500AF00F082F800BF80BDB5
:10059C0080B500AF002220210A4801F03AFD00F09E
:1005AC00C3F80321012000F0C9F8074800F0A7F8B0
:1005BC000221022000F0C2F8044800F0A0F800BFAD
:1005CC0080BD00BF00080140403B00084C3B0008C8
:1005DC0080B586B002AF0346FB71FB7923F00F03A5
:1005EC00FB73FB791B01BB73FB7B43F00C03DBB28E
:1005FC003B72FB7B43F00803DBB27B72BB7B43F0AB
:10060C000C03DBB2BB72BB7B43F00803DBB2FB72A7
:10061C0007F108026423009304234E21034801F0E0
:10062C006DFE00BF1037BD4680BD00BFC800002066
:10063C0080B586B002AF0346FB71FB7923F00F0344
:10064C00FB73FB791B01BB73FB7B43F00D03DBB22C
:10065C003B72FB7B43F00903DBB27B72BB7B43F049
:10066C000D03DBB2BB72BB7B43F00903DBB2FB7245
:10067C0007F108026423009304234E21034801F080
:10068C003DFE00BF1037BD4680BD00BFC800002036
:10069C0080B500AF322000F005FE3020FFF798FF48
:1006AC00052000F0FFFD3020FFF792FF052000F041
:1006BC00F9FD3020FFF78CFF052000F0F3FD202022
:1006CC00FFF786FF052000F0EDFD2820FFF780FFE7
:1006DC00012000F0E7FD0C20FFF77AFF012000F06D
:1006EC00E1FD0620FFF774FF012000F0DBFD012087
:1006FC00FFF76EFF022000F0D5FD00BF80BD80B576
:10070C0082B000AF786006E07B685A1C7A601B7878
:10071C001846FFF78DFF7B681B78002BF4D100BFC8
:10072C0000BF0837BD4680BD80B500AF0120FFF784
:10073C004FFF022000F0B6FD00BF80BD80B584B035
:10074C0000AF786039607B68032B1FD801A252F888
:10075C0023F000BF710700087B070008850700081D
:10076C008F0700083B68DBB2803BFB7311E03B68F2
:10077C00DBB2403BFB730CE03B68DBB26C3BFB73C6
:10078C0007E03B68DBB22C3BFB7302E08023FB737E
:10079C0000BFFB7B1846FFF71BFF00BF1037BD46A1
:1007AC0080BD00BF80B500AF804B1B68042B00F2EE
:1007BC00ED8001A252F823F0D90700080D080008BB
:1007CC0095080008ED08000845090008FFF7E0FE51
:1007DC00774B09221A60764B09225A60744B092216
:1007EC009A60FFF79FFE0020FFF704FD0346012BE4
:1007FC0040F0D08000F0ECFA6C4B01221A60C9E09A
:10080C000120FFF7F7FC0346012B13D1694B1B6842
:10081C00012B0FD0654B1B68012B0BD1654B0122B3
:10082C001A6040F6B831022000F036FB6421032038
:10083C0000F032FB5F4B1B68012B01D100F0DEFA9C
:10084C00022000F049FB0346012B04D1594B002236
:10085C001A60FFF767FE0020FFF7CCFC0346012B64
:10086C0040F09A80524B00221A60514B00225A6081
:10087C004F4B02229A60FFF755FE4E4B00221A6036
:10088C004A4B02221A6087E00120FFF7B3FC0346B3
:10089C00012B10D100F0ECFA0346454A136000F02E
:1008AC00E7FA0346424A536000F0E2FA0346404A34
:1008BC009360FFF737FE0020FFF79CFC0346012BEB
:1008CC006CD13B4B00221A60394B00225A60384BDA
:1008DC0003229A60FFF726FE344B03221A605DE078
:1008EC000120FFF787FC0346012B10D100F0C0FA62
:1008FC0003462F4A136000F0BBFA03462C4A5360A0
:10090C0000F0B6FA03462A4A9360FFF70BFE00206C
:10091C00FFF770FC0346012B42D1254B00221A60D5
:10092C00234B00225A60224B04229A60FFF7FAFDF7
:10093C001E4B04221A6033E00120FFF75BFC0346D8
:10094C00012B10D100F094FA0346194A136000F001
:10095C008FFA0346164A536000F08AFA0346144A8B
:10096C009360FFF7DFFD0020FFF744FC0346012BEB
:10097C0018D10F4B00221A600D4B00225A600C4B01
:10098C0000229A60094B00221A600BE0074B0022F0
:10099C001A6008E000BF06E000BF04E000BF02E000
:1009AC0000BF00E000BF00BF80BD00BF50000020B2
:1009BC00180000205400002080B500AF00F010FC9F
:1009CC00FFF7BEFB642000F06DFC00F05FF800F058
:1009DC006BF900F01DF900F0AFF800F0EBF82548CA
:1009EC0002F0E4FC244800F059FDFFF7CBFD012296
:1009FC002021224801F00DFBFFF796FE002100207C
:100A0C00FFF79CFE1E48FFF77AFE00210120FFF73E
:100A1C0095FE1C48FFF773FE4FF4FA6000F042FCA1
:100A2C004FF47A71002000F037FA6421012000F0B5
:100A3C0033FA6421022000F02FFA002000F04CFA67
:100A4C000346012B09D14FF400510F4801F0F9FA7C
:100A5C004FF47A71002000F01FFA012000F03CFAEC
:100A6C000346012BE9D1FFF79DFE0A21012000F07E
:100A7C0013FAE2E74C0100201C01002000080140A1
:100A8C00003C0008103C00080010014080B594B0F8
:100A9C0000AF07F1280328220021184603F036F88E
:100AAC0007F1140300221A605A609A60DA601A6126
:100ABC003B1D00221A605A609A60DA600223BB6206
:100ACC000123BB631023FB6302237B640023BB6401
:100ADC000023FB6407F12803184601F067FF034667
:100AEC00002B01D000F06EF90F237B610223BB6158
:100AFC000023FB614FF480633B6200237B6207F1B0
:100B0C0014030021184602F0D1F90346002B01D042
:100B1C0000F058F902237B604FF40043FB603B1D4F
:100B2C00184602F03DFB0346002B01D000F04AF9B9
:100B3C0000BF5037BD4680BD80B584B000AF3B1DB3
:100B4C0000221A605A609A60184B194A1A60174BA7
:100B5C0000229A60154B01221A73144B00221A754D
:100B6C00124B4FF46022DA61104B00225A600F4B8B
:100B7C0001221A610D4800F0B9FB0346002B01D08D
:100B8C0000F020F900237B600123BB600023FB6095
:100B9C003B1D1946054800F001FE0346002B01D011
:100BAC0000F010F900BF1037BD4680BD1C010020BD
:100BBC000024014080B500AF124B134A1A60114B50
:100BCC00124A5A600F4B00229A600E4B0022DA60D8
:100BDC000C4B4FF480421A610A4B00225A61094BAC
:100BEC0000229A61074B0022DA61064B00221A623E
:100BFC00044801F03FFA0346002B01D000F0E2F864
:100C0C0000BF80BDC800002000540040A086010039
:100C1C0080B586B000AF07F1080300221A605A6055
:100C2C009A60DA603B4600221A605A601D4B4FF006
:100C3C0080421A601B4B41F63F725A60194B0022DE
:100C4C009A60184B0922DA60164B00221A61154B78
:100C5C0000229A61134802F059FB0346002B01D085
:100C6C0000F0B0F84FF48053BB6007F1080319464D
:100C7C000C4802F0D7FC0346002B01D000F0A2F880
:100C8C0000233B6000237B603B461946054802F07D
:100C9C00AFFE0346002B01D000F094F800BF1837CC
:100CAC00BD4680BD4C01002080B588B000AF07F177
:100CBC00100300221A605A609A60DA60374B9B6905
:100CCC00364A43F010039361344B9B6903F01003D5
:100CDC00FB60FB68314B9B69304A43F00403936122
:100CEC002E4B9B6903F00403BB60BB682B4B9B69C9
:100CFC002A4A43F008039361284B9B6903F00803CD
:100D0C007B607B6800224FF40051254801F081F98B
:100D1C000022EE21234801F07CF900220121224817
:100D2C0001F077F94FF400533B6101237B61002301
:100D3C00BB610223FB6107F110031946184800F050
:100D4C00D7FFEE233B6101237B610023BB610223B0
:100D5C00FB6107F110031946124800F0C9FF01238B
:100D6C003B6101237B610023BB610223FB6107F123
:100D7C00100319460C4800F0BBFF4FF4C0633B61F5
:100D8C0000237B610123BB6107F110031946054861
:100D9C0000F0AEFF00BF2037BD4680BD0010024002
:100DAC000010014000080140000C014080B582B0E9
:100DBC0000AF786000F0A4F8FFF740FA00BF0837E6
:100DCC00BD4680BD80B400AF72B600BFFEE7000028
:100DDC0080B500AF074B00221A60064B00225A6008
:100DEC00044B01229A60FFF79DFB034B01221A6012
:100DFC0000BF80BD180000205000002080B500AF5F
:100E0C0000F036F803460D4A136000F031F8034643
:100E1C000A4A536000F02CF80346084A93600320FA
:100E2C0000F05AF80346012B05D1FFF77BFB782124
:100E3C00032000F031F800BF80BD00BF1800002077
:100E4C0080B400AF084B1B68084A02FB03F303F5A0
:100E5C0040533933044A1360034B1B681B0C184670
:100E6C00BD4680BC704700BF240000206D4EC641BB
:100E7C0080B500AFFFF7E4FF0146064BA3FB01234F
:100E8C00DA0813469B0013445B00CA1A1346184633
:100E9C0080BD00BFCDCCCCCC80B483B000AF78602B
:100EAC0039603B68094A82FB03129210DB17D21A95
:100EBC0007497B6841F82320064A7B68002142F8E9
:100ECC00231000BF0C37BD4680BC70476766666652
:100EDC00940100205C02002080B483B000AF7860E5
:100EEC00064A7B6852F82330012B01D1012300E024
:100EFC00002318460C37BD4680BC70475C020020AE
:100F0C0080B483B000AF00237B601CE0124A7B6886
:100F1C0052F82330002B13DD0F4A7B6852F8233034
:100F2C005A1E0D497B6841F823200B4A7B6852F806
:100F3C002330002B04DC094A7B68012142F8231082
:100F4C007B6801337B607B68312BDFDD00BF00BF2A
:100F5C000C37BD4680BC7047940100205C02002019
:100F6C0080B485B000AF154B9B69144A43F0010364
:100F7C009361124B9B6903F00103BB60BB680F4B81
:100F8C00DB690E4A43F08053D3610C4BDB6903F0F1
:100F9C0080537B607B680A4B5B68FB60FB6823F0CB
:100FAC00E063FB60FB6843F00073FB60044AFB6882
:100FBC00536000BF1437BD4680BC70470010024020
:100FCC000000014080B588B000AF786007F11003D5
:100FDC0000221A605A609A60DA607B681B68184AB3
:100FEC00934229D1174B9B69164A43F400739361C2
:100FFC00144B9B6903F40073FB60FB68114B9B69FA
:10100C00104A43F0040393610E4B9B6903F00403F5
:10101C00BB60BB6801233B6103237B6107F11003B9
:10102C001946094800F064FE00220021122000F04D
:10103C0028FE122000F041FE00BF2037BD4680BDC7
:10104C0000240140001002400008014080B588B027
:10105C0000AF786007F1100300221A605A609A60A2
:10106C00DA607B681B68154A934223D1144B9B6949
:10107C00134A43F008039361114B9B6903F0080377
:10108C00FB60FB68C0233B6112237B610023BB61C7
:10109C0007F1100319460B4800F02AFE084BDB69D8
:1010AC00074A43F40013D361054BDB6903F40013C7
:1010BC00BB60BB6800BF2037BD4680BD00540040FC
:1010CC0000100240000C014080B584B000AF786085
:1010DC007B681B68B3F1804F13D10C4BDB690B4A57
:1010EC0043F00103D361094BDB6903F00103FB609F
:1010FC00FB68002200211C2000F0C3FD1C2000F026
:10110C00DCFD00BF1037BD4680BD00BF00100240A3
:10111C0080B400AFFEE780B400AFFEE780B400AF50
:10112C00FEE780B400AFFEE780B400AFFEE780B40A
:10113C0000AF00BFBD4680BC704780B400AF00BF9D
:10114C00BD4680BC704780B400AF00BFBD4680BCBC
:10115C00704780B500AF00F089F800BF80BD00007B
:10116C0080B500AF024800F047FA00BF80BD00BF59
:10117C001C01002080B500AF024802F063F900BFEB
:10118C0080BD00BF4C01002080B400AF00BFBD4645
:10119C0080BC7047FFF7F8FF0B480C490C4A002342
:1011AC0002E0D458C4500433C4188C42F9D3094A11
:1011BC00094C002301E013600432A242FBD302F07D
:1011CC0081FCFFF7F9FB7047000000203400002081
:1011DC005C3C00083400002028030020FEE70000DF
:1011EC0080B500AF084B1B68074A43F0100313602F
:1011FC00032000F03BFD0F2000F008F8FFF7B0FED5
:10120C000023184680BD00BF0020024080B582B08C
:10121C0000AF7860124B1A68124B1B7819464FF4CA
:10122C007A73B3FBF1F3B2FBF3F3184600F053FD02
:10123C000346002B01D001230EE07B680F2B0AD84C
:10124C00002279684FF0FF3000F01BFD064A7B68E6
:10125C001360002300E0012318460837BD4680BD0B
:10126C0028000020300000202C00002080B400AFAB
:10127C00054B1B781A46054B1B681344034A136035
:10128C0000BFBD4680BC7047300000202403002006
:10129C0080B400AF024B1B681846BD4680BC70473B
:1012AC002403002080B584B000AF7860FFF7F0FF16
:1012BC00B8607B68FB60FB68B3F1FF3F05D00A4B5D
:1012CC001B781A46FB681344FB6000BFFFF7E0FF76
:1012DC000246BB68D31AFA689A42F7D800BF00BF1F
:1012EC001037BD4680BD00BF3000002080B586B0F1
:1012FC0000AF78600023FB7500233B610023BB60CB
:10130C000023FB607B68002B01D10123BEE07B68CE
:10131C009B68002B7B689B6A002B09D17B680022A1
:10132C00DA627B68002283F824207868FFF74AFE93
:10133C00786800F085FB0346FB757B689B6A03F0BD
:10134C001003002B40F09980FB7D002B40F0958022
:10135C007B689B6A23F4885323F0020343F0020258
:10136C007B689A627B685A687B68DB691A437B6886
:10137C001B7B5B001343BA681343BB607B689B68A1
:10138C00B3F5807F03D07B689B68012B02D14FF4AF
:10139C00807300E000233A6913433B617B681B7D3B
:1013AC00012B19D17B681B7B002B09D17B689B69B6
:1013BC00013B5A033B69134343F400633B610BE06D
:1013CC007B689B6A43F020027B689A627B68DB6ACD
:1013DC0043F001027B68DA627B681B685B6823F46C
:1013EC0069417B681B683A690A435A607B681B68D1
:1013FC009A68284B13407A681268B9680B4393605B
:10140C007B689B68B3F5807F03D07B689B68012B5E
:10141C0004D17B681B69013B1B05FB607B681B6867
:10142C00DB6A23F470017B681B68FA680A43DA6292
:10143C007B681B689A68184B1340BA689A420BD1A8
:10144C007B680022DA627B689B6A23F0030343F01B
:10145C0001027B689A6218E07B689B6A23F0120396
:10146C0043F010027B689A627B68DB6A43F00102EE
:10147C007B68DA620123FB7507E07B689B6A43F0AB
:10148C0010027B689A620123FB75FB7D18461837A6
:10149C00BD4680BDFDF7E1FFFE0E1FFF80B584B099
:1014AC0000AF78600023FB737B6893F82430012B2A
:1014BC0001D1022398E07B68012283F8242078680C
:1014CC0000F064FA0346FB73FB7B002B40F0878033
:1014DC007B689B6A23F4407323F0010343F480720E
:1014EC007B689A627B681B68414A934205D1414BE9
:1014FC005B6803F47023002B15D17B689B6A23F483
:10150C0080127B689A627B681B685B6803F480635B
:10151C00002B26D07B689B6A23F4405343F4805203
:10152C007B689A621DE07B689B6A43F480127B683F
:10153C009A627B681B682F4A934204D07B681B68B5
:10154C002B4A93420DD12B4B5B6803F48063002B29
:10155C0007D07B689B6A23F4405343F480527B682A
:10156C009A627B689B6A03F48053002B06D07B68DD
:10157C00DB6A23F006027B68DA6202E07B680022F9
:10158C00DA627B68002283F824207B681B686FF08A
:10159C0002021A607B681B689B6803F46023B3F536
:1015AC00602F13D17B681B68114A934205D1114BF4
:1015BC005B6803F47023002B08D17B681B689A6866
:1015CC007B681B6842F4A0029A600CE07B681B6885
:1015DC009A687B681B6842F480129A6003E07B680F
:1015EC00002283F82420FB7B18461037BD4680BDB3
:1015FC00002801400024014080B584B000AF786021
:10160C007B681B681B68FB607B681B685B68BB6046
:10161C00BB6803F02003002B3ED0FB6803F00203F1
:10162C00002B39D07B689B6A03F01003002B05D18B
:10163C007B689B6A43F400727B689A627B681B68C8
:10164C009B6803F46023B3F5602F1DD17B681B7B73
:10165C00002B19D17B681B685A687B681B6822F0C9
:10166C0020025A607B689B6A23F480727B689A62C2
:10167C007B689B6A03F48053002B05D17B689B6AC3
:10168C0043F001027B689A62786800F074F87B681A
:10169C001B686FF012021A60BB6803F08003002B0A
:1016AC004DD0FB6803F00403002B48D07B689B6A89
:1016BC0003F01003002B05D17B689B6A43F40052A6
:1016CC007B689A627B681B689B6803F4E043B3F504
:1016DC00E04F12D07B681B685B6803F48063002BBF
:1016EC0025D17B681B689B6803F46023B3F5602FDE
:1016FC001DD17B681B7B002B19D17B681B685A683A
:10170C007B681B6822F080025A607B689B6A23F41A
:10171C0080527B689A627B689B6A03F48073002B0F
:10172C0005D17B689B6A43F001027B689A627868FA
:10173C0000F0C7F97B681B686FF00C021A60BB687D
:10174C0003F04003002B12D0FB6803F00103002BC5
:10175C000DD07B689B6A43F480327B689A62786810
:10176C0000F012F87B681B686FF001021A6000BF72
:10177C001037BD4680BD80B483B000AF786000BF29
:10178C000C37BD4680BC704780B483B000AF786026
:10179C0000BF0C37BD4680BC7047000080B485B0DC
:1017AC0000AF786039600023FB730023BB607B685B
:1017BC0093F82430012B01D10223DCE07B68012259
:1017CC0083F824203B685B68062B1CD87B681B685D
:1017DC00596B3B685A6813469B001344053B1F2208
:1017EC0002FA03F3DB4319403B6818683B685A68FC
:1017FC0013469B001344053B00FA03F27B681B68FD
:10180C000A435A633CE03B685B680C2B1CD87B6832
:10181C001B68196B3B685A6813469B001344233BA7
:10182C001F2202FA03F3DB4319403B6818683B683C
:10183C005A6813469B001344233B00FA03F27B685F
:10184C001B680A431A631BE07B681B68D96A3B68F8
:10185C005A6813469B001344413B1F2202FA03F3C0
:10186C00DB4319403B6818683B685A6813469B0079
:10187C001344413B00FA03F27B681B680A43DA62AB
:10188C003B681B68092B1CD97B681B68D9683B68B3
:10189C001A6813465B0013441E3B072202FA03F33B
:1018AC00DB4319403B6898683B681A6813465B0039
:1018BC0013441E3B00FA03F27B681B680A43DA6090
:1018CC0019E07B681B6819693B681A6813465B0052
:1018DC001344072202FA03F3DB4319403B68986870
:1018EC003B681A6813465B00134400FA03F27B68EA
:1018FC001B680A431A613B681B68102B03D03B68BA
:10190C001B68112B32D17B681B681D4A934225D171
:10191C007B681B689B6803F40003002B26D17B6853
:10192C001B689A687B681B6842F400029A603B68EB
:10193C001B68102B1AD1134B1B68134AA2FB0323F1
:10194C009A0C13469B0013445B00BB6002E0BB681F
:10195C00013BBB60BB68002BF9D107E07B689B6A3D
:10196C0043F020027B689A620123FB737B680022A0
:10197C0083F82420FB7B18461437BD4680BC704787
:10198C00002401402800002083DE1B4380B584B076
:10199C0000AF78600023FB600023BB607B681B6892
:1019AC009B6803F00103012B40D07B681B689A688D
:1019BC007B681B6842F001029A601F4B1B681F4A30
:1019CC00A2FB03239B0CBB6002E0BB68013BBB602A
:1019DC00BB68002BF9D1FFF75BFCF8601FE0FFF749
:1019EC0057FC0246FB68D31A022B18D97B681B687C
:1019FC009B6803F00103012B11D07B689B6A43F0B9
:101A0C0010027B689A627B68DB6A43F001027B6898
:101A1C00DA627B68002283F82420012307E07B68CC
:101A2C001B689B6803F00103012BD8D100231846D7
:101A3C001037BD4680BD00BF2800002083DE1B434D
:101A4C0080B584B000AF78600023FB607B681B68B6
:101A5C009B6803F00103012B2ED17B681B689A68ED
:101A6C007B681B6822F001029A60FFF711FCF8609A
:101A7C001BE0FFF70DFC0246FB68D31A022B14D9AE
:101A8C007B681B689B6803F00103012B0DD17B68FD
:101A9C009B6A43F010027B689A627B68DB6A43F0B6
:101AAC0001027B68DA62012307E07B681B689B6894
:101ABC0003F00103012BDCD0002318461037BD4680
:101ACC0080BD80B483B000AF786000BF0C37BD46DA
:101ADC0080BC704780B485B000AF78607B6803F041
:101AEC000703FB600C4BDB68BB60BA684FF6FF0367
:101AFC001340BB60FB681A02BB68134343F0BF631F
:101B0C0043F40033BB60044ABB68D36000BF143796
:101B1C00BD4680BC704700BF00ED00E080B400AF54
:101B2C00044BDB681B0A03F007031846BD4680BC58
:101B3C00704700BF00ED00E080B483B000AF0346F7
:101B4C00FB7197F90730002B0BDBFB7903F01F02BD
:101B5C00064997F907305B09012000FA02F241F8B7
:101B6C00232000BF0C37BD4680BC704700E100E06D
:101B7C0080B483B000AF03463960FB7197F907302E
:101B8C00002B0ADB3B68DAB20C4997F907301201DB
:101B9C00D2B20B4483F800230AE03B68DAB208495E
:101BAC00FB7903F00F03043B1201D2B20B441A76FB
:101BBC0000BF0C37BD4680BC704700BF00E100E0A1
:101BCC0000ED00E080B489B000AFF860B9607A60D5
:101BDC00FB6803F00703FB61FB69C3F10703042BEC
:101BEC0028BF0423BB61FB690433062B02D9FB69B4
:101BFC00033B00E000237B614FF0FF32BB6902FA2C
:101C0C0003F3DA43BB681A407B699A404FF0FF310B
:101C1C007B6901FA03F3D9437B680B4013431846E5
:101C2C002437BD4680BC704780B582B000AF786069
:101C3C007B68013BB3F1807F01D301230FE00A4A9B
:101C4C007B68013B53600F214FF0FF30FFF790FF93
:101C5C00054B00229A60044B07221A600023184699
:101C6C000837BD4680BD00BF10E000E080B582B0F3
:101C7C0000AF78607868FFF72DFF00BF0837BD46CE
:101C8C0080BD80B586B000AF0346B9607A60FB7347
:101C9C0000237B61FFF742FF78617A68B968786945
:101CAC00FFF790FF024697F90F3011461846FFF7E1
:101CBC005FFF00BF1837BD4680BD80B582B000AF56
:101CCC000346FB7197F907301846FFF735FF00BF45
:101CDC000837BD4680BD80B582B000AF78607868AB
:101CEC00FFF7A2FF034618460837BD4680BD00002B
:101CFC0080B48BB000AF7860396000237B62002326
:101D0C003B6248E101227B6A02FA03F3FB613B6808
:101D1C001B68FA691340BB61BA69FB699A4240F0CF
:101D2C0037813B685B68A34A93425ED0A14A9342D9
:101D3C0075D8A14A934258D09F4A93426FD89F4A74
:101D4C00934252D09D4A934269D89D4A93424CD0BB
:101D5C009B4A934263D89B4A934246D0994A9342FA
:101D6C005DD8122B2AD8122B59D801A252F823F085
:101D7C00F71D0008D11D0008E31D0008251E0008F2
:101D8C002B1E00082B1E00082B1E00082B1E000803
:101D9C002B1E00082B1E00082B1E00082B1E0008F3
:101DAC002B1E00082B1E00082B1E00082B1E0008E3
:101DBC002B1E0008D91D0008ED1D0008824A934215
:101DCC0013D02CE03B68DB683B6229E03B68DB68A6
:101DDC0004333B6224E03B68DB6808333B621FE062
:101DEC003B68DB680C333B621AE03B689B68002B5A
:101DFC0002D104233B6213E03B689B68012B05D1A5
:101E0C0008233B627B68FA691A6109E008233B628C
:101E1C007B68FA695A6103E000233B6200E000BF73
:101E2C00BB69FF2B01D87B6801E07B6804337B61C5
:101E3C00BB69FF2B02D87B6A9B0002E07B6A083BE4
:101E4C009B003B617B691A680F213B6901FA03F324
:101E5C00DB431A40396A3B6901FA03F31A437B6985
:101E6C001A603B685B6803F08053002B00F0908095
:101E7C00564B9B69554A43F001039361534B9B6945
:101E8C0003F00103BB60BB68514A7B6A9B080233B9
:101E9C0052F82330FB607B6A03F003039B000F2294
:101EAC0002FA03F3DB43FA681340FB607B68494A90
:101EBC0093420DD07B68484A934207D07B68474ACF
:101ECC00934201D1022304E0032302E0012300E04A
:101EDC0000237A6A02F0030292009340FA681343DB
:101EEC00FB603B497B6A9B080233FA6841F823206C
:101EFC003B685B6803F48013002B06D0384B9A6860
:101F0C003749BB6913438B6006E0354B9A68BB6954
:101F1C00DB43334913408B603B685B6803F400136D
:101F2C00002B06D02E4BDA682D49BB691343CB60CE
:101F3C0006E02B4BDA68BB69DB4329491340CB60C5
:101F4C003B685B6803F40033002B06D0244B5A68C3
:101F5C002349BB6913434B6006E0214B5A68BB69AC
:101F6C00DB431F4913404B603B685B6803F48033D1
:101F7C00002B06D01A4B1A681949BB6913430B6026
:101F8C0006E0174B1A68BB69DB43154913400B601D
:101F9C007B6A01337B623B681A687B6A22FA03F323
:101FAC00002B7FF4AFAE00BF00BF2C37BD4680BC0A
:101FBC00704700BF000032100000311000002210EA
:101FCC00000021100000121000001110001002403F
:101FDC000000014000080140000C014000100140CD
:101FEC000004014080B485B000AF78600B467B8064
:101FFC007B689A687B881340002B02D00123FB730B
:10200C0001E00023FB73FB7B18461437BD4680BCF4
:10201C00704780B483B000AF78600B467B8013466A
:10202C007B707B78002B03D07A887B681A6103E085
:10203C007B881A047B681A6100BF0C37BD4680BCD4
:10204C00704780B485B000AF78600B467B807B68AE
:10205C00DB68FB607A88FB6813401A04FB68D94381
:10206C007B880B401A437B681A6100BF1437BD464E
:10207C0080BC704780B584B000AF78607B68002B63
:10208C0001D101232BE17B6893F83D30DBB2002BAF
:10209C0006D17B68002283F83C207868FEF7D6FFD7
:1020AC007B68242283F83D207B681B681A687B6858
:1020BC001B6822F001021A607B681B681A687B6837
:1020CC001B6842F400421A607B681B681A687B68C4
:1020DC001B6822F400421A6001F030F8F8607B684B
:1020EC005B68814A934207D8FB68804A934294BF4D
:1020FC0001230023DBB206E0FB687D4A934294BFC8
:10210C0001230023DBB2002B01D00123E7E0FB68A5
:10211C00784AA2FB03239B0CBB607B681B685B6843
:10212C0023F03F017B681B68BA680A435A607B68DE
:10213C001B681B6A23F03F017B685B686A4A934209
:10214C0002D8BB68013309E0BB684FF4967202FBFE
:10215C0003F3694AA2FB03239B0901337A681268D3
:10216C000B4313627B681B68DB6923F44F4222F03C
:10217C00FF027B685B685C498B4219D8FB68591E6F
:10218C007B685B685B00B1FBF3F3591C40F6FC7396
:10219C000B40002B0AD0FB68591E7B685B685B0008
:1021AC00B1FBF3F30133C3F30B0351E004234FE012
:1021BC007B689B68002B11D1FB68581E7B685968A3
:1021CC000B465B000B44B0FBF3F30133C3F30B037F
:1021DC00002B0CBF01230023DBB212E0FB68581E5E
:1021EC007B6859680B469B000B4499000B44B0FB71
:1021FC00F3F30133C3F30B03002B0CBF01230023B8
:10220C00DBB2002B01D0012322E07B689B68002B02
:10221C000ED1FB68581E7B6859680B465B000B445B
:10222C00B0FBF3F30133C3F30B0343F400430FE0B0
:10223C00FB68581E7B6859680B469B000B44990041
:10224C000B44B0FBF3F30133C3F30B0343F44043F0
:10225C00796809681343CB617B681B681B6823F0A2
:10226C00C0017B68DA697B681B6A1A437B681B6850
:10227C000A431A607B681B689B6823F4034323F0B2
:10228C00FF037A6811697A68D26811437A68126818
:10229C000B4393607B681B68DB6823F0FF017B6852
:1022AC005A697B689B691A437B681B680A43DA602E
:1022BC007B681B681A687B681B6842F001021A6015
:1022CC007B6800221A647B68202283F83D207B689F
:1022DC0000221A637B68002283F83E2000231846F4
:1022EC001037BD4680BD00BFA08601007F841E0054
:1022FC00FF083D0083DE1B43D34D621080B588B0D0
:10230C0002AFF8607A601A460B467B8113463B811C
:10231C00FEF7BEFF7861FB6893F83D30DBB2202BF3
:10232C0040F0E0807B690093192301227049F86822
:10233C0000F064F90346002B01D00223D3E0FB68C4
:10234C0093F83C30012B01D10223CCE0FB68012235
:10235C0083F83C20FB681B681B6803F00103012B0E
:10236C0007D0FB681B681A68FB681B6842F0010207
:10237C001A60FB681B681A68FB681B6822F4006211
:10238C001A60FB68212283F83D20FB68102283F839
:10239C003E20FB6800221A64FB687A685A62FB686C
:1023AC003A895A85FB685B8D9AB2FB681A85FB6883
:1023BC00504ADA6279897B693A6AF86800F09CF8CD
:1023CC000346002B01D001238DE000233B61FB6809
:1023DC001B685B693B61FB681B689B693B613B69E4
:1023EC0066E07A69396AF86800F022FA0346002B35
:1023FC000DD0FB681B6C042B07D1FB681B681A689B
:10240C00FB681B6842F400721A6001236BE0FB68E6
:10241C005B6A1A78FB681B681A61FB685B6A5A1C5A
:10242C00FB685A62FB685B8D9BB2013B9AB2FB68FE
:10243C005A85FB681B8D013B9AB2FB681A85FB68B9
:10244C001B685B6903F00403042B1BD1FB681B8D19
:10245C00002B17D0FB685B6A1A78FB681B681A6143
:10246C00FB685B6A5A1CFB685A62FB685B8D9BB20B
:10247C00013B9AB2FB685A85FB681B8D013B9AB2F3
:10248C00FB681A857A69396AF86800F019FA03460C
:10249C00002B0DD0FB681B6C042B07D1FB681B6851
:1024AC001A68FB681B6842F400721A6001231AE078
:1024BC00FB681B8D002B94D1FB681B681A68FB68AA
:1024CC001B6842F400721A60FB68202283F83D20DE
:1024DC00FB68002283F83E20FB68002283F83C2036
:1024EC00002300E0022318461837BD4680BD00BF0C
:1024FC00020010000000FFFF80B588B002AFF8604A
:10250C007A603B600B467B81FB68DB6A7B617B6995
:10251C00082B06D07B69012B03D07B6913F5803F18
:10252C0008D1FB681B681A68FB681B6842F4807250
:10253C001A600BE0FB681B6B122B07D1FB681B6846
:10254C001A68FB681B6842F480721A603B6800933F
:10255C007B6800224FF00111F86800F04FF8034639
:10256C00002B0DD0FB681B681B6803F48073B3F55C
:10257C00807F03D1FB684FF400721A64032335E0AB
:10258C00FB681B69B3F5804F08D17B89DBB21A4617
:10259C00FB681B6802F0FE021A611BE07B89DB11F1
:1025AC00DBB203F00603DBB263F00F03DAB2FB68B5
:1025BC001B681A613B687A680E49F86800F098F855
:1025CC000346002B01D0012310E07B89DAB2FB68B3
:1025DC001B681A613B687A680749F86800F088F84C
:1025EC000346002B01D0012300E0002318461837C6
:1025FC00BD4680BD080001000200010080B584B01A
:10260C0000AFF860B9603B601346FB7148E03B6873
:10261C00B3F1FF3F44D0FEF73BFE0246BB69D31A31
:10262C003A689A4202D33B68002B39D1BB681B0C29
:10263C00DBB2012B0DD1FB681B685B69DA43BB680D
:10264C0013409BB2002B0CBF01230023DBB21A46B4
:10265C000CE0FB681B689B69DA43BB6813409BB2B8
:10266C00002B0CBF01230023DBB21A46FB799A42E4
:10267C0016D1FB6800221A63FB68202283F83D20E8
:10268C00FB68002283F83E20FB681B6C43F02002A1
:10269C00FB681A64FB68002283F83C20012323E0CA
:1026AC00BB681B0CDBB2012B0DD1FB681B685B6993
:1026BC00DA43BB6813409BB2002B0CBF01230023F1
:1026CC00DBB21A460CE0FB681B689B69DA43BB68FB
:1026DC0013409BB2002B0CBF01230023DBB21A4624
:1026EC00FB799A4293D0002318461037BD4680BD23
:1026FC0080B584B000AFF860B9607A603B6071E07F
:10270C00FB681B685B6903F48063B3F5806F23D1AE
:10271C00FB681B681A68FB681B6842F400721A603D
:10272C00FB681B686FF480625A61FB6800221A63B5
:10273C00FB68202283F83D20FB68002283F83E20B2
:10274C00FB681B6C43F00402FB681A64FB680022F4
:10275C0083F83C20012367E07B68B3F1FF3F41D055
:10276C00FEF796FD02463B68D31A7A689A4202D36A
:10277C007B68002B36D1BB681B0CDBB2012B0CD158
:10278C00FB681B685B69DA43BB6813409BB2002B88
:10279C0014BF01230023DBB20BE0FB681B689B69B1
:1027AC00DA43BB6813409BB2002B14BF01230023F8
:1027BC00DBB2002B16D0FB6800221A63FB682022C8
:1027CC0083F83D20FB68002283F83E20FB681B6CDD
:1027DC0043F02002FB681A64FB68002283F83C205B
:1027EC00012321E0BB681B0CDBB2012B0CD1FB6875
:1027FC001B685B69DA43BB6813409BB2002B14BFA8
:10280C0001230023DBB20BE0FB681B689B69DA43F6
:10281C00BB6813409BB2002B14BF01230023DBB217
:10282C00002B7FF46DAF002318461037BD4680BDDA
:10283C0080B584B000AFF860B9607A6034E0F868B5
:10284C0000F086F80346002B01D0012334E0BB686E
:10285C00B3F1FF3F28D0FEF71BFD02467B68D31A6D
:10286C00BA689A4202D3BB68002B1DD1FB681B6867
:10287C005B6903F08003802B16D0FB6800221A637F
:10288C00FB68202283F83D20FB68002283F83E2061
:10289C00FB681B6C43F02002FB681A64FB68002287
:1028AC0083F83C20012307E0FB681B685B6903F09D
:1028BC008003802BC3D1002318461037BD4680BD42
:1028CC0080B584B000AFF860B9607A6034E0F86825
:1028DC0000F03EF80346002B01D0012334E0BB6826
:1028EC00B3F1FF3F28D0FEF7D3FC02467B68D31A26
:1028FC00BA689A4202D3BB68002B1DD1FB681B68D7
:10290C005B6903F00403042B16D0FB6800221A63E6
:10291C00FB68202283F83D20FB68002283F83E20D0
:10292C00FB681B6C43F02002FB681A64FB680022F6
:10293C0083F83C20012307E0FB681B685B6903F00C
:10294C000403042BC3D1002318461037BD4680BDA9
:10295C0080B483B000AF78607B681B685B6903F45C
:10296C008063B3F5806F1BD17B681B686FF480624A
:10297C005A617B6800221A637B68202283F83D2011
:10298C007B68002283F83E207B681B6C43F00402BA
:10299C007B681A647B68002283F83C20012300E0EA
:1029AC00002318460C37BD4680BC704780B586B0F6
:1029BC0000AF78607B68002B01D101236CE27B684F
:1029CC001B6803F00103002B00F08780924B5B68BF
:1029DC0003F00C03042B0CD08F4B5B6803F00C033F
:1029EC00082B12D18C4B5B6803F48033B3F5803F1A
:1029FC000BD1894B1B6803F40033002B6CD07B6824
:102A0C005B68002B68D1012346E27B685B68B3F5F9
:102A1C00803F06D1804B1B687F4A43F480331360A0
:102A2C002EE07B685B68002B0CD17B4B1B687A4AD1
:102A3C0023F480331360784B1B68774A23F480238C
:102A4C0013601DE07B685B68B3F5A02F0CD1724B53
:102A5C001B68714A43F4802313606F4B1B686E4AEA
:102A6C0043F4803313600BE06B4B1B686A4A23F40E
:102A7C0080331360684B1B68674A23F48023136010
:102A8C007B685B68002B13D0FEF702FC386108E012
:102A9C00FEF7FEFB02463B69D31A642B01D90323D4
:102AAC00FAE15D4B1B6803F40033002BF0D014E00B
:102ABC00FEF7EEFB386108E0FEF7EAFB02463B69E5
:102ACC00D31A642B01D90323E6E1534B1B6803F49F
:102ADC000033002BF0D100E000BF7B681B6803F0D3
:102AEC000203002B63D04C4B5B6803F00C03002BF0
:102AFC000BD0494B5B6803F00C03082B1CD1464BE5
:102B0C005B6803F48033002B16D1434B1B6803F036
:102B1C000203002B05D07B681B69012B01D001231C
:102B2C00BAE13D4B1B6823F0F8027B685B69DB0064
:102B3C00394913430B603AE07B681B69002B20D0AA
:102B4C00364B01221A60FEF7A3FB386108E0FEF752
:102B5C009FFB02463B69D31A022B01D903239BE14D
:102B6C002D4B1B6803F00203002BF0D02A4B1B6883
:102B7C0023F0F8027B685B69DB00274913430B6089
:102B8C0015E0264B00221A60FEF782FB386108E044
:102B9C00FEF77EFB02463B69D31A022B01D90323B5
:102BAC007AE11D4B1B6803F00203002BF0D17B680C
:102BBC001B6803F00803002B3AD07B689B69002B41
:102BCC0019D0174B01221A60FEF762FB386108E03E
:102BDC00FEF75EFB02463B69D31A022B01D9032395
:102BEC005AE10D4B5B6A03F00203002BF0D001207D
:102BFC0000F0B8FA1CE00A4B00221A60FEF748FB02
:102C0C0038610FE0FEF744FB02463B69D31A022BF6
:102C1C0008D9032340E100BF0010024000004242EB
:102C2C00800442429E4B5B6A03F00203002BE9D105
:102C3C007B681B6803F00403002B00F0A6800023C4
:102C4C00FB75974BDB6903F08053002B0DD1944B34
:102C5C00DB69934A43F08053D361914BDB6903F0FA
:102C6C008053BB60BB680123FB758E4B1B6803F460
:102C7C008073002B18D18B4B1B688A4A43F48073EA
:102C8C001360FEF705FB386108E0FEF701FB024616
:102C9C003B69D31A642B01D90323FDE0814B1B68DC
:102CAC0003F48073002BF0D07B68DB68012B06D11A
:102CBC007B4B1B6A7A4A43F0010313622DE07B685D
:102CCC00DB68002B0CD1764B1B6A754A23F0010391
:102CDC001362734B1B6A724A23F0040313621CE0E9
:102CEC007B68DB68052B0CD16D4B1B6A6C4A43F07F
:102CFC00040313626A4B1B6A694A43F001031362B3
:102D0C000BE0674B1B6A664A23F001031362644BAA
:102D1C001B6A634A23F0040313627B68DB68002B95
:102D2C0015D0FEF7B5FA38610AE0FEF7B1FA0246A3
:102D3C003B69D31A41F28832934201D90323ABE0A9
:102D4C00574B1B6A03F00203002BEED014E0FEF786
:102D5C009FFA38610AE0FEF79BFA02463B69D31AE8
:102D6C0041F28832934201D9032395E04C4B1B6A04
:102D7C0003F00203002BEED1FB7D012B05D1484B58
:102D8C00DB69474A23F08053D3617B68DB69002BF6
:102D9C0000F08180424B5B6803F00C03082B61D080
:102DAC007B68DB69022B46D13F4B00221A60FEF791
:102DBC006FFA386108E0FEF76BFA02463B69D31AEA
:102DCC00022B01D9032367E0354B1B6803F000731A
:102DDC00002BF0D17B681B6AB3F5803F08D1304BD8
:102DEC005B6823F400327B689B682D4913434B606E
:102DFC002B4B5B6823F474127B68196A7B685B6AE3
:102E0C000B43274913434B60274B01221A60FEF7F3
:102E1C003FFA386108E0FEF73BFA02463B69D31AE9
:102E2C00022B01D9032337E01D4B1B6803F0007301
:102E3C00002BF0D02FE01C4B00221A60FEF728FA72
:102E4C00386108E0FEF724FA02463B69D31A022BDC
:102E5C0001D9032320E0124B1B6803F00073002BF5
:102E6C00F0D118E07B68DB69012B01D1012313E061
:102E7C000B4B5B68FB60FB6803F480327B681B6A5E
:102E8C009A4206D1FB6803F470127B685B6A9A4223
:102E9C0001D0012300E0002318461837BD4680BD41
:102EAC0000100240007000406000424280B584B0C7
:102EBC0000AF786039607B68002B01D10123D0E032
:102ECC006A4B1B6803F007033A689A4210D9674BA8
:102EDC001B6823F0070265493B6813430B60634B87
:102EEC001B6803F007033A689A4201D00123B8E04B
:102EFC007B681B6803F00203002B20D07B681B68E7
:102F0C0003F00403002B05D0594B5B68584A43F47B
:102F1C00E06353607B681B6803F00803002B05D04B
:102F2C00534B5B68524A43F460535360504B5B689D
:102F3C0023F0F0027B689B684D4913434B607B6820
:102F4C001B6803F00103002B40D07B685B68012BEE
:102F5C0007D1474B1B6803F40033002B15D1012319
:102F6C007FE07B685B68022B07D1414B1B6803F049
:102F7C000073002B09D1012373E03D4B1B6803F058
:102F8C000203002B01D101236BE0394B5B6823F06A
:102F9C0003027B685B68364913434B60FEF778F994
:102FAC00F8600AE0FEF774F90246FB68D31A41F2A6
:102FBC008832934201D9032353E02D4B5B6803F015
:102FCC000C027B685B689B009A42EBD1274B1B6819
:102FDC0003F007033A689A4210D2244B1B6823F083
:102FEC00070222493B6813430B60204B1B6803F01C
:102FFC0007033A689A4201D0012332E07B681B68D0
:10300C0003F00403002B08D0194B5B6823F4E06237
:10301C007B68DB68164913434B607B681B6803F0C5
:10302C000803002B09D0124B5B6823F460527B68B9
:10303C001B69DB000E4913434B6000F021F802467C
:10304C000B4B5B681B0903F00F030A49CB5C22FA9C
:10305C0003F3094A1360094B1B681846FEF7D6F8B0
:10306C00002318461037BD4680BD00BF002002402B
:10307C0000100240283C0008280000202C000020F2
:10308C0080B487B000AF0023FB600023BB6000233B
:10309C007B6100237B6000233B611E4B5B68FB6004
:1030AC00FB6803F00C03042B02D0082B03D027E0A1
:1030BC00194B3B6127E0FB689B0C03F00F03174A8D
:1030CC00D35C7B60FB6803F48033002B10D0114B76
:1030DC005B685B0C03F00103114AD35CBB607B683B
:1030EC000D4A02FB03F2BB68B2FBF3F37B6104E015
:1030FC007B680C4A02FB03F37B617B693B6102E05A
:10310C00054B3B6100BF3B6918461C37BD4680BC74
:10311C00704700BF0010024000127A00403C0008CB
:10312C00503C000800093D0080B400AF024B1B6806
:10313C001846BD4680BC70472800002080B500AF03
:10314C00FFF7F2FF0246054B5B681B0A03F007030F
:10315C000349CB5C22FA03F3184680BD00100240F1
:10316C00383C000880B485B000AF78600A4B1B680F
:10317C000A4AA2FB03235B0A7A6802FB03F3FB6097
:10318C0000BFFB685A1EFA60002BF9D100BF00BFCC
:10319C001437BD4680BC704728000020D34D621008
:1031AC0080B586B000AF786000233B610023FB60E4
:1031BC007B681B6803F00103002B7DD00023FB759B
:1031CC004F4BDB6903F08053002B0DD14C4BDB696B
:1031DC004B4A43F08053D361494BDB6903F0805376
:1031EC00BB60BB680123FB75464B1B6803F4807303
:1031FC00002B18D1434B1B68424A43F48073136075
:10320C00FEF746F8386108E0FEF742F802463B69E3
:10321C00D31A642B01D903236DE03A4B1B6803F4DA
:10322C008073002BF0D0364B1B6A03F44073FB60A9
:10323C00FB68002B2ED07B685B6803F44073FA6844
:10324C009A4227D02E4B1B6A23F44073FB602E4B03
:10325C0001221A602C4B00221A60294AFB68136267
:10326C00FB6803F00103002B14D0FEF711F8386152
:10327C000AE0FEF70DF802463B69D31A41F2883298
:10328C00934201D9032336E01D4B1B6A03F0020362
:10329C00002BEED01A4B1B6A23F440727B685B68E0
:1032AC00174913430B62FB7D012B05D1144BDB69D2
:1032BC00134A23F08053D3617B681B6803F002032D
:1032CC00002B08D00E4B5B6823F440427B689B6854
:1032DC000B4913434B607B681B6803F01003002BF6
:1032EC0008D0074B5B6823F480027B68DB680449D9
:1032FC0013434B60002318461837BD4680BD00BFF2
:10330C0000100240007000404004424280B582B080
:10331C0000AF78607B68002B01D1012341E07B6812
:10332C0093F83D30DBB2002B06D17B68002283F88A
:10333C003C207868FDF7C8FE7B68022283F83D20AC
:10334C007B681A687B6804331946104600F056FAFD
:10335C007B68012283F846207B68012283F83E209B
:10336C007B68012283F83F207B68012283F8402090
:10337C007B68012283F841207B68012283F842207C
:10338C007B68012283F843207B68012283F8442068
:10339C007B68012283F845207B68012283F83D205D
:1033AC00002318460837BD4680BD000080B485B0A8
:1033BC0000AF78607B6893F83D30DBB2012B01D015
:1033CC00012335E07B68022283F83D207B681B6873
:1033DC00DA687B681B6842F00102DA607B681B6864
:1033EC00164A934209D07B681B68B3F1804F04D016
:1033FC007B681B68124A934211D17B681B689B68DF
:10340C0003F00703FB60FB68062B10D07B681B687E
:10341C001A687B681B6842F001021A6007E07B683F
:10342C001B681A687B681B6842F001021A60002353
:10343C0018461437BD4680BC704700BF002C0140B5
:10344C000004004080B584B000AF78607B681B68D6
:10345C00DB68FB607B681B681B69BB60BB6803F0A7
:10346C000203002B20D0FB6803F00203002B1BD0BF
:10347C007B681B686FF002021A617B6801221A7765
:10348C007B681B689B6903F00303002B03D07868EF
:10349C0000F098F905E0786800F08BF9786800F096
:1034AC009AF97B6800221A77BB6803F00403002B9F
:1034BC0020D0FB6803F00403002B1BD07B681B6837
:1034CC006FF004021A617B6802221A777B681B6812
:1034DC009B6903F44073002B03D0786800F072F9F9
:1034EC0005E0786800F065F9786800F074F97B689D
:1034FC0000221A77BB6803F00803002B20D0FB686E
:10350C0003F00803002B1BD07B681B686FF00802CC
:10351C001A617B6804221A777B681B68DB6903F0ED
:10352C000303002B03D0786800F04CF905E07868B1
:10353C0000F03FF9786800F04EF97B6800221A77AA
:10354C00BB6803F01003002B20D0FB6803F01003C2
:10355C00002B1BD07B681B686FF010021A617B6814
:10356C0008221A777B681B68DB6903F44073002B15
:10357C0003D0786800F026F905E0786800F019F9B6
:10358C00786800F028F97B6800221A77BB6803F092
:10359C000103002B0CD0FB6803F00103002B07D0B8
:1035AC007B681B686FF001021A617868FDF7FEFBFF
:1035BC00BB6803F08003002B0CD0FB6803F0800386
:1035CC00002B07D07B681B686FF080021A6178684B
:1035DC0000F06FFABB6803F04003002B0CD0FB68C3
:1035EC0003F04003002B07D07B681B686FF0400290
:1035FC001A61786800F0F8F8BB6803F02003002B20
:10360C000CD0FB6803F02003002B07D07B681B68F1
:10361C006FF020021A61786800F042FA00BF103790
:10362C00BD4680BD80B584B000AF786039600023A2
:10363C00FB737B6893F83C30012B01D10223B4E07F
:10364C007B68012283F83C207B68022283F83D20B2
:10365C007B681B689B68BB60BB6823F07703BB600F
:10366C00BB6823F47F43BB607B681B68BA689A60B5
:10367C003B681B68B3F5005F3ED0B3F5005F00F20A
:10368C008780B3F5805F00F08680B3F5805F7FD8CC
:10369C00702B1AD0702B7BD8602B50D0602B77D826
:1036AC00502B3CD0502B73D8402B58D0402B6FD87C
:1036BC00302B64D0302B6BD8202B60D0202B67D8CC
:1036CC00002B5CD0102B5AD062E07B6818683B68EA
:1036DC0099683B685A683B68DB6800F06AF97B685C
:1036EC001B689B68BB60BB6843F07703BB607B685F
:1036FC001B68BA689A604FE07B6818683B689968E9
:10370C003B685A683B68DB6800F053F97B681B68C0
:10371C009A687B681B6842F480429A603CE07B6844
:10372C0018683B6859683B68DB681A4600F0CAF8B1
:10373C007B681B685021184600F021F92CE07B684F
:10374C0018683B6859683B68DB681A4600F0E8F873
:10375C007B681B686021184600F011F91CE07B683F
:10376C0018683B6859683B68DB681A4600F0AAF891
:10377C007B681B684021184600F001F90CE07B685F
:10378C001A683B681B681946104600F0F8F803E00D
:10379C000123FB7300E000BF7B68012283F83D200E
:1037AC007B68002283F83C20FB7B18461037BD4613
:1037BC0080BD80B483B000AF786000BF0C37BD46CD
:1037CC0080BC704780B483B000AF786000BF0C370A
:1037DC00BD4680BC704780B483B000AF786000BF3A
:1037EC000C37BD4680BC704780B483B000AF7860A6
:1037FC0000BF0C37BD4680BC7047000080B485B05C
:10380C0000AF786039607B681B68FB607B682B4A73
:10381C00934207D07B68B3F1804F03D07B68284A72
:10382C00934208D1FB6823F07003FB603B685B6834
:10383C00FA681343FB607B68204A934207D07B688D
:10384C00B3F1804F03D07B681D4A934208D1FB68CB
:10385C0023F44073FB603B68DB68FA681343FB603E
:10386C00FB6823F080023B685B691343FB607B6859
:10387C00FA681A603B689A687B68DA623B681A6877
:10388C007B689A627B680D4A934203D13B681A6944
:10389C007B681A637B6801225A617B681B6903F0A1
:1038AC000103002B05D07B681B6923F001027B68A8
:1038BC001A6100BF1437BD4680BC7047002C014014
:1038CC000004004080B487B000AFF860B9607A6043
:1038DC00FB681B6A7B61FB681B6A23F00102FB68B7
:1038EC001A62FB689B693B613B6923F0F0033B6107
:1038FC007B681B013A6913433B617B6923F00A0324
:10390C007B617A69BB6813437B61FB683A699A6196
:10391C00FB687A691A6200BF1C37BD4680BC7047D1
:10392C0080B487B000AFF860B9607A60FB681B6A3E
:10393C007B61FB681B6A23F01002FB681A62FB6850
:10394C009B693B613B6923F470433B617B681B03C0
:10395C003A6913433B617B6923F0A0037B61BB682D
:10396C001B017A6913437B61FB683A699A61FB68B6
:10397C007A691A6200BF1C37BD4680BC704780B4A0
:10398C0085B000AF786039607B689B68FB60FB6832
:10399C0023F07003FB603A68FB68134343F00703A2
:1039AC00FB607B68FA689A6000BF1437BD4680BC28
:1039BC00704780B487B000AFF860B9607A603B6044
:1039CC00FB689B687B617B6923F47F437B613B686D
:1039DC001A027B681A43BB6813437A6913437B61F1
:1039EC00FB687A699A6000BF1C37BD4680BC704783
:1039FC0080B485B000AF786039607B6893F83C3058
:103A0C00012B01D1022341E07B68012283F83C2089
:103A1C007B68022283F83D207B681B685B68FB6037
:103A2C007B681B689B68BB60FB6823F07003FB60C2
:103A3C003B681B68FA681343FB607B681B68FA6879
:103A4C005A607B681B68144A934209D07B681B68D8
:103A5C00B3F1804F04D07B681B68104A93420CD1A1
:103A6C00BB6823F08003BB603B685B68BA68134398
:103A7C00BB607B681B68BA689A607B68012283F81C
:103A8C003D207B68002283F83C2000231846143725
:103A9C00BD4680BC704700BF002C014000040040B4
:103AAC0080B483B000AF786000BF0C37BD4680BCDB
:103ABC00704780B483B000AF786000BF0C37BD4650
:103ACC0080BC704770B500260C4D0D4C641BA410C7
:103ADC00A64209D100F022F800260A4D0A4C641BBC
:103AEC00A410A64205D170BD55F8043B9847013689
:103AFC00EEE755F8043B98470136F2E7543C0008D2
:103B0C00543C0008543C0008583C0008034602444E
:103B1C00934200D1704703F8011BF9E7F8B500BFD9
:103B2C00F8BC08BC9E467047F8B500BFF8BC08BC92
:043B3C009E467047EA
:103B400057656C636F6D6520546F00004C75636B37
:103B500079205370696E2047616D6500535441525E
:103B6000540000004249472057494E210000000000
:103B7000424554544552204C55434B204E455854D1
:103B80002054494D452100005031000050320000C2
:103B90004C4F53455200000057494E45520000001B
:103BA0005448452053434F524520495320455645DC
:103BB0004E2100003E0000002000000031502D4149
:103BC0006363656C20646563656C207370696E0067
:103BD00031502D486F6C64207370696E00000000D6
:103BE00031502D53696E676C65207370696E0000EB
:103BF00032502D54776F20706C61796572730000BC
:103C000054455354204C4344204F4B2100000000A6
:103C1000436865636B696E672E2E2E003F065B4F0F
:103C2000666D7D077F6F000000000000000000004F
:103C30000102030406070809000000000102030452
:103C400002030405060708090A0B0C0D0E0F1010DD
:043C5000010200006D
:043C54003101000832
:043C58000D01000852
:103C5C0000080140000801400000000000000000C6
:103C6C00000200040000000001000000020000003F
:103C7C00030000000100000000127A001000000098
:043C8C000100000033
:04000005080011A13D
:00000001FF
